:1000000028C04CC076C24AC0EFC229C247C046C011
:1000100045C044C043C042C041C040C03FC00000D2
:10002000000036000000000037000000000038002B
:10003000020202020202020202020102040810206D
:100040002004100801020000040000000000BC04AD
:10005000250511241FBECFE5D2E0DEBFCDBF10E0E5
:10006000A0E6B0E0EEE8FEE002C005900D92A038F8
:10007000B107D9F721E0A0E8B0E001C01D92A93195
:10008000B207E1F710E0C8E2D0E003C02197FE011B
:10009000E8D6C732D107D1F712D3EDC6B1CFE09180
:1000A000FA00F091FB000190F081E02D682F8AEFBB
:1000B00090E00994CF92DF92EF92FF920F931F93FB
:1000C000CF93DF936C017A018B01C0E0D0E0CE15B5
:1000D000DF0589F0D8016D918D01D601ED91FC917C
:1000E0000190F081E02DC6010995892B11F47E0164
:1000F00002C02196ECCFC701DF91CF911F910F91E4
:10010000FF90EF90DF90CF90089590E0FC01EC5BC2
:10011000FF4F3491FC01E65CFF4F2491FC01E05D50
:10012000FF4FE491EE2339F1332399F0323071F02F
:1001300028F4313071F48AB58F770AC0333011F06A
:10014000343039F48CB58F7D8CBD03C08AB58F7D7A
:100150008ABDF0E0EE0FFF1FE65DFF4FA591B49161
:100160008FB7F894EC91611103C020952E2301C044
:100170002E2B2C938FBF0895CF93DF9390E0FC013B
:10018000E65CFF4F2491FC01E05DFF4F84918823E2
:1001900061F190E0880F991FFC01EC5DFF4FC59164
:1001A000D491FC01E65DFF4FA591B491611109C0A6
:1001B0009FB7F8948881209582238883EC912E2321
:1001C0000BC0623061F49FB7F8943881822F80951C
:1001D00083238883EC912E2B2C939FBF06C08FB76F
:1001E000F894E8812E2B28838FBFDF91CF9108955B
:1001F0003FB7F8948091ED009091EE00A091EF0050
:10020000B091F00022B708B601FE05C02F3F19F0EB
:100210000196A11DB11D3FBFBA2FA92F982F882786
:10022000820F911DA11DB11DBC01CD0143E0660FE0
:10023000771F881F991F4A95D1F708952091F300E1
:100240003091F4002817390771F49091F1008091F2
:10025000F200981741F0E091F100F0E0EC57FF4F09
:10026000808190E008958FEF9FEF089508951F9388
:10027000CF93DF93DC015C962D913C915D97211526
:10028000310539F481E090E013969C938E93129798
:100290003DC05196ED91FC91529750969C9150978C
:1002A000892F80951FB75E964C915E9741FB77270B
:1002B00070F941FD6095F8944081772311F0492B46
:1002C00001C048234083E9012197F1F748E05081BC
:1002D00060FF02C0592B01C058235083E9012197C8
:1002E000F1F76695415099F7772321F090818923A2
:1002F000808303C08081982B90831FBF5C968D9173
:100300009C915D970197F1F721E030E0C901DF9101
:10031000CF911F9108952091F3003091F400281798
:10032000390769F48091F2002091F10090E08C5936
:100330009F4F821B910964E670E04AD5089580E0E2
:1003400090E008952091F3003091F40028173907C8
:10035000C1F49091F1008091F200981791F0E09132
:10036000F100F0E0EC57FF4F20818091F10090E028
:10037000019664E670E02CD58093F100822F90E026
:1003800008958FEF9FEF0895E091F300F091F4004E
:10039000E817F90769F4A389B4899C918589809548
:1003A00089238C931092F4001092F30081E0089559
:1003B00080E00895089580E090E00895009761F04E
:1003C000FC0101900020E9F73197AF01481B590B60
:1003D000BC018AEF90E06ECE80E090E008958F92AD
:1003E0009F92AF92BF920F931F93CF93DF93CDB79E
:1003F000DEB7A1970FB6F894DEBF0FBECDBF19A22E
:10040000423008F44AE08E010F5D1F4F842E912C7C
:10041000A12CB12CA5019401EED4E62FB901CA019B
:1004200001501109EA3014F4E05D01C0E95CD80123
:10043000EC93232B242B252B69F7C801BFDFA19652
:100440000FB6F894DEBF0FBECDBFDF91CF911F91E5
:100450000F91BF90AF909F908F90089508D51F92F5
:100460000F920FB60F9211242F933F938F939F9368
:10047000AF93BF938091E9009091EA00A091EB00C7
:10048000B091EC003091E80026E0230F2D3720F4E6
:100490000296A11DB11D05C029E8230F0396A11DD9
:1004A000B11D2093E8008093E9009093EA00A093A7
:1004B000EB00B093EC008091ED009091EE00A091E4
:1004C000EF00B091F0000196A11DB11D8093ED00E9
:1004D0009093EE00A093EF00B093F000BF91AF9126
:1004E0009F918F913F912F910F900FBE0F901F9072
:1004F00018951F920F920FB60F9211242F933F93CE
:100500004F935F936F937F938F939F93AF93BF931B
:10051000EF93FF93E091F300F091F400309709F42A
:1005200052C0968DA685B785858591FF04C09C91A4
:10053000892329F448C09C91892309F044C0A389E8
:10054000B4899C918589809589238C938689978924
:100550000197F1F7608D718DA685B785558538E0D7
:1005600020E0CB010197F1F7822F90E095958795D8
:10057000282F4C91452309F02068315091F7868D42
:1005800081FD20958091F20090E0019664E670E094
:100590001FD49091F100981749F0A091F200B0E0BB
:1005A000AC57BF4F2C938093F20003C0868D8160BF
:1005B000868F828D938D0197F1F7A389B4899C91E1
:1005C0008589892B8C93FF91EF91BF91AF919F917A
:1005D0008F917F916F915F914F913F912F910F90EC
:1005E0000FBE0F901F9018951F920F920FB60F928B
:1005F00011242F933F934F935F936F937F938F9328
:100600009F93AF93BF93EF93FF938091800090915E
:100610008100A0918200B09183000196A11DB11DBF
:100620008093800090938100A0938200B093830018
:10063000803C9742A940B10588F1809160008F5FAE
:10064000809360008091F5008295807F826087B9F9
:10065000369A3699FECF64B185B170E0782B072EBB
:10066000000C880B990B91D22DEC3CEC4CE85AE332
:1006700040D32AE037ED43E25DE3F1D16093F60029
:100680007093F7008093F8009093F9001092800027
:10069000109281001092820010928300FF91EF91DE
:1006A000BF91AF919F918F917F916F915F914F918A
:1006B0003F912F910F900FBE0F901F901895789437
:1006C0008AB582608ABD8AB581608ABD83B782603F
:1006D00083BF83B7816083BF89B7826089BF80B7DA
:1006E000826080BF80B7816080BF329A319A309833
:1006F000379A8CB580648CBD10921501109214014C
:100700001092130110921201109211011092100117
:1007100082E09DE0909317018093160130910601CD
:10072000353020F54FE656E050931101409310010B
:1007300040E05DE0509313014093120147EB59E014
:1007400050931501409314012BB720622BBF45E352
:1007500050E050930E0140930D0121E001C0220FA3
:100760003A95EAF720930F010197F1F78091140170
:1007700090911501892B19F18091F3009091F4006B
:1007800020E08A3F9207D9F0009709F0FDDD8091C3
:1007900018018E7F809318011092F2001092F100E0
:1007A0008AEF90E09093F4008093F300E0910D01C4
:1007B000F0910E01908180910F01892B80838FEF42
:1007C0008DBD8FE78EBD81E780BF89B7846089BF0B
:1007D00061E081E0D1DC88E08093F500C0E0D0E00A
:1007E00011E006DD4B015C0188EEC82E83E0D82EB7
:1007F000E12CF12CFDDCDC01CB0188199909AA0957
:10080000BB09883E9340A105B10558F081E0C81AA4
:10081000D108E108F10828EE820E23E0921EA11C07
:10082000B11CC114D104E104F10421F780916000EE
:10083000843611F410936000809160008A3010F4C7
:1008400080E32DDC6091600070E080E090E04AE0A1
:10085000C6DDC090F600D090F700E090F800F09070
:10086000F900A7019601C701B601AED2882319F09D
:1008700083E790E018C046015701E894B7F82FEFDE
:100880003FEF4FE75FE7C501B4019ED281110DC074
:100890002FEF3FEF4FE75FE7C501B40144D11816D2
:1008A00024F487E790E08ADD60C02FEF3FEF4FE749
:1008B0005FE4C701B60119D218161CF48BE790E06B
:1008C000F2CF2FEF3FEF4FE75FECC701B6012BD11F
:1008D00087FDF4CF20E030E0A901C701B60123D1A4
:1008E00087FF06C08DE2DBDBF7FAF094F7F8F094AF
:1008F0002AE037ED43EA5BE3C701B601B0D04B0114
:100900005C0115D16B017C013ED19B01AC01C5019D
:10091000B401A4D04B015C014AE0C701B6015FDD20
:100920008EE2BDDB20E030E040E251E4C501B401DD
:10093000E0D14B015C01FBD06B01E12CF12C4AE0D2
:10094000C701B6014CDDC701B6011DD19B01AC0149
:10095000C501B40183D020E030E040E251E4C9D1C8
:10096000E6D080E090E04AE03ADD8AE298DB20972A
:1009700009F437CF45DB35CF1092FD001092FC0013
:1009800088EE93E0A0E0B0E08093FE009093FF003B
:10099000A0930001B093010185E690E09093FB00E5
:1009A0008093FA001092110110921001109213011D
:1009B0001092120110921501109214011092170159
:1009C00010921601609118016E7F6D7F609318017F
:1009D0006695617081E0682783E097DB61E083E0E2
:1009E000CBDBEDE3F0E0E491E0930A01E3E3F0E038
:1009F000E491F0E0EE0FFF1FE65DFF4F85919491CB
:100A000090930C0180930B0160E083E6B5DB80914D
:100A1000180181FD03C061E083E677DB83E6809304
:100A20000601EDE9F0E0E491E0930701E3E9F0E08D
:100A3000E491F0E0EE0FFF1FE25EFF4F859194918D
:100A40009093090180930801089585E690E09093C2
:100A5000FB008093FA008AEF90E096CC5058BB27B9
:100A6000AA270ED008C1F9D030F0FED020F031F422
:100A70009F3F11F41EF4EEC00EF4E095E7FBE4C0D6
:100A8000E92F0AD180F3BA17620773078407950725
:100A900018F071F49EF522C10EF4E0950B2EBA2FDA
:100AA000A02D0B01B90190010C01CA01A001112474
:100AB000FF27591B99F0593F50F4503E68F11A1620
:100AC000F040A22F232F342F4427585FF3CF4695B1
:100AD00037952795A795F0405395C9F77EF41F16D3
:100AE000BA0B620B730B840BBAF09150A1F0FF0F9D
:100AF000BB1F661F771F881FC2F70EC0BA0F621F89
:100B0000731F841F48F4879577956795B795F79578
:100B10009E3F08F0B3CF9395880F08F09927EE0F0A
:100B20009795879508956CD008F481E00895BCD01E
:100B300088F09F5790F0B92F9927B751A0F0D1F0C6
:100B4000660F771F881F991F1AF0BA95C9F712C050
:100B5000B13081F0C3D0B1E00895C0C0672F782FC5
:100B60008827B85F39F0B93FCCF3869577956795BC
:100B7000B395D9F73EF490958095709561957F4F28
:100B80008F4F9F4F0895E89409C097FB3EF49095CE
:100B90008095709561957F4F8F4F9F4F9923A9F056
:100BA000F92F96E9BB279395F695879577956795E5
:100BB000B795F111F8CFFAF4BB0F11F460FF1BC029
:100BC0006F5F7F4F8F4F9F4F16C0882311F096E9BC
:100BD00011C0772321F09EE8872F762F05C066236A
:100BE00071F096E8862F70E060E02AF09A95660F23
:100BF000771F881FDAF7880F9695879597F90895DC
:100C0000990F0008550FAA0BE0E8FEEF161617061D
:100C1000E807F907C0F012161306E407F50798F085
:100C2000621B730B840B950B39F40A2661F0232B9E
:100C3000242B252B21F408950A2609F4A140A6951A
:100C40008FEF811D811D089597F99F6780E870E0FF
:100C500060E008959FEF80EC089500240A94161632
:100C6000170618060906089500240A94121613069A
:100C7000140605060895092E0394000C11F4882328
:100C800052F0BB0F40F4BF2B11F460FF04C06F5F44
:100C90007F4F8F4F9F4F089557FD9058440F551F1A
:100CA00059F05F3F71F04795880F97FB991F61F0EE
:100CB0009F3F79F087950895121613061406551F65
:100CC000F2CF4695F1DF08C0161617061806991FD1
:100CD000F1CF86957105610508940895E894BB27C6
:100CE00066277727CB0197F908958ADF08F48FEFFD
:100CF00008950AD0C0CFB1DF28F0B6DF18F09523F1
:100D000009F0A2CFA7CFEBCFC7DFA8F39923D9F380
:100D10005523C9F3950F50E0551FAA27EE27FF274B
:100D2000BB2700240894679520F4E20FF31FB41F3B
:100D30000A1E220F331F441FAA1F6695A9F7779535
:100D400030F4F30FB41F0A1E121E08F46395330F1C
:100D5000441FAA1F221F769599F7879520F4B40F98
:100D60000A1E121E631F440FAA1F221F331F8695DF
:100D7000A9F7862F712D602D11249F5750408AF0BE
:100D8000E1F088234AF0EE0FFF1FBB1F661F771F9D
:100D9000881F91505040A9F79E3F510570F054CFE5
:100DA0009ECF5F3FECF3983EDCF386957795679591
:100DB000B795F795E7959F5FC1F7FE2B880F911DBB
:100DC0009695879597F908951BDF880B990B0895E1
:100DD00097FB072E16F4009406D077FD08D02DD08F
:100DE00007FC05D03EF4909581959F4F089570952E
:100DF00061957F4F0895A1E21A2EAA1BBB1BFD012E
:100E00000DC0AA1FBB1FEE1FFF1FA217B307E407E9
:100E1000F50720F0A21BB30BE40BF50B661F771F41
:100E2000881F991F1A9469F7609570958095909521
:100E30009B01AC01BD01CF010895AA1BBB1B51E171
:100E400007C0AA1FBB1FA617B70710F0A61BB70B3A
:100E5000881F991F5A95A9F780959095BC01CD01DF
:100E60000895EE0FFF1F0590F491E02D099481E0A5
:100E700090E0F89400C010E0C8E2D0E003C0FE01AA
:0E0E8000F0DF2196C932D107D1F7F894FFCFE9
:100E8E00010000000037015A00DB0136018B01A280
:100E9E00011E016E616E00696E66006F766600005F
:00000001FF
