:1000000028C04CC076C24AC0EFC229C247C046C011
:1000100045C044C043C042C041C040C03FC00000D2
:10002000000036000000000037000000000038002B
:10003000020202020202020202020102040810206D
:100040002004100801020000040000000000BB04AE
:10005000240511241FBECFE5D2E0DEBFCDBF10E0E6
:10006000A0E6B0E0ECE8FEE002C005900D92AE37ED
:10007000B107D9F721E0AEE7B0E001C01D92A83189
:10008000B207E1F710E0C8E2D0E003C02197FE011B
:10009000E7D6C732D107D1F712D3ECC6B1CFE09182
:1000A000F900F091FA000190F081E02D682F89EFBE
:1000B00090E00994CF92DF92EF92FF920F931F93FB
:1000C000CF93DF936C017A018B01C0E0D0E0CE15B5
:1000D000DF0589F0D8016D918D01D601ED91FC917C
:1000E0000190F081E02DC6010995892B11F47E0164
:1000F00002C02196ECCFC701DF91CF911F910F91E4
:10010000FF90EF90DF90CF90089590E0FC01EC5BC2
:10011000FF4F3491FC01E65CFF4F2491FC01E05D50
:10012000FF4FE491EE2339F1332399F0323071F02F
:1001300028F4313071F48AB58F770AC0333011F06A
:10014000343039F48CB58F7D8CBD03C08AB58F7D7A
:100150008ABDF0E0EE0FFF1FE65DFF4FA591B49161
:100160008FB7F894EC91611103C020952E2301C044
:100170002E2B2C938FBF0895CF93DF9390E0FC013B
:10018000E65CFF4F2491FC01E05DFF4F84918823E2
:1001900061F190E0880F991FFC01EC5DFF4FC59164
:1001A000D491FC01E65DFF4FA591B491611109C0A6
:1001B0009FB7F8948881209582238883EC912E2321
:1001C0000BC0623061F49FB7F8943881822F80951C
:1001D00083238883EC912E2B2C939FBF06C08FB76F
:1001E000F894E8812E2B28838FBFDF91CF9108955B
:1001F0003FB7F8948091EB009091EC00A091ED0056
:10020000B091EE0022B708B601FE05C02F3F19F0ED
:100210000196A11DB11D3FBFBA2FA92F982F882786
:10022000820F911DA11DB11DBC01CD0143E0660FE0
:10023000771F881F991F4A95D1F708952091F100E3
:100240003091F2002817390771F49091EF008091F6
:10025000F000981741F0E091EF00F0E0EE57FF4F0B
:10026000808190E008958FEF9FEF089508951F9388
:10027000CF93DF93DC015C962D913C915D97211526
:10028000310539F481E090E013969C938E93129798
:100290003DC05196ED91FC91529750969C9150978C
:1002A000892F80951FB75E964C915E9741FB77270B
:1002B00070F941FD6095F8944081772311F0492B46
:1002C00001C048234083E9012197F1F748E05081BC
:1002D00060FF02C0592B01C058235083E9012197C8
:1002E000F1F76695415099F7772321F090818923A2
:1002F000808303C08081982B90831FBF5C968D9173
:100300009C915D970197F1F721E030E0C901DF9101
:10031000CF911F9108952091F1003091F20028179C
:10032000390769F48091F0002091EF0090E08C593A
:100330009F4F821B910964E670E049D5089580E0E3
:1003400090E008952091F1003091F20028173907CC
:10035000C1F49091EF008091F000981791F0E09136
:10036000EF00F0E0EE57FF4F20818091EF0090E02A
:10037000019664E670E02BD58093EF00822F90E029
:1003800008958FEF9FEF0895E091F100F091F20052
:10039000E817F90769F4A389B4899C918589809548
:1003A00089238C931092F2001092F10081E008955D
:1003B00080E00895089580E090E00895009761F04E
:1003C000FC0101900020E9F73197AF01481B590B60
:1003D000BC0189EF90E06ECE80E090E008958F92AE
:1003E0009F92AF92BF920F931F93CF93DF93CDB79E
:1003F000DEB7A1970FB6F894DEBF0FBECDBF19A22E
:10040000423008F44AE08E010F5D1F4F842E912C7C
:10041000A12CB12CA5019401EDD4E62FB901CA019C
:1004200001501109EA3014F4E05D01C0E95CD80123
:10043000EC93232B242B252B69F7C801BFDFA19652
:100440000FB6F894DEBF0FBECDBFDF91CF911F91E5
:100450000F91BF90AF909F908F90089507D51F92F6
:100460000F920FB60F9211242F933F938F939F9368
:10047000AF93BF938091E7009091E800A091E900CD
:10048000B091EA003091E60026E0230F2D3720F4EA
:100490000296A11DB11D05C029E8230F0396A11DD9
:1004A000B11D2093E6008093E7009093E800A093AD
:1004B000E900B093EA008091EB009091EC00A091EC
:1004C000ED00B091EE000196A11DB11D8093EB00EF
:1004D0009093EC00A093ED00B093EE00BF91AF912C
:1004E0009F918F913F912F910F900FBE0F901F9072
:1004F00018951F920F920FB60F9211242F933F93CE
:100500004F935F936F937F938F939F93AF93BF931B
:10051000EF93FF93E091F100F091F200309709F42E
:1005200052C0968DA685B785858591FF04C09C91A4
:10053000892329F448C09C91892309F044C0A389E8
:10054000B4899C918589809589238C938689978924
:100550000197F1F7608D718DA685B785558538E0D7
:1005600020E0CB010197F1F7822F90E095958795D8
:10057000282F4C91452309F02068315091F7868D42
:1005800081FD20958091F00090E0019664E670E096
:100590001ED49091EF00981749F0A091F000B0E0C0
:1005A000AE57BF4F2C938093F00003C0868D8160BF
:1005B000868F828D938D0197F1F7A389B4899C91E1
:1005C0008589892B8C93FF91EF91BF91AF919F917A
:1005D0008F917F916F915F914F913F912F910F90EC
:1005E0000FBE0F901F9018951F920F920FB60F928B
:1005F00011242F933F934F935F936F937F938F9328
:100600009F93AF93BF93EF93FF9380917E00909160
:100610007F00A0918000B09181000196A11DB11DC5
:1006200080937E0090937F00A0938000B093810020
:100630008115924EA440B10588F18091F8008F5F3A
:100640008093F8008091F3008295807F826087B963
:10065000369A3699FECF64B185B170E0782B072EBB
:10066000000C880B990B90D22DEC3CEC4CE85AE333
:100670003FD32AE037ED43E25DE3F0D16093F4002D
:100680007093F5008093F6009093F70010927E002F
:1006900010927F001092800010928100FF91EF91E4
:1006A000BF91AF919F918F917F916F915F914F918A
:1006B0003F912F910F900FBE0F901F901895789437
:1006C0008AB582608ABD8AB581608ABD83B782603F
:1006D00083BF83B7816083BF89B7826089BF80B7DA
:1006E000826080BF80B7816080BF329A319A309833
:1006F000379A8CB580648CBD10921401109213014E
:1007000010921201109211011092100110920F011B
:1007100082E09DE0909316018093150130910501D0
:10072000353020F54FE656E05093100140930F010D
:1007300040E05DE0509312014093110147EB59E016
:1007400050931401409313012BB720622BBF45E354
:1007500050E050930D0140930C0121E001C0220FA5
:100760003A95EAF720930E010197F1F78091130172
:1007700090911401892B19F18091F1009091F20070
:1007800020E0893F9207D9F0009709F0FDDD8091C4
:1007900017018E7F809317011092F0001092EF00E6
:1007A00089EF90E09093F2008093F100E0910C01CA
:1007B000F0910D01908180910E01892B80838FEF44
:1007C0008DBD8FE78EBD81E780BF89B7846089BF0B
:1007D00061E081E0D1DC88E08093F300C0E0D0E00C
:1007E00007DD4B015C0188EEC82E83E0D82EE12C9A
:1007F000F12CFEDCDC01CB0188199909AA09BB099F
:10080000883E9340A105B10558F081E0C81AD1088F
:10081000E108F10828EE820E23E0921EA11CB11C13
:10082000C114D104E104F10421F78091F800843669
:1008300011F41092F8008091F8008A3010F480E3EF
:100840002EDC6091F80070E080E090E04AE0C7DDC7
:10085000C090F400D090F500E090F600F090F70022
:10086000A7019601C701B601AED2882319F082E72D
:1008700090E018C046015701E894B7F82FEF3FEF1A
:100880004FE75FE7C501B4019ED281110DC02FEF84
:100890003FEF4FE75FE7C501B40144D1181624F4D8
:1008A00086E790E08BDD60C02FEF3FEF4FE75FE41E
:1008B000C701B60119D218161CF48AE790E0F2CFEE
:1008C0002FEF3FEF4FE75FECC701B6012BD187FD5C
:1008D000F4CF20E030E0A901C701B60123D187FFA2
:1008E00006C08DE2DCDBF7FAF094F7F8F0942AE02A
:1008F00037ED43EA5BE3C701B601B0D04B015C01C1
:1009000015D16B017C013ED19B01AC01C501B40145
:10091000A4D04B015C014AE0C701B60160DD8EE264
:10092000BEDB20E030E040E251E4C501B401E0D19B
:100930004B015C01FBD06B01E12CF12C4AE0C701BB
:10094000B6014DDDC701B6011DD19B01AC01C5014A
:10095000B40183D020E030E040E251E4C9D1E6D0D8
:1009600080E090E04AE03BDD8AE299DB209709F4E1
:1009700037CF46DB35CF1092FC001092FB0088EE9B
:1009800093E0A0E0B0E08093FD009093FE00A09380
:10099000FF00B093000184E690E09093FA0080930A
:1009A000F9001092100110920F0110921201109292
:1009B000110110921401109213011092160110925D
:1009C0001501609117016E7F6D7F60931701669529
:1009D000617081E0682783E098DB61E083E0CCDB35
:1009E000EDE3F0E0E491E0930901E3E3F0E0E4916A
:1009F000F0E0EE0FFF1FE65DFF4F8591949190931D
:100A00000B0180930A0160E083E6B6DB8091170159
:100A100081FD03C061E083E678DB83E68093050116
:100A2000EDE9F0E0E491E0930601E3E9F0E0E49120
:100A3000F0E0EE0FFF1FE25EFF4F859194919093DF
:100A4000080180930701089584E690E09093FA00EE
:100A50008093F90089EF90E097CC5058BB27AA27E4
:100A60000ED008C1F9D030F0FED020F031F49F3F15
:100A700011F41EF4EEC00EF4E095E7FBE4C0E92F9C
:100A80000AD180F3BA17620773078407950718F035
:100A900071F49EF522C10EF4E0950B2EBA2FA02D15
:100AA0000B01B90190010C01CA01A0011124FF271B
:100AB000591B99F0593F50F4503E68F11A16F04016
:100AC000A22F232F342F4427585FF3CF4695379515
:100AD0002795A795F0405395C9F77EF41F16BA0BDA
:100AE000620B730B840BBAF09150A1F0FF0FBB1F88
:100AF000661F771F881FC2F70EC0BA0F621F731FD1
:100B0000841F48F4879577956795B795F7959E3F2D
:100B100008F0B3CF9395880F08F09927EE0F9795BB
:100B2000879508956CD008F481E00895BCD088F0D2
:100B30009F5790F0B92F9927B751A0F0D1F0660FC9
:100B4000771F881F991F1AF0BA95C9F712C0B130E4
:100B500081F0C3D0B1E00895C0C0672F782F8827F7
:100B6000B85F39F0B93FCCF3869577956795B39523
:100B7000D9F73EF490958095709561957F4F8F4F92
:100B80009F4F0895E89409C097FB3EF49095809597
:100B9000709561957F4F8F4F9F4F9923A9F0F92F43
:100BA00096E9BB279395F695879577956795B795C1
:100BB000F111F8CFFAF4BB0F11F460FF1BC06F5FA7
:100BC0007F4F8F4F9F4F16C0882311F096E911C0B9
:100BD000772321F09EE8872F762F05C0662371F0DA
:100BE00096E8862F70E060E02AF09A95660F771FEE
:100BF000881FDAF7880F9695879597F90895990FCA
:100C00000008550FAA0BE0E8FEEF16161706E807D6
:100C1000F907C0F012161306E407F50798F0621BF7
:100C2000730B840B950B39F40A2661F0232B242BCC
:100C3000252B21F408950A2609F4A140A6958FEFEB
:100C4000811D811D089597F99F6780E870E060E03D
:100C500008959FEF80EC089500240A941616170655
:100C600018060906089500240A941216130614069D
:100C700005060895092E0394000C11F4882352F000
:100C8000BB0F40F4BF2B11F460FF04C06F5F7F4FB8
:100C90008F4F9F4F089557FD9058440F551F59F09F
:100CA0005F3F71F04795880F97FB991F61F09F3F59
:100CB00079F087950895121613061406551FF2CF82
:100CC0004695F1DF08C0161617061806991FF1CFD2
:100CD00086957105610508940895E894BB276627F9
:100CE0007727CB0197F908958ADF08F48FEF0895ED
:100CF0000AD0C0CFB1DF28F0B6DF18F0952309F095
:100D0000A2CFA7CFEBCFC7DFA8F39923D9F3552301
:100D1000C9F3950F50E0551FAA27EE27FF27BB27E1
:100D200000240894679520F4E20FF31FB41F0A1EF5
:100D3000220F331F441FAA1F6695A9F7779530F439
:100D4000F30FB41F0A1E121E08F46395330F441FDD
:100D5000AA1F221F769599F7879520F4B40F0A1ED3
:100D6000121E631F440FAA1F221F331F8695A9F767
:100D7000862F712D602D11249F5750408AF0E1F08D
:100D800088234AF0EE0FFF1FBB1F661F771F881FC7
:100D900091505040A9F79E3F510570F054CF9ECF1F
:100DA0005F3FECF3983EDCF3869577956795B795B2
:100DB000F795E7959F5FC1F7FE2B880F911D9695DC
:100DC000879597F908951BDF880B990B089597FB7A
:100DD000072E16F4009406D077FD08D02DD007FC1E
:100DE00005D03EF4909581959F4F0895709561953B
:100DF0007F4F0895A1E21A2EAA1BBB1BFD010DC057
:100E0000AA1FBB1FEE1FFF1FA217B307E407F507BA
:100E100020F0A21BB30BE40BF50B661F771F881F96
:100E2000991F1A9469F760957095809590959B012C
:100E3000AC01BD01CF010895AA1BBB1B51E107C046
:100E4000AA1FBB1FA617B70710F0A61BB70B881F5A
:100E5000991F5A95A9F780959095BC01CD010895E9
:100E6000EE0FFF1F0590F491E02D099481E090E0D2
:100E7000F89400C010E0C8E2D0E003C0FE01F0DF4B
:0C0E80002196C932D107D1F7F894FFCFBA
:100E8C000000000037015A00DB0136018B01A20182
:0E0E9C001E016E616E00696E66006F76660064
:00000001FF
