:100000000C946B000C9493000C9493000C94C50713
:100010000C94C5070C94C5070C9493000C949300A2
:100020000C9493000C9493000C9493000C94930004
:100030000C9493000C9493000C9493000C949300F4
:100040000C942E0A0C9493000C9468090C944209A9
:100050000C9493000C9493000C9493000C949300D4
:100060000C9493000C9493000000000024002700DF
:100070002A007C3C3E5E2B3D3F2F5B5D3B2C2A22C1
:100080005C000000000800020100000304070000FB
:1000900000000000000000000000250028002B00E8
:1000A00000000000230026002900040404040404C6
:1000B0000404020202020202030303030303010217
:1000C00004081020408001020408102001020408E6
:1000D000102062195E1911241FBECFEFD8E0DEBFD9
:1000E000CDBF25E0A4ECB1E001C01D92AE34B20753
:1000F000E1F711E0A0E0B1E0E8E3FAE302C0059027
:100100000D92A43CB107D9F710E0CAE6D0E004C0D4
:100110002197FE010E94D81AC936D107C9F70E945B
:1001200083130C940F1D0C940000DC015996ED9183
:10013000FC915A973097B9F083899489A589B6893B
:100140004285538564857585841B950BA60BB70B7B
:10015000811520E89207A105B10538F08FEF9FE7E0
:10016000A0E0B0E0089580E090E00895DC015996A9
:100170008D919C915A97009739F0DC01ED91FC919B
:100180000480F581E02D099480E090E00895CF93FC
:10019000DF931F92CDB7DEB76983DC01ED91FC914F
:1001A0000280F381E02D41E050E0BE016F5F7F4FA0
:1001B00009950F90DF91CF9108952091C60130915C
:1001C000C7012817390771F49091C4018091C501C6
:1001D000981741F0E091C401F0E0E753FE4F8081B1
:1001E00090E008958FEF9FEF089508951F93CF93A8
:1001F000DF93DC015C962D913C915D9721153105D3
:1002000039F481E090E013969C938E9312973DC051
:100210005196ED91FC91529750969C915097892F51
:1002200080951FB75E964C915E9741FB772770F9DA
:1002300041FD6095F8944081772311F0492B01C06E
:1002400048234083E9012197F1F748E0508160FF9E
:1002500002C0592B01C058235083E9012197F1F7BF
:100260006695415099F7772321F090818923808307
:1002700003C08081982B90831FBF5C968D919C91C9
:100280005D970197F1F721E030E0C901DF91CF914F
:100290001F9108952091C6013091C7012817390791
:1002A00071F48091C5012091C40190E08C599F4F59
:1002B000821B910964E670E00E94B01A089580E004
:1002C00090E008952091C6013091C70128173907A1
:1002D000C9F49091C4018091C501981799F0E091FB
:1002E000C401F0E0E753FE4F20818091C40190E00B
:1002F000019664E670E00E94B01A8093C401822FD8
:1003000090E008958FEF9FEF0895089580E090E0CA
:100310000895FC01818D928D009719F061E00C9495
:10032000780C0895CF93DF93EC01898D9A8D009717
:1003300039F481E090E09B838A8380E090E00BC0F9
:10034000FC01138212820E94570DE98DFA8D2281E1
:100350003381232B71F7DF91CF910895CF93DF93F2
:10036000EC0161E00E94780C882311F01D8281E08D
:10037000DF91CF9108953F924F925F926F927F925B
:100380008F929F92AF92BF92CF92DF92EF92FF92A5
:100390000F931F93CF93DF93CDB7DEB72C970FB694
:1003A000F894DEBF0FBECDBF5C01DC015B968D9083
:1003B0009C905C971696CD90DD90ED90FC901997EF
:1003C000C114D104E104F10439F0BFEFCB1ADB0A08
:1003D000EB0AFB0A312C07C0F401C080D180E28017
:1003E000F38033243394F40181859285A385B48509
:1003F0009C01AD012F5F3F4F4F4F5F4F29873A87D9
:100400004B875C87260137011D821E821F8218865A
:10041000F40181859285A385B4852D813E814F812C
:100420005885281739074A075B0708F063C0898594
:100430009A85AB85BC858C159D05AE05BF0550F42E
:1004400082E0C82ED12CE12CF12C92E0492E512CC7
:10045000612C712C9E012F5F3F4FB701A601C40193
:100460000E948B0B882309F445C089819A81AB8156
:10047000BC81892B8A2B8B2B41F0260137019FEF02
:10048000491A590A690A790A05C0C414D504E60450
:10049000F70491F02D813E814F8158852F5F3F4FAA
:1004A0004F4F5F4F2D833E834F8358873FEFC31AD3
:1004B000D30AE30AF30AACCF0FEF1FEF2FEF3FE0B1
:1004C000B301A201C4010E94EB0A882399F0D5016F
:1004D00016964D915D916D917C911997411551053D
:1004E0006105710549F093018201C4010E94EB0A84
:1004F000811102C080E02EC0D50116964D925D920A
:100500006D927C921997332051F0D301C20101966C
:10051000A11DB11DF40180839183A283B383F501F2
:100520008789908DA18DB28D892B8A2B8B2B69F4B5
:10053000D50157964D925D926D927C925A97149682
:100540008C911497806814968C93F5018481806255
:10055000848381E02C960FB6F894DEBF0FBECDBF2A
:10056000DF91CF911F910F91FF90EF90DF90CF908F
:10057000BF90AF909F908F907F906F905F904F90C3
:100580003F9008958FB7F89480912E028FBF089501
:1005900061E0FC0184810E949A0980912D02811101
:1005A00010922D0208958EBD00000DB407FEFDCF00
:1005B0008EB508958FEF0C94D3020F931F93CF93B2
:1005C000DF93EB010E94220A8B010E94DA028F3F27
:1005D00049F00E94220A601B710B6C177D07A8F37B
:1005E00080E001C081E0DF91CF911F910F910895CC
:1005F000CF93DF93EC018E81882389F08F819885DA
:100600009C012F5F3F4F38872F838230924018F430
:100610000E94DA02F3CFCE010E94C8021E82DF914F
:10062000CF9108958CBD9DBD0895CF93DF93EC01CC
:1006300080912D02811109C081E080932D0280916B
:10064000DC049091DD040E94120360E08C81DF9154
:10065000CF910C949A09CF92DF92FF920F931F9340
:10066000CF93DF9300D000D0CDB7DEB76C01F62E6C
:1006700029833A834B835C830E94F802C6010E945F
:1006800015036CE271E0C6010E94DD028F2D8064CB
:100690000E94D30208E110E05C814B813A812981FC
:1006A000DA01C901002E04C0B695A79597958795E4
:1006B0000A94D2F729833A834B835C830E94D30246
:1006C0000850110929813A814B815C81083F8FEFE5
:1006D000180731F7FF2029F0E8E0FE1204C087E890
:1006E00003C085E901C08FEF0E94D30210E00E9491
:1006F000DA02F601828787FF04C01F3F11F01F5FF7
:10070000F6CF0F900F900F900F90DF91CF911F9128
:100710000F91FF90DF90CF900895AF92BF92CF924C
:10072000DF92EF92FF920F931F93CF93DF93EC0131
:100730006901C801820F931F8130924008F070C098
:100740008E81882371F088819981AA81BB814817A5
:1007500059076A077B0729F48F819885C816D9063F
:10076000B0F5488359836A837B838B85833039F066
:1007700089E0440F551F661F771F8A95D1F79A01AC
:10078000AB0161E1CE010E942B03882319F083E0C5
:100790008D8346C00E94220A5B010E94DA028A878A
:1007A0008F3F49F40E94220A6A197B096D32714019
:1007B000A0F38FE003C08E3F31F08DE08D83CE013A
:1007C0000E94C8022DC018861F8281E08E838F810F
:1007D00098858C159D0540F40E94DA028F819885DA
:1007E000019698878F83F3CF6701E00EF11ECE1438
:1007F000DF0431F00E94DA02F60181936F01F7CF36
:100800008F819885080F191F18870F838985882382
:1008100019F00115124048F0CE010E94F80205C0FF
:10082000CE010E94C80280E001C081E0DF91CF913B
:100830001F910F91FF90EF90DF90CF90BF90AF90FE
:1008400008952F923F924F925F926F927F928F9274
:100850009F92AF92BF92CF92DF92EF92FF920F934F
:100860001F93CF93DF9300D0CDB7DEB7FC01858116
:10087000882309F4D9C0848180FFD6C021E02A836F
:10088000438954896589768982859385A485B58550
:10089000481759076A077B0709F41A826F013A81E2
:1008A000832F90E0DE0111964D013F01B6E06B0E03
:1008B000711C892B09F47DC0D6011A964D915D916A
:1008C0006D917C911D975A01B1E0BB22F601258103
:1008D0001A012B0189E056944794379427948A95FE
:1008E000D1F7838D948D223061F4FC01828D938D3C
:1008F000A48DB58DBC01CD01620D731D841D951DA8
:1009000045C0DC0114961C9111501221A114B104B0
:10091000D1F4111118C0452B462B472B51F4F60189
:100920008789908DA18DB28D86839783A087B187AB
:100930000AC0468157816085718593010E948B0BA7
:10094000882309F471C0F601238D348D8681978147
:10095000A085B1850297A109B109AC01BD01F901DA
:10096000058404C0440F551F661F771F0A94D2F7F1
:1009700086859785A089B189840F951FA61FB71F0B
:10098000BC01CD01610F711D811D911DD601149611
:100990002C9126FF14C000910001109101012091BB
:1009A000020130910301601771078207930751F527
:1009B00006C0FA81FF23C1F1898190E037C040E091
:1009C0000E94A10A882381F1F501E35CFD4FD40167
:1009D000CF010196E817F90719F021912D93FACF6D
:1009E000EFEF8E1A9E0AF60182859385A485B58560
:1009F0000196A11DB11D82879387A487B58780E0EA
:100A000090E057CF740101E010E09501AB01BC010B
:100A100080913D0490913E040E948D03882321F033
:100A2000BFEF8B1A9B0ADFCF8FEF9FEF0F900F90D6
:100A3000DF91CF911F910F91FF90EF90DF90CF90BA
:100A4000BF90AF909F908F907F906F905F904F90EE
:100A50003F902F9008954F925F926F927F929F9256
:100A6000AF92BF92CF92DF92EF92FF920F931F93BC
:100A7000CF93DF93CDB7DEB72B970FB6F894DEBFD9
:100A80000FBECDBF7C01DC011596AC90A1108CC1CE
:100A9000FE0131966F0190E28BE08E0F91938E13E1
:100AA000FDCFDA0130E087E09D91992339F19E3244
:100AB00019F0E2E7F0E00AC08A3009F476C138E0C4
:100AC0008AE0F2CF3196491709F46FC14491411180
:100AD000F9CF831708F469C14FED490F4E3508F07F
:100AE00064C141E0430FF601E30FF11D3FE9390F07
:100AF0003A3108F490529083342FD6CF89818032D6
:100B000009F453C1B22E8B01DB015B968D919C9150
:100B10005C97F701948F838F16961D921D921D92FC
:100B20001C921997FB011286138614861586712C68
:100B3000F80182859385A485B585438954896589A3
:100B4000768984179507A607B70708F061C025E0E6
:100B5000B695A795979587952A95D1F7F82FFF70A9
:100B60006F2ED80115968C91823008F41EC1C801F1
:100B70000E94210497FD19C1F80182859385A485FF
:100B8000B5854F96A11DB11D82879387A487B58730
:100B9000F0E26F9EC0011124BC01635C7D4F6115C2
:100BA000710509F402C1DB012C91222319F0253EC5
:100BB000C1F427C071100EC0F701628A4091000194
:100BC000509101016091020170910301468757879E
:100BD000608B718BFC01E35CFD4F8081811113C040
:100BE00015C04BE050E0C6010E94DA1C892B09F0C9
:100BF0009FCF8B2D8073803309F4D7C04B2D662D8A
:100C0000CEC07720C9F27724739492CF772473945F
:100C10008B2D8271823109F0C8C07720D1F0D701C5
:100C20001E966D917D918D919C91519741E00E940E
:100C3000A10A882309F4B9C0F7016289F0E26F9F25
:100C4000B0011124635C7D4F6115710509F07AC014
:100C5000ACC0D80115968C91823009F4A6C0C801A9
:100C60000E94BB01882309F4A0C0D8015B96ED91D6
:100C7000FC915C9716964D905D906D907C901997C5
:100C8000B2E04B1A510861087108058404C0440C95
:100C9000551C661C771C0A94D2F786859785A08917
:100CA000B189480E591E6A1E7B1E9480E1E04E1ADF
:100CB000510861087108992011F181E00E94780AB9
:100CC000882309F472C0EDE3F2E0119224E0ED33E1
:100CD000F207D9F7D301C201890D911DA11DB11DE4
:100CE0008093000190930101A0930201B09303014E
:100CF00080912F02816080932F029A94DCCFD801DB
:100D00005B96ED91FC915C9780E092E0A0E0B0E012
:100D1000058404C0880F991FAA1FBB1F0A94D2F72D
:100D2000F8014389548965897689840F951FA61F28
:100D3000B71F838B948BA58BB68BD70152961C92D1
:100D40006DE372E080E2FB0111928A95E9F78BE096
:100D5000F601DB0101900D928A95E1F781E298E2BC
:100D6000DB0151969C938E93509720E038E01F96BC
:100D70003C932E931E9753969C938E93529759961D
:100D80009C938E93589757963C932E93569781E059
:100D90000E94780A882349F04B2DF7016289C70128
:100DA0000E945D0FA82E01C0A12C8A2D2B960FB694
:100DB000F894DEBF0FBECDBFDF91CF911F910F9191
:100DC000FF90EF90DF90CF90BF90AF909F907F907B
:100DD0006F905F904F900895FC01818D928D0097E8
:100DE00011F00C9421048FEF9FEF08950F931F9340
:100DF000CF93DF93FC01818D928D0097B9F0EF01C5
:100E00000E9421048C010F3F8FEF180791F0898D0C
:100E10009A8DFC0142855385648575854150510941
:100E2000610971090E94C10CC80105C080E090E011
:100E300002C08FEF9FEFDF91CF911F910F91089527
:100E4000CF92DF92EF92FF920F93CF93DF93EC015B
:100E50006901411551056105710511F482E13EC03A
:100E60008B85833039F089E0440F551F661F771F4B
:100E70008A95D1F79A01AB0168E1CE010E942B035C
:100E8000882311F084E02AC08EEF0E94D3027601FD
:100E90008EEFD81AF70181917F010E94D302EC14E2
:100EA000FD04C1F78FEF0E94D3028FEF0E94D3029F
:100EB0000E94DA028A878F71853031F081E18D835B
:100EC000CE010E94C8020BC00023D9F068E572E091
:100ED000CE010E94DD02811107C085E18D83CE0124
:100EE0000E94C80280E014C020E030E0A9016DE05B
:100EF000CE010E942B03811109C00E94DA028111E8
:100F000005C0CE010E94C80281E002C084E1E6CFA4
:100F1000DF91CF910F91FF90EF90DF90CF900895E8
:100F2000EF92FF920F931F93CF93DF93EC017B011E
:100F30008A011B821A8288EE93E0A0E0B0E08C83E5
:100F40009D83AE83BF838CE291E0998388838DE19A
:100F500090E00E94DE1A9A8F898F009779F02DE138
:100F6000F701DC0101900D922A95E1F74CE050E089
:100F7000B801CE010C960E94001D188EDF91CF9112
:100F80001F910F91FF90EF9008951F920F920FB64F
:100F90000F9211242F933F934F935F936F937F93FF
:100FA0008F939F93AF93BF93EF93FF93E091C6010D
:100FB000F091C701309709F453C0968DA685B78587
:100FC000858591FF04C09C91892329F449C09C9197
:100FD000892309F045C0A389B4899C9185898095AE
:100FE00089238C93868997890197F1F7608D718D9C
:100FF000A685B785558538E020E0CB010197F1F74C
:10100000822F90E095958795282F4C91452309F0E4
:101010002068315091F7868D81FD20958091C50122
:1010200090E0019664E670E00E94B01A9091C401CD
:10103000981749F0A091C501B0E0A753BE4F2C937B
:101040008093C50103C0868D8160868F828D938DCC
:101050000197F1F7A389B4899C918589892B8C9399
:10106000FF91EF91BF91AF919F918F917F916F9180
:101070005F914F913F912F910F900FBE0F901F9056
:101080001895FC01538D448D252F30E0842F90E07E
:10109000821B930B541710F0CF9608950197089573
:1010A000FC01918D828D981761F0828DDF01A80F70
:1010B000B11D5D968C91928D9F5F9F73928F90E092
:1010C00008958FEF9FEF0895FC01918D828D981701
:1010D00031F0828DE80FF11D858D90E008958FEF3E
:1010E0009FEF0895FC01918D228D892F90E0805C07
:1010F0009F4F821B91098F73992708958FE394E086
:101100000E94720821E0892B09F420E0822F0895C3
:10111000FC01848DDF01A80FB11DA35ABF4F2C9194
:10112000848D90E001968F739927848FA689B78963
:101130002C93A089B1898C9180648C93938D848D3C
:10114000981306C00288F389E02D80818F7D80830B
:101150000895EF92FF920F931F93CF93DF93EC01CB
:1011600081E0888F9B8D8C8D981305C0E889F98963
:10117000808185FD24C0F62E0B8D10E00F5F1F4F80
:101180000F731127E02E8C8DE8120CC00FB607FCF0
:10119000FACFE889F989808185FFF5CFCE010E94D9
:1011A0008808F1CF8B8DFE01E80FF11DE35AFF4F48
:1011B000F0820B8FEA89FB898081806207C0EE890B
:1011C000FF896083E889F98980818064808381E078
:1011D00090E0DF91CF911F910F91FF90EF900895D4
:1011E000CF93DF93EC01888D8823C9F0EA89FB89CE
:1011F000808185FD05C0A889B9898C9186FD0FC0C5
:101200000FB607FCF5CF808185FFF2CFA889B98999
:101210008C9185FFEDCFCE010E948808E7CFDF914A
:10122000CF91089580E090E0892B29F00E947E08FC
:1012300081110C94000008950E94D51C0F934091D9
:1012400030025091310260913202709133024115A7
:1012500051056105710599F0082F2DE332E0809169
:101260003D0490913E040E942007882349F010928B
:10127000300210923102109232021092330281E059
:101280000F9108951F920F920FB60F9211242F9372
:101290003F934F935F936F937F938F939F93AF93FE
:1012A000BF93EF93FF938FE394E00E948808FF9130
:1012B000EF91BF91AF919F918F917F916F915F91CE
:1012C0004F913F912F910F900FBE0F901F90189547
:1012D0001F920F920FB60F9211242F938F939F930B
:1012E000EF93FF93E0914F04F09150048081E091DF
:1012F0005504F091560482FD12C0908180915804EB
:101300008F5F8F7320915904821751F0E091580438
:10131000F0E0E15CFB4F958F8093580401C0808121
:10132000FF91EF919F918F912F910F900FBE0F9092
:101330001F90189590E0FC01EE57FF4F3491FC018F
:10134000E254FF4F2491FC01E655FF4FE491EE2358
:1013500009F43BC0332339F1333091F038F43130A4
:10136000A9F0323001F584B58F7D12C0373091F08D
:101370003830A1F03430B9F4809180008F7D03C003
:10138000809180008F77809380000DC084B58F7727
:1013900084BD09C08091B0008F7703C08091B000F8
:1013A0008F7D8093B000F0E0EE0FFF1FEA56FF4FF5
:1013B000A591B4918FB7F894EC91611103C0209579
:1013C0002E2301C02E2B2C938FBF0895CF93DF9334
:1013D00090E0FC01E254FF4F2491FC01E655FF4FE1
:1013E0008491882361F190E0880F991FFC01E859EE
:1013F000FF4FC591D491FC01EA56FF4FA591B491DE
:10140000611109C09FB7F894888120958223888351
:10141000EC912E230BC0623061F49FB7F8943881B1
:10142000822F809583238883EC912E2B2C939FBF52
:1014300006C08FB7F894E8812E2B28838FBFDF91E9
:10144000CF9108952FB7F8946091390270913A02C4
:1014500080913B0290913C022FBF08951F920F9202
:101460000FB60F9211242F933F938F939F93AF93B7
:10147000BF938091390290913A02A0913B02B091C2
:101480003C023091380223E0230F2D3720F40196DF
:10149000A11DB11D05C026E8230F0296A11DB11D97
:1014A000209338028093390290933A02A0933B0232
:1014B000B0933C028091340290913502A0913602A3
:1014C000B09137020196A11DB11D80933402909313
:1014D0003502A0933602B0933702BF91AF919F912E
:1014E0008F913F912F910F900FBE0F901F901895E5
:1014F0000F93CF9390912F029923F9F0C82F409129
:101500000001509101016091020170910301082FC7
:101510002DE332E080913D0490913E040E9420072B
:10152000811102C080E00AC0CC2339F08C2F0E94C8
:101530001E098823B9F310922F0281E0CF910F91F9
:1015400008958F929F92AF92BF92EF92FF920F9366
:101550001F93CF934B015C01C42F809100019091A8
:101560000101A0910201B091030188159905AA0516
:10157000BB0509F181E00E94780A811102C080E078
:1015800020C08DE3E82E82E0F82E00E012E020E09B
:1015900030E0B501A40180913D0490913E040E9489
:1015A0008D03882361F38092000190920101A09243
:1015B0000201B092030180912F02C82BC0932F0229
:1015C00081E0CF911F910F91FF90EF90BF90AF906E
:1015D0009F908F9008954F925F926F927F928F921B
:1015E0009F92AF92BF92CF92DF92EF92FF920F93B2
:1015F0001F93CF93DF93EC016A017B01280139012E
:10160000423051056105710510F480E073C0898591
:101610009A85AB85BC850196A11DB11D84179507E0
:10162000A607B70790F38B889C88AD88BE888F8902
:10163000803129F4BB27AF2D9E2D8D2D09C0DB01F4
:10164000CA0147E0B695A795979587954A95D1F732
:10165000880E991EAA1EBB1E809100019091010167
:10166000A0910201B091030188169906AA06BB0653
:1016700079F48F898031A1F4DD24EE24FF24C601A2
:10168000880F991FFC01E35CFD4F5182408219C015
:1016900040E0C501B4010E94A10A8111EACFB5CF93
:1016A000E894C7F8DD24EE24FF24C601880F991FB3
:1016B000880F991FFC01E35CFD4F408251826282DA
:1016C000738280912F02816080932F028A898230F9
:1016D00080F08D819E81AF81B885880E991EAA1EEB
:1016E000BB1E8092300290923102A0923202B092E0
:1016F000330281E0DF91CF911F910F91FF90EF9026
:10170000DF90CF90BF90AF909F908F907F906F9021
:101710005F904F9008958F929F92AF92BF92CF9219
:10172000DF92EF92FF920F931F93CF93DF93FC0111
:1017300081859285A385B4850196A11DB11D84176D
:101740009507A607B70710F480E05CC083899489E9
:10175000A589B689C789C03129F4852E962EA72E72
:10176000BB2409C04A015B01C7E0B694A7949794D3
:101770008794CA95D1F7E9016A017B018F01BC0109
:10178000CD01680D791D8A1D9B1D809000019090F0
:101790000101A0900201B0900301681579058A0546
:1017A0009B0599F4F80187898031A9F4B701A60156
:1017B000552766277727440F551FFA01E35CFD4F35
:1017C00080819181A0E0B0E018C040E00E94A10AB1
:1017D0008111E8CFB9CFB701A6014F77552766270A
:1017E0007727440F551F440F551FFA01E35CFD4F47
:1017F00080819181A281B381BF7088839983AA83FC
:10180000BB8381E0DF91CF911F910F91FF90EF900B
:10181000DF90CF90BF90AF909F908F9008954F92A0
:101820005F926F927F92AF92BF92CF92DF92EF92D0
:10183000FF920F931F93CF93DF9300D000D0CDB7CB
:10184000DEB78C0149835A836B837C835901C12C99
:10185000D12C7601412C82E0582E612C712C4981CB
:101860005A816B817C819E012F5F3F4FC8010E948E
:101870008B0B882351F1D301C201F801058404C008
:10188000880F991FAA1FBB1F0A94D2F7C80ED91E32
:10189000EA1EFB1E49815A816B817C8187898031D8
:1018A00029F088EF9FEFAFEFBFE004C088EF9FEF14
:1018B000A0E0B0E0481759076A077B0780F2F501FE
:1018C000C082D182E282F38281E00F900F900F906C
:1018D0000F90DF91CF911F910F91FF90EF90DF90CC
:1018E000CF90BF90AF907F906F905F904F90089592
:1018F0001F93CF93DF93FC0125812223E9F1162F5B
:10190000EC01848187FF2DC0668577858089918968
:1019100041E00E94A10A882379F1EA8980E2E89FE8
:10192000F0011124DF01A35CBD4F109729F18D81D7
:10193000823050F44B895C896D897E895C964D9329
:101940005D936D937C935F978F89988DA98DBA8DE8
:10195000E35CFD4F938F828FB58BA48B8C818F7747
:101960008C83111103C08C818F7E8C83812FDF913A
:10197000CF911F910C94780A80E0DF91CF911F9155
:1019800008958F929F92AF92BF92CF92DF92EF9283
:10199000FF920F931F93CF93DF93EC018D81811101
:1019A00002C080E077C00B891C892D893E8904170D
:1019B000150726073707A8F36A017B01823029F44F
:1019C000CA86DB86EC86FD860DC0C114D104E10415
:1019D000F10451F41E821F82188619861A861B860E
:1019E0001C861D8681E056C08A849B84AC84BD849D
:1019F000EB8DFC8D258530E0275F3F4FB501A401BD
:101A00004150510961097109022E04C0769567950C
:101A1000579547950A94D2F7D701C6010197A109B6
:101A2000B10904C0B695A795979587952A95D2F7E1
:101A300084179507A607B70720F089288A288B28DE
:101A400049F44F89588D698D7A8D4E835F836887FD
:101A5000798704C0841B950BA60BB70B4C015D0165
:101A60008E010A5F1F4F81149104A104B10409F48F
:101A7000A7CF4E815F816885798598018B8D9C8D7C
:101A80000E948B0B91E0891A9108A108B10881117D
:101A9000EACF87CFDF91CF911F910F91FF90EF9009
:101AA000DF90CF90BF90AF909F908F9008952F922E
:101AB0003F924F925F926F927F928F929F92AF92DE
:101AC000BF92CF92DF92EF92FF920F931F93CF932B
:101AD000DF9300D000D01F92CDB7DEB77C015B0151
:101AE0003A01DC0114961C91149715968C91813063
:101AF000B9F411FF15C012FF1BC0F70143895489C7
:101B00006589768982859385A485B585841795072F
:101B1000A607B70769F0C7010E94C10C811108C070
:101B200081E090E0F7019383828380E090E03EC102
:101B3000630112951F70109511701D8381C0D7012C
:101B40005B968D919C915C97FC0154805A94B901ED
:101B5000A80129E076956795579547952A95D1F77D
:101B600054221170552009F477C080E092E0801B68
:101B7000910B46018C159D0508F44C01D7015B962D
:101B80002D913C915C9716968D919D910D90BC91F5
:101B9000A02D0297A109B109F901058404C0880F9D
:101BA000991FAA1FBB1F0A94D2F7468557856089E3
:101BB0007189840F951FA61FB71F9C01AD01250DCC
:101BC000311D411D511D19012A01811432E0930676
:101BD00009F089C08091000190910101A09102015A
:101BE000B091030182159305A405B50559F48FEF53
:101BF0009FEFDC018093000190930101A09302010B
:101C0000B09303010D819501B201A10180913D04C2
:101C100090913E040E942007882309F481CF9EEF13
:101C2000B91AC818D908F70182859385A485B585A6
:101C3000880D991DA11DB11D82879387A487B58743
:101C4000D7011A960D911D912D913C911D97C114AC
:101C5000D10409F074CF88C00115110509F085CFB2
:101C600016964D915D916D917C9119974115510595
:101C70006105710559F457968D919D910D90BC9118
:101C8000A02D0097A105B10541F521C09E012F5F50
:101C90003F4F0E948B0B882309F448CF89819A819A
:101CA000AB81BC81F701238D348DF9012789203167
:101CB00029F048EF5FEF6FEF7FE004C048EF5FEF80
:101CC00060E070E084179507A607B70730F0C701FA
:101CD0000E94BB01811149CF23CFF70186839783EF
:101CE000A087B18742CF0115110531F5D7011A96AA
:101CF0004D915D916D917C911D9753968D919D9124
:101D00000D90BC91A02D481759076A077B07A0F0DA
:101D100081E00E94780A882309F402CF2092000112
:101D200030920101409202015092030180912F02F2
:101D3000816080932F0208C041E0C201B1010E947E
:101D4000A10A882309F4ECCED501F801E35CFD4F2C
:101D5000CF01880D991DE817F90719F02D912193EE
:101D6000FACFA80CB91C5DCF53968D919D910D9023
:101D7000BC91A02D80179107A207B30740F4F7018B
:101D8000038B148B258B368B848180688483D701E9
:101D900014968C9183FD02C0C30108C061E0C701A5
:101DA0000E94780C882309F4BBCEF6CF0F900F90D9
:101DB0000F900F900F90DF91CF911F910F91FF9097
:101DC000EF90DF90CF90BF90AF909F908F907F90DB
:101DD0006F905F904F903F902F900895CF93DF9337
:101DE0001F92CDB7DEB7698341E050E0BE016F5F5F
:101DF0007F4F0E94570D0F90DF91CF910895FF9272
:101E00000F931F93CF93DF93EC018D81813011F5F8
:101E10008C8181FF1FC082FF0DC04B895C896D8959
:101E20007E898A859B85AC85BD8584179507A60725
:101E3000B70799F400913D0410913E04C8010E9437
:101E400015030E94DA02F82EC8010E94C8028FEF23
:101E5000F81649F080E090E02AC0CE010E94C10C43
:101E60008111E8CFF7CF8C8185FF08C060E0CE01FB
:101E70000E94780C8C818F7D8C83ECCF4091300256
:101E8000509131026091320270913302452B462B02
:101E9000472B21F080E00E941E09DCCF80618C83FB
:101EA0002A853B85317080E092E0821B930BDF91A5
:101EB000CF911F910F91FF9008951F93CF93DF93C0
:101EC000EC0180E2689FF00111249F01235C3D4FEB
:101ED000D9011B969C91917129F0842F827411F085
:101EE00080E058C0142F6A8B80910001909101010D
:101EF000A0910201B09103018E879F87A88BB98BB7
:101F0000E35CFD4F4489558960E070E0BA015527D4
:101F100044274F8B588F698F7A8F828D938DA0E0E5
:101F2000B0E0482B592B6A2B7B2B4F8B588F698F36
:101F30007A8FD9011B968C91887151F4848D958D7F
:101F4000A68DB78D8B8B9C8BAD8BBE8B81E00DC02E
:101F5000803131F69E012D5E3F4F8B8D9C8D0E940E
:101F60000F0C882309F4BCCF84E08D83812F8F7000
:101F70008C831E821F82188619861A861B861C86F1
:101F80001D8616FF06C0CE01DF91CF911F910C94E4
:101F90001F1081E0DF91CF911F9108950895DC011A
:101FA000ED91FC910280F381E02D42E050E06EEB78
:101FB00071E009940F931F93CF93DF93EC01888115
:101FC0009981009729F02A813B812617370788F4E9
:101FD0008B016F5F7F4F0E940B1C009761F099830C
:101FE00088831B830A832C813D81232B11F4FC0100
:101FF000108281E001C080E0DF91CF911F910F91AD
:102000000895CF93DF93009779F0FC0101900020B1
:10201000E9F73197AF01481B590BBC018FE394E0FE
:102020000E945813EC0102C0C0E0D0E08FE394E0BE
:102030000E94CF0F8C0F9D1FDF91CF9108958F923B
:102040009F92AF92BF92CF92DF92EF92FF920F9347
:102050001F93CF93DF9300D000D0CDB7DEB7FC0144
:102060008581813079F5948191FF2CC04389548911
:1020700065897689452B462B472B09F45DC07F0186
:1020800040E050E0BA01CF010E94C10C8823D1F09A
:10209000F7018788908CA18CB28CC38CD48C82E0A1
:1020A00090E0A0E0B0E0F60180839183A283B38347
:1020B0009E012F5F3F4FB501A401C6010E948B0B0B
:1020C000811102C080E038C000E010E09801B50145
:1020D000A401C6010E94EB0A8823A1F389809A809B
:1020E000AB80BC80F6018789803129F088EF9FEFB3
:1020F000AFEFBFE004C088EF9FEFA0E0B0E088162C
:102100009906AA06BB06A0F2F701178A108E118E57
:10211000128E138A148A158A168A848180688483B1
:1021200061E0C7010E94780C882361F240E050E032
:10213000BA01C7010E94C10C0F900F900F900F9031
:10214000DF91CF911F910F91FF90EF90DF90CF9093
:10215000BF90AF909F908F900895CF93DF93FC0135
:102160002581222311F080E049C0EC018091010516
:102170008031C1F482E08583178A108E118E128E11
:102180008091020590910305A0E0B0E025E0880F62
:10219000991FAA1FBB1F2A95D1F7838B948BA58B00
:1021A000B68B19C08032F9F683E08583409104052F
:1021B000509105056091060570910705478B508F7A
:1021C000618F728F9F012D5E3F4F8AEE94E00E94D7
:1021D0000F0C882341F28AEE94E09C8F8B8F81E074
:1021E0008C831E821F82188619861A861B861C867F
:1021F0001D861E861F86188A198A1A8ADF91CF913A
:1022000008958F929F92AF92BF92CF92DF92EF92FA
:10221000FF92CF93DF93C82F8EED94E090933E040E
:1022200080933D04CC2369F1C53010F080E00DC1EE
:1022300040E060E070E0CB010E94A10A8823B1F386
:1022400020E1C29FC0011124835D9D4FFC01E25437
:10225000FE4F20812F7751F73C964081518162815A
:102260007381443651056105710500F33497C080D0
:10227000D180E280F380C114D104E104F10421F49F
:10228000D5CFC12CD12C760140E0C701B6010E9408
:10229000A10A882359F28091480290914902811540
:1022A000924021F6A0914D02AA2309F4BFCF60917C
:1022B0004B0270914C026115710509F4B7CF209162
:1022C0004A02222309F4B2CFA093FC042093EE0427
:1022D00080E030E0E1E0F0E0C82FAF01082E02C05E
:1022E000440F551F0A94E2F72417350741F0982F41
:1022F0008F5F983089F789E08093F70497CF8093B8
:10230000F70420915302309154022115310519F040
:1023100040E050E008C0209161023091620240919B
:102320006302509164022093EF043093F0044093D1
:10233000F1045093F20446015701860E971EA11C2A
:10234000B11C8092FD049092FE04A092FF04B09212
:102350000005E0914E02F0914F02F0930305E093E7
:102360000205B0E00E945F1A860E971EA81EB91ED5
:102370008092040590920505A0920605B09207058B
:1023800085E0EE0FFF1F8A95E1F7E150FE4FEF2F3A
:10239000FF27E6958E0E9F1EA11CB11C8092F804AB
:1023A0009092F904A092FA04B092FB04209150029A
:1023B000309151022115310521F0A90160E070E052
:1023C00008C040915D0250915E0260915F02709181
:1023D0006002D701C60188199909AA09BB09840FAF
:1023E000951FA61FB71F04C0B695A795979587950B
:1023F000CA95D2F78093F3049093F404A093F50464
:10240000B093F604853F2FE09207A105B10510F4C3
:102410008CE018C0853F9F4FA105B10510F480E105
:1024200011C08091690290916A02A0916B02B091F3
:102430006C028093040590930505A0930605B09364
:10244000070580E28093010581E0DF91CF91FF9045
:10245000EF90DF90CF90BF90AF909F908F900895B6
:10246000EF92FF920F931F93CF93DF93FC01248190
:1024700035816115710511F480E019C041155105D0
:10248000A9F07B01EC018A01020F131FB8010E9421
:10249000DA0F882389F3288139818C819D81B701E6
:1024A000820F931F0E94F91C1D830C8381E0DF9132
:1024B000CF911F910F91FF90EF900895CF93DF93ED
:1024C000EC0188819981009711F00E94731B198299
:1024D00018821D821C821B821A82DF91CF9108957F
:1024E0000F931F93CF93DF93EC010C811D810F5F3E
:1024F0001F4FB8010E94DA0F882369F028813981C3
:102500008C819D8161EC71E0820F931F0E94F91C08
:102510001D830C8303C0CE010E945E12CE01DF91A9
:10252000CF911F910F910895EF92FF920F931F93F8
:10253000CF93DF93EC017B018A01BA010E94DA0F8D
:10254000811104C0CE010E945E1207C01D830C835E
:10255000B701888199810E94F91CCE01DF91CF914A
:102560001F910F91FF90EF900895CF93DF93EC01AF
:10257000FB018617970761F0608171816115710514
:1025800029F0448155810E94941202C00E945E127B
:10259000CE01DF91CF910895FC01808191810C944F
:1025A000731BFC0111821082138212821582148225
:1025B0006115710551F0FB0101900020E9F7319799
:1025C000AF01461B570B0C9494120895BF92CF9203
:1025D000DF92EF92FF920F931F93CF93DF937C01D3
:1025E0006B01EA0189012417350720F48D2FE901D9
:1025F000042F182F60EC71E0C7010E94D112D601A0
:1026000014968D919C911597C817D90748F5801796
:10261000910708F48C01D601ED91FC911197E00F20
:10262000F11FB08010824D915C91BA016C0F7D1F3B
:102630006115710561F0FB0101900020E9F7319708
:10264000AF01461B570BC7010E94941203C0C7017C
:102650000E945E12D601ED91FC91E00FF11FB08255
:10266000C701DF91CF911F910F91FF90EF90DF9005
:10267000CF90BF9008950F931F93CF93DF93EC01FA
:10268000E881F981DB0114964D915C9115976D916C
:102690007C910280F381E02D09958C01CE010E948E
:1026A000CF0F800F911FDF91CF911F910F91089550
:1026B000CF92DF92EF92FF920F931F93CF93DF930E
:1026C0006C017A018B01C0E0D0E0CE15DF0589F006
:1026D000D8016D918D01D601ED91FC910190F081B1
:1026E000E02DC6010995892B11F47E0102C02196C7
:1026F000ECCFC701DF91CF911F910F91FF90EF9029
:10270000DF90CF900895CF93DF93CDB7DEB7CA584F
:10271000D1090FB6F894DEBF0FBECDBF789484B553
:10272000826084BD84B5816084BD85B5826085BDCD
:1027300085B5816085BD80916E00816080936E005B
:10274000109281008091810082608093810080914D
:1027500081008160809381008091800081608093FE
:1027600080008091B10084608093B1008091B000BE
:1027700081608093B00080917A00846080937A00B9
:1027800080917A00826080937A0080917A008160E3
:1027900080937A0080917A00806880937A0010920A
:1027A000C100E0914F04F091500482E08083E091F9
:1027B0004B04F0914C041082E0914D04F0914E04D2
:1027C0008FEC808310925704E0915304F0915404ED
:1027D00086E08083E0915104F09152048081806111
:1027E0008083E0915104F09152048081886080835D
:1027F000E0915104F0915204808180688083E091DF
:102800005104F091520480818F7D8083E0914205D4
:10281000F0914305138E128E118E108E178A168A30
:1028200087E09AE1958F848F8485863108F04DC0CA
:1028300022EF3CE0378B268B25E03AE1318F208F69
:102840002BE733E1338F228F90916800883050F06E
:1028500021E08E3008F420E081E001C0880F2A9545
:10286000EAF701C084E0892B809368009485983052
:1028700038F09E3040F0963148F020E030E008C05B
:102880002DE630E005C02BE630E002C02CE630E05B
:10289000348B238B983030F481E001C0880F9A95F7
:1028A000EAF70EC0292F30E09E3018F42850310985
:1028B00002C02E50310981E001C0880F2A95EAF745
:1028C000858B848D958D0197F1F7828D938D892B62
:1028D00049F14091C6015091C7014E175F0711F1B0
:1028E0004115510571F0DA0153962D913C915497A1
:1028F000D9019C91DA0155968C9180958923D90153
:102900008C93868D8E7F868F1092C5011092C401A4
:10291000F093C701E093C601A389B4899C9185898E
:10292000892B8C9380910D05882321F088E095E018
:102930000E94AE011092E9041092E7041092E404A0
:102940001092E3048AE08093E2040E94220A8B0141
:1029500061E08091E2040E94E60961E08091E20476
:102960000E949A09FFB6F8948091C801811127C08E
:10297000E4EBF0E08491E8ECF0E09491E82FF0E0F3
:10298000EE0FFF1FE859FF4FA591B491EC91E92399
:1029900021F461E08AE00E949A0961E08AE00E94E5
:1029A000E6098CB580618CBD8CB580648CBD61E01E
:1029B0008DE00E94E60961E08BE00E94E6098091CB
:1029C000C8018F5F8093C801FFBE82E58093DC045D
:1029D0001092DD048091DC049091DD040E941203CA
:1029E0002AE0F22E8FEF0E94D302FA94F110FACF70
:1029F0008EED94E00E94150320E030E0A90160E034
:102A00008EED94E00E942B03F82E8093E804E1E021
:102A10008E1749F00E94220A601B710B613D7740BE
:102A200058F381E056C02AEA31E040E050E068E027
:102A30008EED94E00E942B0382FF03C0F092E90424
:102A400010C094E0F92E0E94DA028093E804FA9410
:102A5000F110F9CF8A3A11F082E03BC082E0809316
:102A6000E9048091E904823021F0C12CD12C760157
:102A700005C0C12CD12CE12C80E4F82E20E030E000
:102A8000A90167E38EED94E00E942B03A701960154
:102A900069E28EED94E00E942B038093E804882382
:102AA00049F00E94220A601B710B613D774030F3B0
:102AB00088E00FC08091E904823001F520E030E029
:102AC000A9016AE38EED94E00E942B03882341F074
:102AD00086E08093E3048EED94E00E94C802D5C0A6
:102AE0000E94DA02807C803C19F483E08093E90440
:102AF0000E94DA020E94DA020E94DA028EED94E06D
:102B00000E94C80280E58093DC041092DD0481E01D
:102B10000E940111882311F188E095E00E94AD1018
:102B2000882309F4B2C08AE691E00E9401101EAE2B
:102B30001DAE80E291E09CAF8BAF21961FAE219736
:102B400019A218A29F8F8E8F1BA2C12CB12C7E01BF
:102B50008BE3E80EF11C08E015E04CC080E00E9419
:102B60000111882309F491C0D7CFFE01E85AFF4F25
:102B700040E050E0D901AE54BE4F8C918F3251F0FD
:102B8000882341F04F5F5F4F2F5F3F4F81934C3061
:102B9000510581F7E8E5F0E0EC0FFD1FE40FF51FAC
:102BA0001082F901EE54FE4F80818F3211F42F5FB5
:102BB0003F4FC22EB32EF901EE54FE4F8081882381
:102BC00029F121E0AE01485A5F4FB801C7010E94C8
:102BD0002B05D82EE5E008301E0709F069C38823CD
:102BE00009F457C08E01025E1F4F902F812F87017D
:102BF000E92EF82E2C2D3B2DF901EE54FE4F80814D
:102C00008F3209F0B2CF2F5F3F4FAFCF1C821B82B4
:102C100080E291E09A8389831E8222E0AE01485AC5
:102C20005F4FB801CE0101960E942B05882301F168
:102C3000CE0101960E941F108823D1F06F857889FC
:102C400089899A8941E00E94A10A882389F0EB8949
:102C500090E2E99FF0011124E35CFD4F309741F0D1
:102C600085EE80831E8281E00E94780A811105C072
:102C7000A5E008301A0729F40CC0B5E008301B079E
:102C800041F0C8010E94AE0104C083E891E00E94B7
:102C900001107E01B5E8EB0EF11C6701E6E0CE0EF7
:102CA000D11C88E590E08C0F9D1F0C965C018091F3
:102CB000420590914305DC01ED91FC910084F18582
:102CC000E02D0995181619060CF0EFC286E0F70101
:102CD00011928A95E9F70091420510914305470149
:102CE0000E94220AD80118966D937D938D939C9330
:102CF0001B97D801ED91FC910284F385E02DC8016A
:102D0000099597FD13C08A32910539F5B701CE01B7
:102D100081589F4F0E94D112C158DF4F88809980FF
:102D2000CF57D0408114910401F56CC00E94220A53
:102D3000F8014084518462847384DC01CB018419DE
:102D40009509A609B7094480558066807780841567
:102D50009505A605B70568F2D9CFD4018D934D012D
:102D6000AC15BD0509F0BCCFD1CFCD57DF4F0881E1
:102D70001981C358D0400115110509F443C024013D
:102D80003201BFEF4B1A5B0AF3018081082E000C61
:102D9000990B0E94531A892B99F701501109080DBC
:102DA000191DD8018C91082E000C990B0E94531A02
:102DB000892B99F4A8014F5F5F4F46195709CD57EA
:102DC000DF4F59834883C358D0408614970458F482
:102DD000B301C4010E94E71C06C00615170550F395
:102DE00001501109DECFC158DF4FE881F981CF577B
:102DF000D040CD57DF4F88819981C358D040E80F2C
:102E0000F91F1082CD57DF4F88819981C358D04078
:102E1000892B09F445C2C158DF4FE881F981CF57AA
:102E2000D0408081882309F43BC260EC71E0CE0180
:102E300087589F4F0E94D11222E030E040E050E0DE
:102E4000BE0161587F4FCE0101960E94E6122D818E
:102E50003E8180914805909149052817390729F549
:102E600089819A816091440570914505009719F018
:102E700061157105A9F46115710551F02115310530
:102E800039F0FB01808190E09195819591090AC00C
:102E9000009769F0232B59F0DC018C9190E002C07F
:102EA0000E94F01C11E0892B19F010E001C011E024
:102EB000CE0101960E94CC121111EDC122E030E04A
:102EC00040E050E0BE0161587F4FCE0101960E9464
:102ED000E61280914405909145050097C9F06981FB
:102EE0007A816115710591F0409146055091470531
:102EF0002D813E814217530748F00E94F91C8D81B5
:102F00009E81909349058093480518C00E94731BC9
:102F100089819A8190934505809344058B819C819A
:102F200090934705809346058D819E819093490536
:102F3000809348051A8219821C821B821E821D8280
:102F4000CE0101960E94CC1226E030E042E050E033
:102F5000BE0161587F4FCE01885A9F4F0E94E612F2
:102F600061EA71E0CE01CB960E94D11222E030E0FE
:102F700040E050E0BE0161587F4FCE0101960E94B3
:102F8000E6121F8E1E8E19A218A21BA21AA2BE0143
:102F90006F5F7F4FCE014E960E94B512CE014E96C6
:102FA0000E9470128C0121964EAD5FAD21976BADE2
:102FB0007CAD0E943012811103C0C8010E945E12D4
:102FC000C8010E9470128C016E964EAD5FAD6E9777
:102FD0006A966EAD7FAD6A970E943012811103C070
:102FE000C8010E945E12B801CE0187589F4F0E940F
:102FF000B512CE014E960E94CC12CE0101960E94CF
:10300000CC12CE01CB960E94CC12CE01885A9F4F93
:103010000E94CC12BE0167587F4F8FE394E00E945C
:103020003B13E5961FAE1EAEE597E7961FAE1EAEAC
:10303000E797E9961FAE1EAEE997BE0167587F4F2E
:10304000CE018D589F4F0E94B5121C821B8200E258
:1030500011E01A8309831E82CE0101960E94AD10F1
:103060008B819C819EAF8DAF1CAF0BAF8D818FAFDD
:103070008E8121968FAF21974F81588569857A85FA
:1030800025964CAF5DAF6EAF7FAF25974B855C85C6
:103090006D857E8529964CAF5DAF6EAF7FAF29976A
:1030A0004F85588969897A892D964CAF5DAF6EAF8F
:1030B0007FAF2D979B892E969FAF2E974C895D8968
:1030C0006E897F8962964CAF5DAF6EAF7FAF6297BE
:1030D000488D598D6A8D7B8D66964CAF5DAF6EAF16
:1030E0007FAF66972C8D3D8D68963FAF2EAF68976A
:1030F00019A218A21F8F0E8F1BA2811116C06C96E9
:103100001FAE1EAE6C9788EE93E0A0E0B0E0A096F4
:103110008CAF9DAFAEAFBFAFA097E3961FAE1EAE14
:10312000E397A5961FAEA5975AC027E142EB51E061
:10313000BE01655C7F4FCE014E960E942B05882311
:10314000F1F2CE01CB960E94AE0149A95AA96BA912
:103150007CA9CE014E960E94C10C88A199A19C83A6
:103160008B831A8309838AA18D838BA18E838CA183
:103170009DA1AEA1BFA18F839887A987BA8788A593
:1031800099A5AAA5BBA58B879C87AD87BE878CA573
:103190009DA5AEA5BFA58F87988BA98BBA8B88A953
:1031A0008B8B89A99AA9ABA9BCA98C8B9D8BAE8B63
:1031B000BF8B8DA99EA9AFA9B8AD888F998FAA8F13
:1031C000BB8F89AD9AAD9D8F8C8F42EB51E0BE01D4
:1031D0006F5F7F4FCE01885A9F4F0E9490076C9679
:1031E0008EAD9FAD6C9790932A0580932905A0968C
:1031F0008CAD9DADAEADBFADA09780932B059093E8
:103200002C05A0932D05B0932E05A4968CAD9DADF5
:10321000AEADBFADA49780932F0590933005A093DA
:103220003105B09332058DE0F501A3E3B5E00190DF
:103230000D928A95E1F7E396EEADFFADE397F0933B
:103240004105E09340053097E9F085818823D1F06E
:10325000BE016D587F4F87E295E00E943B1380913D
:10326000400590914105009789F00E94AE01809140
:103270004005909141050E94731B109241051092E8
:10328000400504C084EA91E00E940110CE018D58EF
:103290009F4F0E94CC12CE0187589F4F0E94CC12A4
:1032A000CE0181589F4F0E94CC120E941209FFCC80
:1032B000C8010E94AE01D11098CCEBCC84E495E01B
:1032C0000C94CC12CF92DF92EF92FF92CF93DF93C8
:1032D000109242041092410498EEC92E93E0D92E28
:1032E000E12CF12CC0924304D0924404E0924504B6
:1032F000F09246048EE091E09093400480933F0466
:1033000085EC90E090934C0480934B0484EC90E027
:1033100090934E0480934D0480EC90E09093500481
:1033200080934F0481EC90E0909352048093510479
:1033300082EC90E0909354048093530486EC90E0E8
:103340009093560480935504109258041092590497
:1033500010925A0410925B0480E58093DC04109272
:10336000DD041092E3041092E4041092E70410923A
:10337000E90482E090E0A0E0B0E08093EA0490935A
:10338000EB04A093EC04B093ED04109201051092AD
:103390000B0510920A0580E291E090930905809355
:1033A000080510920D0560EC71E084E495E00E9440
:1033B000D1128FE190E00E94DE1AEC011B821A828A
:1033C000CC82DD82EE82FF828EE391E09983888356
:1033D0001F8A1E8A198E188E1B8E1A8E1D8E1C8EA9
:1033E0006E8D6E7F6D7F6E8F6695617081E0682750
:1033F0008AE00E949A0961E08AE00E94E609E8EC0E
:10340000F0E0E491E88BE4EBF0E0E491F0E0EE0F23
:10341000FF1FEA56FF4F859194919A8B898B60E04C
:1034200083E00E94E6098E8D81FD04C061E083E0A7
:103430000E949A0983E08C87E1ECF0E0E491ED874B
:10344000EDEAF0E0E491F0E0EE0FFF1FE056FF4FF1
:10345000859194919F878E87D0934305C0934205B1
:1034600010922A051092290588EE93E0A0E0B0E0C2
:1034700080932B0590932C05A0932D05B0932E05DA
:103480008CE291E0909328058093270510924105E6
:103490001092400510923305DF91CF91FF90EF908D
:1034A000DF90CF90089591110C945C1A803219F03E
:1034B00089508550C8F708959927882708950E9454
:1034C000A11AA59F900DB49F900DA49F800D911DF2
:1034D000112408952F923F924F925F926F927F92A4
:1034E0008F929F92AF92BF92CF92DF92EF92FF9214
:1034F0000F931F93CF93DF93CDB7DEB7CA1BDB0BC0
:103500000FB6F894DEBF0FBECDBF09942A88398864
:1035100048885F846E847D848C849B84AA84B9846B
:10352000C884DF80EE80FD800C811B81AA81B98177
:10353000CE0FD11D0FB6F894DEBF0FBECDBFED018B
:103540000895A29FB001B39FC001A39F700D811D7C
:103550001124911DB29F700D811D1124911D08959C
:1035600097FB072E16F4009407D077FD09D00E9430
:10357000C41A07FC05D03EF4909581959F4F08959D
:10358000709561957F4F0895AA1BBB1B51E107C041
:10359000AA1FBB1FA617B70710F0A61BB70B881FE3
:1035A000991F5A95A9F780959095BC01CD01089572
:1035B000EE0FFF1F0590F491E02D0994CF93DF9358
:1035C0008230910510F482E090E0E0914C05F0919A
:1035D0004D0520E030E0C0E0D0E0309711F14081AF
:1035E000518148175907C0F04817590761F4828183
:1035F0009381209719F09B838A832BC090934D056C
:1036000080934C0526C02115310519F04217530748
:1036100018F49A01BE01DF01EF010280F381E02D71
:10362000DCCF2115310509F1281B390B2430310578
:1036300090F412968D919C9113976115710521F06C
:10364000FB019383828304C090934D0580934C05C6
:10365000FD01329644C0FD01E20FF31F8193919367
:10366000225031092D933C933AC020914A05309164
:103670004B05232B41F42091060130910701309333
:103680004B0520934A052091040130910501211535
:10369000310541F42DB73EB7409108015091090121
:1036A000241B350BE0914A05F0914B05E217F30717
:1036B000A0F42E1B3F0B2817390778F0AC014E5FA2
:1036C0005F4F2417350748F04E0F5F1F50934B058F
:1036D00040934A058193919302C0E0E0F0E0CF016E
:1036E000DF91CF9108950F931F93CF93DF930097AE
:1036F00009F48CC0FC0132971382128200914C05B0
:1037000010914D050115110581F420813181820F41
:10371000931F20914A0530914B052817390779F5F9
:10372000F0934B05E0934A0571C0D80140E050E0AA
:10373000AE17BF0750F412962D913C911397AD012F
:103740002115310509F1D901F3CF9D01DA01338348
:10375000228360817181860F971F8217930769F416
:10376000EC0128813981260F371F2E5F3F4F3183AF
:1037700020838A819B8193838283452B29F4F09354
:103780004D05E0934C0542C01396FC93EE931297BF
:10379000ED01499159919E01240F351FE217F3075E
:1037A00071F480819181840F951F029611969C93EC
:1037B0008E938281938113969C938E931297E0E06F
:1037C000F0E0D80112968D919C911397009719F013
:1037D000F8018C01F6CF8D919C9198012E5F3F4F9F
:1037E000820F931F20914A0530914B052817390706
:1037F00069F4309729F410924D0510924C0502C0DF
:103800001382128210934B0500934A05DF91CF91EA
:103810001F910F910895A0E0B0E0E1E1FCE10C946C
:103820006E1AEC01009721F4CB010E94DE1AB8C099
:10383000FC01E60FF71F9C0122503109E217F30744
:1038400008F4ACC0D9010D911C9111970617170708
:10385000B0F00530110508F49FC0C8010497861721
:10386000970708F499C002501109061B170B019322
:1038700011936D937C93CF010E94731B8DC05B01EC
:10388000A01AB10A4C01800E911EA0914C05B09176
:103890004D0540E050E0E12CF12C109709F44AC0AE
:1038A000A815B905D1F56D907C901197630182E060
:1038B000C80ED11CCA14DB0480F1A3014A195B09AC
:1038C0006A0182E0C80ED11C1296BC901297139622
:1038D000AC91B5E0CB16D10440F0B282A383518302
:1038E0004083D9016D937C930AC00E5F1F4FC301C3
:1038F000800F911FF90191838083EB2DFA2FE11442
:10390000F10431F0D7011396FC93EE93129744C063
:10391000F0934D05E0934C053FC08D919C9111971C
:103920004817590708F4AC017D0112960D90BC911F
:10393000A02DB3CF80914A0590914B05881599052C
:10394000E1F446175707C8F48091040190910501EE
:10395000009741F48DB79EB740910801509109013D
:10396000841B950BE817F907C8F4F0934B05E09317
:103970004A05F901718360830FC0CB010E94DE1AF2
:103980007C01009759F0A801BE010E94E71CCE01FE
:103990000E94731BC70104C0CE0102C080E090E00A
:1039A000CDB7DEB7EEE00C948A1A81E090E0F8948F
:1039B0000C940F1DFB01DC0104C08D910190801956
:1039C00021F441505040C8F7881B990B0895FB0122
:1039D000DC0102C001900D9241505040D8F708958B
:1039E000FB01DC018D91019080190110D9F3990B35
:1039F0000895FB01DC0101900D920020E1F708958C
:103A0000FB01DC014150504048F001900D92002034
:103A1000C9F701C01D9241505040E0F7089510E0F1
:103A2000CAE6D0E004C0FE010E94D81A2196CB3627
:083A3000D107C9F7F894FFCF9C
:103A3800FFFFFFFF00004E05800000000000A908FE
:103A480058134108F0087208500864080000000084
:103A5800EE0E5813FF0E850100000000C70092010A
:103A6800B60089019500EC06F60600000000F60095
:103A780058138601F5004A016201DD0000000000CC
:103A88001C095813860185011C091C091C09000022
:103A980000001C0958138601850153442063617294
:103AA8006420697320726561647920746F2075736E
:103AB800652E005344206361726420696E697469DD
:103AC800616C697A6174696F6E206661696C65649E
:103AD800004231006572726F72206F70656E696E98
:103AE8006720626174746572792E637376000D0ABB
:043AF800003B00008F
:00000001FF
