:100000000C946A000C9492000C9492000C94F605E7
:100010000C94F6050C94F6050C9492000C94920046
:100020000C9492000C9492000C9492000C94920008
:100030000C9492000C9492000C9492000C949200F8
:100040000C94B50B0C9492000C94610A0C943B0A2E
:100050000C9492000C9492000C9492000C949200D8
:100060000C9492000C9492000000000024002700E1
:100070002A007C3C3E5E2B3D3F2F5B5D3B2C2A22C1
:100080005C000000000800020100000304070000FB
:1000900000000000000000000000250028002B00E8
:1000A00000000000230026002900040404040404C6
:1000B0000404020202020202030303030303010217
:1000C00004081020408001020408102001020408E6
:1000D0001020151B11241FBECFEFD8E0DEBFCDBF0F
:1000E00026E0A8E9B2E001C01D92AD31B207E1F708
:1000F00012E0A0E0B1E0ECE7FDE302C005900D9254
:10010000A839B107D9F710E0CAE6D0E004C02197BA
:10011000FE010E94851CC936D107C9F70E94161737
:100120000C94BC1E0C940000DC015996ED91FC91DE
:100130005A973097B9F083899489A589B689428501
:10014000538564857585841B950BA60BB70B8115AC
:1001500020E89207A105B10538F08FEF9FE7A0E0F6
:10016000B0E0089580E090E00895DC0159968D910B
:100170009C915A97009739F0DC01ED91FC91048035
:10018000F581E02D099480E090E00895CF93DF930E
:100190001F92CDB7DEB76983DC01ED91FC9102803F
:1001A000F381E02D41E050E0BE016F5F7F4F099584
:1001B0000F90DF91CF9108952091000330910103BA
:1001C0002817390771F49091FE028091FF02981769
:1001D00041F0E091FE02F0E0E856FD4F808190E0B2
:1001E00008958FEF9FEF089508951F93CF93DF93A6
:1001F000DC015C962D913C915D972115310539F418
:1002000081E090E013969C938E9312973DC0519697
:10021000ED91FC91529750969C915097892F809523
:100220001FB75E964C915E9741FB772770F941FDB1
:100230006095F8944081772311F0492B01C0482341
:100240004083E9012197F1F748E0508160FF02C047
:10025000592B01C058235083E9012197F1F7669586
:10026000415099F7772321F090818923808303C03F
:100270008081982B90831FBF5C968D919C915D9798
:100280000197F1F721E030E0C901DF91CF911F9193
:10029000089520910003309101032817390771F464
:1002A0008091FF022091FE0290E08C599F4F821BAB
:1002B000910964E670E00E945D1C089580E090E082
:1002C0000895209100033091010328173907C9F4DC
:1002D0009091FE028091FF02981799F0E091FE0242
:1002E000F0E0E856FD4F20818091FE0290E00196FB
:1002F00064E670E00E945D1C8093FE02822F90E015
:1003000008958FEF9FEF0895089580E090E008959D
:10031000FC01818D928D009719F061E00C94700EB4
:100320000895CF93DF93EC01898D9A8D009739F46E
:1003300081E090E09B838A8380E090E00BC0FC0129
:10034000138212820E944F0FE98DFA8D2281338130
:10035000232B71F7DF91CF910895EF92FF920F93C6
:100360001F93CF93DF93EC017B018A011B821A82DA
:1003700088EE93E0A0E0B0E08C839D83AE83BF83E2
:100380008CEC91E0998388838DE190E00E948B1C36
:100390009A8F898F009779F02DE1F701DC010190A8
:1003A0000D922A95E1F74CE050E0B801CE010C9691
:1003B0000E94AD1E188EDF91CF911F910F91FF907B
:1003C000EF9008953F924F925F926F927F928F923B
:1003D0009F92AF92BF92CF92DF92EF92FF920F93D4
:1003E0001F93CF93DF93CDB7DEB72C970FB6F8945A
:1003F000DEBF0FBECDBF5C01DC015B968D909C9093
:100400005C971696CD90DD90ED90FC901997C114F5
:10041000D104E104F10439F0BFEFCB1ADB0AEB0A97
:10042000FB0A312C07C0F401C080D180E280F38048
:1004300033243394F40181859285A385B4859C018E
:10044000AD012F5F3F4F4F4F5F4F29873A874B8753
:100450005C87260137011D821E821F821886F401E7
:1004600081859285A385B4852D813E814F815885F4
:10047000281739074A075B0708F063C089859A8502
:10048000AB85BC858C159D05AE05BF0550F482E09B
:10049000C82ED12CE12CF12C92E0492E512C612C4C
:1004A000712C9E012F5F3F4FB701A601C4010E942E
:1004B000120D882309F445C089819A81AB81BC81E2
:1004C000892B8A2B8B2B41F0260137019FEF491A8C
:1004D000590A690A790A05C0C414D504E604F70468
:1004E00091F02D813E814F8158852F5F3F4F4F4FB7
:1004F0005F4F2D833E834F8358873FEFC31AD30A44
:10050000E30AF30AACCF0FEF1FEF2FEF3FE0B30189
:10051000A201C4010E94720C882399F0D50116969D
:100520004D915D916D917C91199741155105610532
:10053000710549F093018201C4010E94720C81117E
:1005400002C080E02EC0D50116964D925D926D924C
:100550007C921997332051F0D301C2010196A11D5D
:10056000B11DF40180839183A283B383F501878950
:10057000908DA18DB28D892B8A2B8B2B69F4D5019F
:1005800057964D925D926D927C925A9714968C91EB
:100590001497806814968C93F5018481806284831B
:1005A00081E02C960FB6F894DEBF0FBECDBFDF9171
:1005B000CF911F910F91FF90EF90DF90CF90BF9060
:1005C000AF909F908F907F906F905F904F903F90F3
:1005D00008958FB7F8948091FD028FBF089561E070
:1005E000FC0184810E94210B8091FC0281111092F8
:1005F000FC0208958EBD00000DB407FEFDCF8EB540
:1006000008958FEF0C94FA020F931F93CF93DF930B
:10061000EB010E94A90B8B010E9401038F3F49F05F
:100620000E94A90B601B710B6C177D07A8F380E07B
:1006300001C081E0DF91CF911F910F910895CF9379
:10064000DF93EC018E81882389F08F8198859C014E
:100650002F5F3F4F38872F838230924018F40E94DB
:100660000103F3CFCE010E94EF021E82DF91CF91F2
:1006700008958CBD9DBD0895CF93DF93EC018091CB
:10068000FC02811109C081E08093FC028091B105D8
:100690009091B2050E94390360E08C81DF91CF9187
:1006A0000C94210BCF92DF92FF920F931F93CF9365
:1006B000DF9300D000D0CDB7DEB76C01F62E2983D2
:1006C0003A834B835C830E941F03C6010E943C0354
:1006D0006CE271E0C6010E9404038F2D80640E94C9
:1006E000FA0208E110E05C814B813A812981DA014C
:1006F000C901002E04C0B695A795979587950A94D1
:10070000D2F729833A834B835C830E94FA02085014
:10071000110929813A814B815C81083F8FEF1807CD
:1007200031F7FF2029F0E8E0FE1204C087E803C09B
:1007300085E901C08FEF0E94FA0210E00E940103D8
:10074000F601828787FF04C01F3F11F01F5FF6CFBD
:100750000F900F900F900F90DF91CF911F910F91FD
:10076000FF90DF90CF900895AF92BF92CF92DF922B
:10077000EF92FF920F931F93CF93DF93EC016901E8
:10078000C801820F931F8130924008F070C08E81A3
:10079000882371F088819981AA81BB814817590704
:1007A0006A077B0729F48F819885C816D906B0F5AA
:1007B000488359836A837B838B85833039F089E052
:1007C000440F551F661F771F8A95D1F79A01AB0119
:1007D00061E1CE010E945203882319F083E08D83EA
:1007E00046C00E94A90B5B010E9401038A878F3FCC
:1007F00049F40E94A90B6A197B096D327140A0F37C
:100800008FE003C08E3F31F08DE08D83CE010E94DA
:10081000EF022DC018861F8281E08E838F8198851C
:100820008C159D0540F40E9401038F8198850196E7
:1008300098878F83F3CF6701E00EF11ECE14DF049B
:1008400031F00E940103F60181936F01F7CF8F8190
:100850009885080F191F18870F838985882319F039
:100860000115124048F0CE010E941F0305C0CE01C1
:100870000E94EF0280E001C081E0DF91CF911F91E3
:100880000F91FF90EF90DF90CF90BF90AF900895C1
:10089000CF92DF92EF92FF920F93CF93DF93EC0111
:1008A0006901411551056105710511F482E13EC0F0
:1008B0008B85833039F089E0440F551F661F771F01
:1008C0008A95D1F79A01AB0168E1CE010E945203EB
:1008D000882311F084E02AC08EEF0E94FA0276018C
:1008E0008EEFD81AF70181917F010E94FA02EC1471
:1008F000FD04C1F78FEF0E94FA028FEF0E94FA0207
:100900000E9401038A878F71853031F081E18D83E8
:10091000CE010E94EF020BC00023D9F068E572E01F
:10092000CE010E940403811107C085E18D83CE01B1
:100930000E94EF0280E014C020E030E0A9016DE0E9
:10094000CE010E945203811109C00E94010381114E
:1009500005C0CE010E94EF0281E002C084E1E6CF33
:10096000DF91CF910F91FF90EF90DF90CF9008959E
:100970002F923F924F925F926F927F928F929F92AF
:10098000AF92BF92CF92DF92EF92FF920F931F939D
:10099000CF93DF9300D0CDB7DEB7FC0185818823EC
:1009A00009F4D9C0848180FFD6C021E02A8343891D
:1009B00054896589768982859385A485B58548178C
:1009C00059076A077B0709F41A826F013A81832F5E
:1009D00090E0DE0111964D013F01B6E06B0E711CF7
:1009E000892B09F47DC0D6011A964D915D916D91C8
:1009F0007C911D975A01B1E0BB22F60125811A01B5
:100A00002B0189E056944794379427948A95D1F71F
:100A1000838D948D223061F4FC01828D938DA48DA1
:100A2000B58DBC01CD01620D731D841D951D45C0A2
:100A3000DC0114961C9111501221A114B104D1F4BF
:100A4000111118C0452B462B472B51F4F60187890D
:100A5000908DA18DB28D86839783A087B1870AC0C0
:100A6000468157816085718593010E94120D88230C
:100A700009F471C0F601238D348D86819781A0859C
:100A8000B1850297A109B109AC01BD01F901058445
:100A900004C0440F551F661F771F0A94D2F786853E
:100AA0009785A089B189840F951FA61FB71FBC0128
:100AB000CD01610F711D811D911DD60114962C91E0
:100AC00026FF14C000910001109101012091020144
:100AD00030910301601771078207930751F506C033
:100AE000FA81FF23C1F1898190E037C040E00E9484
:100AF000280C882381F1F501EE5EFC4FD401CF0173
:100B00000196E817F90719F021912D93FACFEFEF2D
:100B10008E1A9E0AF60182859385A485B585019675
:100B2000A11DB11D82879387A487B58780E090E0DF
:100B300057CF740101E010E09501AB01BC01809139
:100B40001205909113050E94B403882321F0BFEF92
:100B50008B1A9B0ADFCF8FEF9FEF0F900F90DF91E3
:100B6000CF911F910F91FF90EF90DF90CF90BF90AA
:100B7000AF909F908F907F906F905F904F903F903D
:100B80002F900895FC01818D928D009711F00C94A7
:100B9000B8048FEF9FEF08950F931F93CF93DF93C8
:100BA000FC01818D928D0097B9F0EF010E94B8048D
:100BB0008C010F3F8FEF180791F0898D9A8DFC0102
:100BC00042855385648575854150510961097109D4
:100BD0000E94B90EC80105C080E090E002C08FEF0E
:100BE0009FEFDF91CF911F910F9108951F920F9268
:100BF0000FB60F9211242F933F934F935F936F93F0
:100C00007F938F939F93AF93BF93EF93FF93E09165
:100C10000003F0910103309709F453C0968DA68527
:100C2000B785858591FF04C09C91892329F449C02B
:100C30009C91892309F045C0A389B4899C91858939
:100C4000809589238C93868997890197F1F7608D28
:100C5000718DA685B785558538E020E0CB010197D9
:100C6000F1F7822F90E095958795282F4C91452399
:100C700009F02068315091F7868D81FD2095809193
:100C8000FF0290E0019664E670E00E945D1C909186
:100C9000FE02981749F0A091FF02B0E0A856BD4FA0
:100CA0002C938093FF0203C0868D8160868F828D96
:100CB000938D0197F1F7A389B4899C918589892B3C
:100CC0008C93FF91EF91BF91AF919F918F917F9105
:100CD0006F915F914F913F912F910F900FBE0F90A9
:100CE0001F901895EF92FF920F931F93CF93DF936E
:100CF000CDB7DEB7C257D1090FB6F894DEBF0FBE2D
:100D0000CDBF7C011C821B8200EC11E01A83098399
:100D10001E82CE0101960E94F7138B819C819EAFAB
:100D20008DAF1CAF0BAF8D818FAF9E8121969FAF92
:100D300021974F81588569857A8525964CAF5DAF9F
:100D40006EAF7FAF25974B855C856D857E85299637
:100D50004CAF5DAF6EAF7FAF29974F8558896989DA
:100D60007A892D964CAF5DAF6EAF7FAF2D978B8993
:100D70002E968FAF2E974C895D896E897F896296FA
:100D80004CAF5DAF6EAF7FAF6297488D598D6A8D66
:100D90007B8D66964CAF5DAF6EAF7FAF66972C8D47
:100DA0003D8D68963FAF2EAF689719A218A21F8F8E
:100DB0000E8F1BA2911116C06C961FAE1EAE6C97C3
:100DC00088EE93E0A0E0B0E0A0968CAF9DAFAEAF10
:100DD000BFAFA097E3961FAE1EAEE397A5961FAEDA
:100DE000A5975AC027E148E152E0BE01655C7F4FFC
:100DF000CE014E960E9455118823F1F2CE01CB967A
:100E00000E94161349A95AA96BA97CA9CE014E9636
:100E10000E94B90E88A199A19C838B831A830983B0
:100E20008AA18D838BA18E838CA19DA1AEA1BFA130
:100E30008F839887A987BA8788A599A5AAA5BBA5F6
:100E40008B879C87AD87BE878CA59DA5AEA5BFA5CA
:100E50008F87988BA98BBA8B88A98B8B89A99AA924
:100E6000ABA9BCA98C8B9D8BAE8BBF8B8DA99EA98A
:100E7000AFA9B8AD888F998FAA8FBB8F89AD9AAD76
:100E80009D8F8C8F48E152E0BE016F5F7F4FCE0196
:100E9000885A9F4F0E94AD016C968EAD9FAD6C97A6
:100EA0009093FF058093FE05A0968CAD9DADAEADF1
:100EB000BFADA0978093000690930106A093020611
:100EC000B0930306A4968CAD9DADAEADBFADA49717
:100ED0008093040690930506A0930606B093070638
:100EE0009DE0E8E5F0E0EC0FFD1F3C96A8E0B6E0E1
:100EF00001900D929A95E1F7E396EEADFFADE39781
:100F0000F0931606E09315063097D9F08581882373
:100F1000C1F0B7018CEF95E00E94F916809115069B
:100F200090911606009789F00E941613809115067D
:100F3000909116060E94201D10921606109215061A
:100F400004C08AE092E00E944B13CE58DF4F0FB6E8
:100F5000F894DEBF0FBECDBFDF91CF911F910F91EF
:100F6000FF90EF900895CF92DF92EF92FF920F9350
:100F70001F93CF93DF93CDB7DEB768970FB6F89482
:100F8000DEBF0FBECDBF7C016B01142F6DE572E09B
:100F90000E948F1626E030E042E050E0B601CE011C
:100FA00043960E94A416E12FF0E0EE0FFF1FE657D4
:100FB000FE4F60817181CE010D960E948F1622E056
:100FC00030E040E050E0B601CE0101960E94A41648
:100FD000BE016F5F7F4FCE0107960E948616CE013D
:100FE00007960E9425168C0149895A896D857E8550
:100FF0000E947A15811103C0C8010E941316C8010E
:101000000E9425168C014F89588D6B897C890E941E
:101010007A15811103C0C8010E941316B801C701D7
:101020000E946A16CE0107960E948116CE01019693
:101030000E948116CE010D960E948116CE01439624
:101040000E948116B70184E195E00E94F916C7015C
:1010500068960FB6F894DEBF0FBECDBFDF91CF917B
:101060001F910F91FF90EF90DF90CF900895CF9256
:10107000DF92EF92FF920F931F93CF93DF93CDB741
:10108000DEB7C858D1090FB6F894DEBF0FBECDBF8A
:1010900024E030E0CF57DF4F39832883C158D04058
:1010A00025E030E0CD57DF4F39832883C358D04047
:1010B00026E030E0CB57DF4F39832883C558D04036
:1010C00027E030E0C957DF4F39832883C758D04025
:1010D00020E8EAE0F1E0DE01119601900D922A95F8
:1010E000E1F78E010F571F4F6C0183E0CC0CDD1C24
:1010F0008A95E1F7E12CF12CF80180810E5F1F4FFA
:10110000F701EC0DFD1D21E030E02C0F3D1FE20F3B
:10111000F31F60810E94210B32E0E30EF11C88E096
:10112000E816F10449F7C857DF4F0FB6F894DEBF51
:101130000FBECDBFDF91CF911F910F91FF90EF9028
:10114000DF90CF9008954F925F926F927F928F922F
:101150009F92AF92BF92CF92DF92EF92FF920F9346
:101160001F93CF93DF93CDB7DEB72C970FB6F894CC
:10117000DEBF0FBECDBF7C011F826DE572E0CE01E8
:1011800001960E948F168091170690911806DC0137
:10119000ED91FC910084F185E02D09951816190652
:1011A0000CF09FC000911706109118065E01B7E081
:1011B000AB0EB11C4E01EDE08E0E911C65010E943C
:1011C000A90BD80118966D937D938D939C931B97D3
:1011D000D801ED91FC910284F385E02DC8010995B9
:1011E00097FD16C08A32910551F5F6010190002055
:1011F000E9F73197AF014C195D09B601CE010196AF
:101200000E944916C980DA80C114D10401F55BC07F
:101210000E94A90BF8014084518462847384DC012C
:10122000CB0184199509A609B709448055806680C9
:10123000778084159505A605B70550F2D6CFD50160
:101240008D935D01A815B90509F0B9CFCECF0D81F9
:101250001E8101151105B9F146015401BFEF8B1A2A
:101260009B0AF5018081082E000C990B0E94001C3E
:10127000892B99F7015011090C0D1D1DD8018C9176
:10128000082E000C990B0E94001C892B79F4A801F0
:101290004F5F5F4F4A195B095E834D83CA14DB04BD
:1012A00058F4B501C6010E94941E06C00A151B051C
:1012B00070F301501109E2CFE981FA818D819E819D
:1012C000E80FF91F1082F701118210821382128237
:1012D00015821482BE016F5F7F4FC7010E94DA152D
:1012E00005C06DE572E0C7010E948F16CE01019620
:1012F0000E948116C7012C960FB6F894DEBF0FBE70
:10130000CDBFDF91CF911F910F91FF90EF90DF90B4
:10131000CF90BF90AF909F908F907F906F905F9095
:101320004F900895CF92DF92EF92FF920F931F9309
:10133000CF93DF936C017A018B01C0E0D0E0CE1532
:10134000DF0589F0D8016D918D01D601ED91FC91F9
:101350000190F081E02DC6010995892B11F47E01E1
:1013600002C02196ECCFC701DF91CF911F910F9161
:10137000FF90EF90DF90CF90089584E195E00E9478
:10138000C40A21E0892B09F420E0822F0895EF920E
:10139000FF920F931F93CF93DF93EC0181E0888F2F
:1013A0009B8D8C8D981305C0E889F989808185FD16
:1013B00024C0F62E0B8D10E00F5F1F4F0F73112707
:1013C000E02E8C8DE8120CC00FB607FCFACFE8892E
:1013D000F989808185FFF5CFCE010E94000BF1CF06
:1013E0008B8DFE01E80FF11DE35AFF4FF0820B8F4A
:1013F000EA89FB898081806207C0EE89FF8960836A
:10140000E889F98980818064808381E090E0DF91C0
:10141000CF911F910F91FF90EF900895CF93DF939D
:10142000EC01888D8823C9F0EA89FB89808185FDDC
:1014300005C0A889B9898C9186FD0FC00FB607FC3D
:10144000F5CF808185FFF2CFA889B9898C9185FF7E
:10145000EDCFCE010E94000BE7CFDF91CF91089531
:10146000DC01ED91FC910280F381E02D42E050E03F
:101470006BE572E009941F920F920FB60F92112440
:101480002F933F934F935F936F937F938F939F938C
:10149000AF93BF93EF93FF9384E195E00E94000B1D
:1014A000FF91EF91BF91AF919F918F917F916F913C
:1014B0005F914F913F912F910F900FBE0F901F9012
:1014C00018951F920F920FB60F9211242F938F939E
:1014D0009F93EF93FF93E0912405F0912505808180
:1014E000E0912A05F0912B0582FD12C09081809138
:1014F0002D058F5F8F7320912E05821751F0E0919B
:101500002D05F0E0EC5EFA4F958F80932D0501C01C
:101510008081FF91EF919F918F912F910F900FBE3E
:101520000F901F901895FC01538D448D252F30E0AE
:10153000842F90E0821B930B541710F0CF960895E0
:1015400001970895FC01918D828D981761F0828D2D
:10155000DF01A80FB11D5D968C91928D9F5F9F73E7
:10156000928F90E008958FEF9FEF0895FC01918D89
:10157000828D981731F0828DE80FF11D858D90E0F6
:1015800008958FEF9FEF0895FC01918D228D892F93
:1015900090E0805C9F4F821B91098F73992708957B
:1015A00080E090E0892B29F00E94BD0981110C9404
:1015B000000008950E94821E0F93409105035091F0
:1015C00006036091070370910803411551056105F9
:1015D000710599F0082F22E133E080911205909176
:1015E00013050E944804882349F0109205031092C5
:1015F0000603109207031092080381E00F910895EB
:10160000FC01848DDF01A80FB11DA35ABF4F2C919F
:10161000848D90E001968F739927848FA689B7896E
:101620002C93A089B1898C9180648C93938D848D47
:10163000981306C00288F389E02D80818F7D808316
:10164000089590E0FC01EE57FF4F3491FC01E25405
:10165000FF4F2491FC01E655FF4FE491EE2309F47E
:101660003BC0332339F1333091F038F43130A9F0F5
:10167000323001F584B58F7D12C0373091F03830AB
:10168000A1F03430B9F4809180008F7D03C0809147
:1016900080008F77809380000DC084B58F7784BDE4
:1016A00009C08091B0008F7703C08091B0008F7D1A
:1016B0008093B000F0E0EE0FFF1FEA56FF4FA591B8
:1016C000B4918FB7F894EC91611103C020952E234B
:1016D00001C02E2B2C938FBF0895CF93DF9390E002
:1016E000FC01E254FF4F2491FC01E655FF4F849129
:1016F000882361F190E0880F991FFC01E859FF4FA2
:10170000C591D491FC01EA56FF4FA591B4916111A6
:1017100009C09FB7F8948881209582238883EC9133
:101720002E230BC0623061F49FB7F8943881822F6A
:10173000809583238883EC912E2B2C939FBF06C02A
:101740008FB7F894E8812E2B28838FBFDF91CF913C
:1017500008952FB7F89460910E0370910F03809154
:101760001003909111032FBF08951F920F920FB68F
:101770000F9211242F933F938F939F93AF93BF9317
:1017800080910E0390910F03A0911003B09111036B
:1017900030910D0323E0230F2D3720F40196A11D76
:1017A000B11D05C026E8230F0296A11DB11D20938F
:1017B0000D0380930E0390930F03A0931003B09337
:1017C00011038091090390910A03A0910B03B0913A
:1017D0000C030196A11DB11D8093090390930A0388
:1017E000A0930B03B0930C03BF91AF919F918F9186
:1017F0003F912F910F900FBE0F901F9018950F9350
:10180000CF93909104039923F9F0C82F40910001E0
:10181000509101016091020170910301082F22E1B2
:1018200033E080911205909113050E9448048111C4
:1018300002C080E00AC0CC2339F08C2F0E94DC0A61
:101840008823B9F31092040381E0CF910F9108959A
:101850008F929F92AF92BF92EF92FF920F931F933E
:10186000CF934B015C01C42F809100019091010145
:10187000A0910201B091030188159905AA05BB0545
:1018800009F181E00E94FF0B811102C080E020C0BD
:1018900082E1E82E83E0F82E00E012E020E030E064
:1018A000B501A40180911205909113050E94B40323
:1018B000882361F38092000190920101A0920201BD
:1018C000B092030180910403C82BC093040381E00C
:1018D000CF911F910F91FF90EF90BF90AF909F908D
:1018E0008F9008954F925F926F927F928F929F9206
:1018F000AF92BF92CF92DF92EF92FF920F931F931E
:10190000CF93DF93EC016A017B012801390142305A
:1019100051056105710510F480E073C089859A85D1
:10192000AB85BC850196A11DB11D84179507A6073F
:10193000B70790F38B889C88AD88BE888F898031EB
:1019400029F4BB27AF2D9E2D8D2D09C0DB01CA01C7
:1019500047E0B695A795979587954A95D1F7880E54
:10196000991EAA1EBB1E8091000190910101A091B9
:101970000201B091030188169906AA06BB0679F404
:101980008F898031A1F4DD24EE24FF24C601880F65
:10199000991FFC01EE5EFC4F5182408219C040E06D
:1019A000C501B4010E94280C8111EACFB5CFE8949B
:1019B000C7F8DD24EE24FF24C601880F991F880F85
:1019C000991FFC01EE5EFC4F40825182628273825D
:1019D000809104038160809304038A89823080F0BF
:1019E0008D819E81AF81B885880E991EAA1EBB1E6F
:1019F0008092050390920603A0920703B092080319
:101A000081E0DF91CF911F910F91FF90EF90DF90D8
:101A1000CF90BF90AF909F908F907F906F905F908E
:101A20004F9008958F929F92AF92BF92CF92DF9284
:101A3000EF92FF920F931F93CF93DF93FC01818569
:101A40009285A385B4850196A11DB11D84179507C4
:101A5000A607B70710F480E05CC083899489A58944
:101A6000B689C789C03129F4852E962EA72EBB24AE
:101A700009C04A015B01C7E0B694A7949794879484
:101A8000CA95D1F7E9016A017B018F01BC01CD0143
:101A9000680D791D8A1D9B1D8090000190900101A9
:101AA000A0900201B0900301681579058A059B0595
:101AB00099F4F80187898031A9F4B701A601552767
:101AC00066277727440F551FFA01EE5EFC4F808191
:101AD0009181A0E0B0E018C040E00E94280C811184
:101AE000E8CFB9CFB701A6014F77552766277727EB
:101AF000440F551F440F551FFA01EE5EFC4F8081C5
:101B00009181A281B381BF7088839983AA83BB83AB
:101B100081E0DF91CF911F910F91FF90EF90DF90C7
:101B2000CF90BF90AF909F908F9008954F925F920B
:101B30006F927F92AF92BF92CF92DF92EF92FF921D
:101B40000F931F93CF93DF9300D000D0CDB7DEB7B4
:101B50008C0149835A836B837C835901C12CD12C1E
:101B60007601412C82E0582E612C712C49815A81DA
:101B70006B817C819E012F5F3F4FC8010E94120D37
:101B8000882351F1D301C201F801058404C0880FF4
:101B9000991FAA1FBB1F0A94D2F7C80ED91EEA1EAE
:101BA000FB1E49815A816B817C818789803129F0B4
:101BB00088EF9FEFAFEFBFE004C088EF9FEFA0E09A
:101BC000B0E0481759076A077B0780F2F501C08229
:101BD000D182E282F38281E00F900F900F900F90FC
:101BE000DF91CF911F910F91FF90EF90DF90CF90F9
:101BF000BF90AF907F906F905F904F9008951F932C
:101C0000CF93DF93EC0180E2689FF00111249F01E4
:101C10002E5E3C4FD9011B969C91917129F0842F27
:101C2000827411F080E058C0142F6A8B80910001FB
:101C300090910101A0910201B09103018E879F87CD
:101C4000A88BB98BEE5EFC4F4489558960E070E04B
:101C5000BA01552744274F8B588F698F7A8F828D11
:101C6000938DA0E0B0E0482B592B6A2B7B2B4F8B38
:101C7000588F698F7A8FD9011B968C91887151F496
:101C8000848D958DA68DB78D8B8B9C8BAD8BBE8BEC
:101C900081E00DC0803131F69E012D5E3F4F8B8D6E
:101CA0009C8D0E94960D882309F4BCCF84E08D831F
:101CB000812F8F708C831E821F82188619861A8648
:101CC0001B861C861D8616FF06C0CE01DF91CF91B4
:101CD0001F910C94691381E0DF91CF911F910895BA
:101CE0001F93CF93DF93FC0125812223E9F1162F67
:101CF000EC01848187FF2DC0668577858089918975
:101D000041E00E94280C882379F1EA8980E2E89F6B
:101D1000F0011124DF01AE5EBC4F109729F18D81D7
:101D2000823050F44B895C896D897E895C964D9335
:101D30005D936D937C935F978F89988DA98DBA8DF4
:101D4000EE5EFC4F938F828FB58BA48B8C818F7747
:101D50008C83111103C08C818F7E8C83812FDF9146
:101D6000CF911F910C94FF0B80E0DF91CF911F91D9
:101D700008958F929F92AF92BF92CF92DF92EF928F
:101D8000FF920F931F93CF93DF93EC018D8181110D
:101D900002C080E077C00B891C892D893E89041719
:101DA000150726073707A8F36A017B01823029F45B
:101DB000CA86DB86EC86FD860DC0C114D104E10421
:101DC000F10451F41E821F82188619861A861B861A
:101DD0001C861D8681E056C08A849B84AC84BD84A9
:101DE000EB8DFC8D258530E0275F3F4FB501A401C9
:101DF0004150510961097109022E04C07695679519
:101E0000579547950A94D2F7D701C6010197A109C2
:101E1000B10904C0B695A795979587952A95D2F7ED
:101E200084179507A607B70720F089288A288B28EA
:101E300049F44F89588D698D7A8D4E835F83688709
:101E4000798704C0841B950BA60BB70B4C015D0171
:101E50008E010A5F1F4F81149104A104B10409F49B
:101E6000A7CF4E815F816885798598018B8D9C8D88
:101E70000E94120D91E0891A9108A108B108811100
:101E8000EACF87CFDF91CF911F910F91FF90EF9015
:101E9000DF90CF90BF90AF909F908F9008952F923A
:101EA0003F924F925F926F927F928F929F92AF92EA
:101EB000BF92CF92DF92EF92FF920F931F93CF9337
:101EC000DF9300D000D01F92CDB7DEB77C015B015D
:101ED0003A01DC0114961C91149715968C9181306F
:101EE000B9F411FF15C012FF1BC0F70143895489D3
:101EF0006589768982859385A485B585841795073C
:101F0000A607B70769F0C7010E94B90E811108C082
:101F100081E090E0F7019383828380E090E03EC10E
:101F2000630112951F70109511701D8381C0D70138
:101F30005B968D919C915C97FC0154805A94B901F9
:101F4000A80129E076956795579547952A95D1F789
:101F500054221170552009F477C080E092E0801B74
:101F6000910B46018C159D0508F44C01D7015B9639
:101F70002D913C915C9716968D919D910D90BC9101
:101F8000A02D0297A109B109F901058404C0880FA9
:101F9000991FAA1FBB1F0A94D2F7468557856089EF
:101FA0007189840F951FA61FB71F9C01AD01250DD8
:101FB000311D411D511D19012A01811432E0930682
:101FC00009F089C08091000190910101A091020166
:101FD000B091030182159305A405B50559F48FEF5F
:101FE0009FEFDC018093000190930101A093020117
:101FF000B09303010D819501B201A10180911205F9
:10200000909113050E944804882309F481CF9EEF24
:10201000B91AC818D908F70182859385A485B585B2
:10202000880D991DA11DB11D82879387A487B5874F
:10203000D7011A960D911D912D913C911D97C114B8
:10204000D10409F074CF88C00115110509F085CFBE
:1020500016964D915D916D917C91199741155105A1
:102060006105710559F457968D919D910D90BC9124
:10207000A02D0097A105B10541F521C09E012F5F5C
:102080003F4F0E94120D882309F448CF89819A811D
:10209000AB81BC81F701238D348DF9012789203173
:1020A00029F048EF5FEF6FEF7FE004C048EF5FEF8C
:1020B00060E070E084179507A607B70730F0C70106
:1020C0000E94E201811149CF23CFF70186839783D4
:1020D000A087B18742CF0115110531F5D7011A96B6
:1020E0004D915D916D917C911D9753968D919D9130
:1020F0000D90BC91A02D481759076A077B07A0F0E7
:1021000081E00E94FF0B882309F402CF2092000196
:102110003092010140920201509203018091040328
:1021200081608093040308C041E0C201B1010E94B4
:10213000280C882309F4ECCED501F801EE5EFC4FA3
:10214000CF01880D991DE817F90719F02D912193FA
:10215000FACFA80CB91C5DCF53968D919D910D902F
:10216000BC91A02D80179107A207B30740F4F70197
:10217000038B148B258B368B848180688483D701F5
:1021800014968C9183FD02C0C30108C061E0C701B1
:102190000E94700E882309F4BBCEF6CF0F900F90EB
:1021A0000F900F900F90DF91CF911F910F91FF90A3
:1021B000EF90DF90CF90BF90AF909F908F907F90E7
:1021C0006F905F904F903F902F900895CF93DF9343
:1021D0001F92CDB7DEB7698341E050E0BE016F5F6B
:1021E0007F4F0E944F0F0F90DF91CF910895FF9284
:1021F0000F931F93CF93DF93EC018D81813011F505
:102200008C8181FF1FC082FF0DC04B895C896D8965
:102210007E898A859B85AC85BD8584179507A60731
:10222000B70799F40091120510911305C8010E9497
:102230003C030E940103F82EC8010E94EF028FEFB9
:10224000F81649F080E090E02AC0CE010E94B90E55
:102250008111E8CFF7CF8C8185FF08C060E0CE0107
:102260000E94700E8C818F7D8C83ECCF4091050392
:10227000509106036091070370910803452B462B8C
:10228000472B21F080E00E94DC0ADCCF80618C8348
:102290002A853B85317080E092E0821B930BDF91B1
:1022A000CF911F910F91FF9008954F925F926F927F
:1022B0007F929F92AF92BF92CF92DF92EF92FF9266
:1022C0000F931F93CF93DF93CDB7DEB72B970FB646
:1022D000F894DEBF0FBECDBF7C01DC011596AC903B
:1022E000A1108CC1FE0131966F0190E28BE08E0F40
:1022F00091938E13FDCFDA0130E087E09D91992311
:1023000039F19E3219F0E2E7F0E00AC08A3009F4B0
:1023100076C138E08AE0F2CF3196491709F46FC1EF
:1023200044914111F9CF831708F469C14FED490F6A
:102330004E3508F064C141E0430FF601E30FF11D93
:102340003FE9390F3A3108F490529083342FD6CFB9
:102350008981803209F453C1B22E8B01DB015B9677
:102360008D919C915C97F701948F838F16961D92A7
:102370001D921D921C921997FB01128613861486DA
:102380001586712CF80182859385A485B5854389CE
:1023900054896589768984179507A607B70708F0D9
:1023A00061C025E0B695A795979587952A95D1F7B1
:1023B000F82FFF706F2ED80115968C91823008F49B
:1023C0001EC1C8010E94B80497FD19C1F801828599
:1023D0009385A485B5854F96A11DB11D82879387EE
:1023E000A487B587F0E26F9EC0011124BC016E5E28
:1023F0007C4F6115710509F402C1DB012C91222388
:1024000019F0253EC1F427C071100EC0F701628A91
:10241000409100015091010160910201709103010E
:1024200046875787608B718BFC01EE5EFC4F808185
:10243000811113C015C04BE050E0C6010E94871EF9
:10244000892B09F09FCF8B2D8073803309F4D7C07F
:102450004B2D662DCEC07720C9F27724739492CF8E
:10246000772473948B2D8271823109F0C8C0772054
:10247000D1F0D7011E966D917D918D919C915197D0
:1024800041E00E94280C882309F4B9C0F701628951
:10249000F0E26F9FB00111246E5E7C4F61157105F3
:1024A00009F07AC0ACC0D80115968C91823009F43D
:1024B000A6C0C8010E94E201882309F4A0C0D80187
:1024C0005B96ED91FC915C9716964D905D906D90AA
:1024D0007C901997B2E04B1A510861087108058485
:1024E00004C0440C551C661C771C0A94D2F78685E0
:1024F0009785A089B189480E591E6A1E7B1E94805B
:10250000E1E04E1A510861087108992011F181E04B
:102510000E94FF0B882309F472C0E2E1F3E01192FC
:1025200025E0E231F207D9F7D301C201890D911DEF
:10253000A11DB11D8093000190930101A0930201A0
:10254000B0930301809104038160809304039A9403
:10255000DCCFD8015B96ED91FC915C9780E092E036
:10256000A0E0B0E0058404C0880F991FAA1FBB1F1C
:102570000A94D2F7F8014389548965897689840FD2
:10258000951FA61FB71F838B948BA58BB68BD70186
:1025900052961C9262E173E080E2FB0111928A95EF
:1025A000E9F78BE0F601DB0101900D928A95E1F7E6
:1025B00081E298E2DB0151969C938E93509720E044
:1025C00038E01F963C932E931E9753969C938E93C0
:1025D000529759969C938E93589757963C932E9367
:1025E000569781E00E94FF0B882349F04B2DF7019D
:1025F0006289C7010E94FF0DA82E01C0A12C8A2D5F
:102600002B960FB6F894DEBF0FBECDBFDF91CF91F2
:102610001F910F91FF90EF90DF90CF90BF90AF9000
:102620009F907F906F905F904F900895CF93DF932E
:10263000EC0161E00E94700E882311F01D8281E0A0
:10264000DF91CF91089508950F931F93CF93DF9358
:10265000EC0188819981009729F02A813B81261716
:10266000370788F48B016F5F7F4F0E94B81D00977A
:1026700061F0998388831B830A832C813D81232BFE
:1026800011F4FC01108281E001C080E0DF91CF9164
:102690001F910F910895CF93DF93009779F0FC017C
:1026A00001900020E9F73197AF01481B590BBC019D
:1026B00084E195E00E949209EC0102C0C0E0D0E004
:1026C00084E195E00E94300A8C0F9D1FDF91CF912D
:1026D00008958F929F92AF92BF92CF92DF92EF9226
:1026E000FF920F931F93CF93DF9300D000D0CDB70D
:1026F000DEB7FC018581813079F5948191FF2CC092
:102700004389548965897689452B462B472B09F4E3
:102710005DC07F0140E050E0BA01CF010E94B90ED8
:102720008823D1F0F7018788908CA18CB28CC38C60
:10273000D48C82E090E0A0E0B0E0F6018083918349
:10274000A283B3839E012F5F3F4FB501A401C60151
:102750000E94120D811102C080E038C000E010E03C
:102760009801B501A401C6010E94720C8823A1F34F
:1027700089809A80AB80BC80F6018789803129F0FE
:1027800088EF9FEFAFEFBFE004C088EF9FEFA0E0BE
:10279000B0E088169906AA06BB06A0F2F701178AD0
:1027A000108E118E128E138A148A158A168A8481CD
:1027B0008068848361E0C7010E94700E882361F203
:1027C00040E050E0BA01C7010E94B90E0F900F908F
:1027D0000F900F90DF91CF911F910F91FF90EF908D
:1027E000DF90CF90BF90AF909F908F900895CF9340
:1027F000DF93FC012581222311F080E049C0EC0128
:102800008091D6058031C1F482E08583178A108ECD
:10281000118E128E8091D7059091D805A0E0B0E07E
:1028200025E0880F991FAA1FBB1F2A95D1F7838B1C
:10283000948BA58BB68B19C08032F9F683E0858323
:102840004091D9055091DA056091DB057091DC0566
:10285000478B508F618F728F9F012D5E3F4F8FEBA3
:1028600095E00E94960D882341F28FEB95E09C8FB6
:102870008B8F81E08C831E821F82188619861A86B0
:102880001B861C861D861E861F86188A198A1A8A30
:10289000DF91CF9108958F929F92AF92BF92CF9286
:1028A000DF92EF92FF92CF93DF93C82F83EB95E0F7
:1028B0009093130580931205CC2369F1C53010F075
:1028C00080E00DC140E060E070E0CB010E94280C88
:1028D0008823B1F320E1C29FC00111248E5F9C4F79
:1028E000FC01E254FE4F20812F7751F73C96408146
:1028F000518162817381443651056105710500F390
:102900003497C080D180E280F380C114D104E10407
:10291000F10421F4D5CFC12CD12C760140E0C701C0
:10292000B6010E94280C882359F280911D039091D2
:102930001E038115924021F6A0912203AA2309F4D7
:10294000BFCF60912003709121036115710509F4D7
:10295000B7CF20911F03222309F4B2CFA093D10552
:102960002093C30580E030E0E1E0F0E0C82FAF0144
:10297000082E02C0440F551F0A94E2F724173507AA
:1029800041F0982F8F5F983089F789E08093CC05CC
:1029900097CF8093CC0520912803309129032115EE
:1029A000310519F040E050E008C020913603309125
:1029B000370340913803509139032093C405309375
:1029C000C5054093C6055093C70546015701860EBD
:1029D000971EA11CB11C8092D2059092D305A092A3
:1029E000D405B092D505E0912303F0912403F09330
:1029F000D805E093D705B0E00E940C1C860E971E08
:102A0000A81EB91E8092D9059092DA05A092DB0526
:102A1000B092DC0585E0EE0FFF1F8A95E1F7E150EB
:102A2000FE4FEF2FFF27E6958E0E9F1EA11CB11CB7
:102A30008092CD059092CE05A092CF05B092D005A0
:102A400020912503309126032115310521F0A9019C
:102A500060E070E008C04091320350913303609110
:102A6000340370913503D701C60188199909AA0961
:102A7000BB09840F951FA61FB71F04C0B695A79565
:102A800097958795CA95D2F78093C8059093C90505
:102A9000A093CA05B093CB05853F2FE09207A1050F
:102AA000B10510F48CE018C0853F9F4FA105B1051A
:102AB00010F480E111C080913E0390913F03A091FA
:102AC0004003B09141038093D9059093DA05A09318
:102AD000DB05B093DC0580E28093D60581E0DF91D1
:102AE000CF91FF90EF90DF90CF90BF90AF909F90ED
:102AF0008F900895EF92FF920F931F93CF93DF93E0
:102B0000FC01248135816115710511F480E019C043
:102B100041155105A9F07B01EC018A01020F131F39
:102B2000B8010E942413882389F3288139818C817C
:102B30009D81B701820F931F0E94A61E1D830C83E7
:102B400081E0DF91CF911F910F91FF90EF90089559
:102B5000FC0124813581FB0144815581241735070F
:102B600021F5FC0180819181FB01608171810097D9
:102B700019F061157105A1F46115710549F0232B58
:102B8000B1F0FB01808190E09195819591090AC097
:102B9000009769F0232B59F0FC01808190E002C07E
:102BA0000E949D1E21E0892B19F020E001C021E048
:102BB000822F08950F931F93CF93DF938C01EB0126
:102BC000FC01808191810097B1F068817981611564
:102BD000710579F0428153812C813D814217530761
:102BE00040F00E94A61E8C819D81F801958384830C
:102BF00013C00E94201D88819981F80191838083F0
:102C00008A819B81938382838C819D819583848338
:102C1000198218821B821A821D821C82DF91CF9139
:102C20001F910F910895CF93DF93EC0188819981D3
:102C3000009711F00E94201D198218821D821C82AB
:102C40001B821A82DF91CF9108950F931F93CF9328
:102C5000DF93EC010C811D810F5F1F4FB8010E94B3
:102C60002413882369F0288139818C819D8165E94D
:102C700072E0820F931F0E94A61E1D830C8303C067
:102C8000CE010E941316CE01DF91CF911F910F91BB
:102C90000895EF92FF920F931F93CF93DF93EC0170
:102CA0007B018A01BA010E942413811104C0CE0164
:102CB0000E94131607C01D830C83B7018881998178
:102CC0000E94A61ECE01DF91CF911F910F91FF9020
:102CD000EF900895CF93DF93EC01FB0186179707E0
:102CE00061F0608171816115710529F04481558120
:102CF0000E94491602C00E941316CE01DF91CF91A7
:102D00000895FC01808191810C94201DFC011182A9
:102D1000108213821282158214820C946A16FC01AE
:102D2000118210821382128215821482611571053C
:102D300051F0FB0101900020E9F73197AF01461BEC
:102D4000570B0C9449160895BF92CF92DF92EF92E1
:102D5000FF920F931F93CF93DF937C016B01EA01E6
:102D600089012417350720F48D2FE901042F182F2E
:102D70006DE572E0C7010E948F16D60114968D9101
:102D80009C911597C817D90748F58017910708F443
:102D90008C01D601ED91FC911197E00FF11FB080ED
:102DA00010824D915C91BA016C0F7D1F6115710508
:102DB00061F0FB0101900020E9F73197AF01461B5C
:102DC000570BC7010E94491603C0C7010E94131682
:102DD000D601ED91FC91E00FF11FB082C701DF91A8
:102DE000CF911F910F91FF90EF90DF90CF90BF9008
:102DF00008950F931F93CF93DF93EC01E881F9813E
:102E0000DB0114964D915C9115976D917C91028038
:102E1000F381E02D09958C01CE010E94300A800FCC
:102E2000911FDF91CF911F910F910895CF93DF9361
:102E3000CDB7DEB7CB56D1090FB6F894DEBF0FBEC3
:102E4000CDBF789484B5826084BD84B5816084BD33
:102E500085B5826085BD85B5816085BD80916E0038
:102E6000816080936E001092810080918100826069
:102E700080938100809181008160809381008091A6
:102E800080008160809380008091B1008460809395
:102E9000B1008091B00081608093B00080917A0091
:102EA000846080937A0080917A00826080937A00B7
:102EB00080917A00816080937A0080917A008068A6
:102EC00080937A001092C10061E084E00E946D0B53
:102ED00061E085E00E946D0B61E086E00E946D0B71
:102EE00061E087E00E946D0B60E084E00E94210BAE
:102EF00060E085E00E94210B60E086E00E94210BEB
:102F000060E087E00E94210BE0912405F091250507
:102F100082E08083E0912005F09121051082E0910C
:102F20002205F09123058FEC808310922C05E0910F
:102F30002805F091290586E08083E0912605F0912F
:102F40002705808180618083E0912605F091270527
:102F5000808188608083E0912605F091270580813B
:102F600080688083E0912605F091270580818F7D20
:102F70008083E0911706F0911806138E128E118E41
:102F8000108E178A168A87E09AE1958F848F848540
:102F9000863108F04DC022EF3CE0378B268B25E0D0
:102FA0003AE1318F208F2BE733E1338F228F9091DD
:102FB0006800883050F021E08E3008F420E081E095
:102FC00001C0880F2A95EAF701C084E0892B80931D
:102FD00068009485983038F09E3040F0963148F083
:102FE00020E030E008C02DE630E005C02BE630E000
:102FF00002C02CE630E0348B238B983030F481E033
:1030000001C0880F9A95EAF70EC0292F30E09E3054
:1030100018F42850310902C02E50310981E001C056
:10302000880F2A95EAF7858B848D958D0197F1F7A6
:10303000828D938D892B49F14091000350910103BA
:103040004E175F0711F14115510571F0DA015396E2
:103050002D913C915497D9019C91DA0155968C9110
:1030600080958923D9018C93868D8E7F868F1092CF
:10307000FF021092FE02F0930103E0930003A38984
:10308000B4899C918589892B8C938091E205882352
:1030900021F08DED95E00E9416131092BE0510925E
:1030A000BC051092B9051092B8058AE08093B70567
:1030B0000E94A90B8B0161E08091B7050E946D0B06
:1030C00061E08091B7050E94210BFFB6F8948091D2
:1030D0000203811127C0E4EBF0E08491E8ECF0E01A
:1030E0009491E82FF0E0EE0FFF1FE859FF4FA591F4
:1030F000B491EC91E92321F461E08AE00E94210B74
:1031000061E08AE00E946D0B8CB580618CBD8CB54E
:1031100080648CBD61E08DE00E946D0B61E08BE00E
:103120000E946D0B809102038F5F80930203FFBEAC
:1031300082E58093B1051092B2058091B10590911E
:10314000B2050E9439032AE0F22E8FEF0E94FA02A4
:10315000FA94F110FACF83EB95E00E943C0320E053
:1031600030E0A90160E083EB95E00E945203F82E65
:103170008093BD0581E0F81649F00E94A90B601B01
:10318000710B613D774058F381E056C02AEA31E087
:1031900040E050E068E083EB95E00E94520382FF3C
:1031A00003C0F092BE0510C094E0F92E0E94010306
:1031B0008093BD05FA94F110F9CF8A3A11F082E0BC
:1031C0003BC082E08093BE058091BE05823021F035
:1031D000C12CD12C760105C0C12CD12CE12C80E46E
:1031E000F82E20E030E0A90167E383EB95E00E9430
:1031F0005203A701960169E283EB95E00E94520316
:103200008093BD05882349F00E94A90B601B710BB8
:10321000613D774030F388E00FC08091BE05823079
:1032200001F520E030E0A9016AE383EB95E00E941C
:103230005203882341F086E08093B80583EB95E044
:103240000E94EF02D5C00E940103807C803C19F4EB
:1032500083E08093BE050E9401030E9401030E9447
:10326000010383EB95E00E94EF0280E58093B105B6
:103270001092B20581E00E944B14882311F18DED6C
:1032800095E00E94F713882309F4B2C08EE592E01E
:103290000E944B131EAE1DAE80EC91E09CAF8BAF35
:1032A00021961FAE219719A218A29F8F8E8F1BA265
:1032B000C12CB12C7E01BBE3EB0EF11C0DED15E032
:1032C0004CC080E00E944B14882309F491C0D7CFF2
:1032D000FE01E85AFF4F40E050E0D901A85EBD4F23
:1032E0008C918F3251F0882341F04F5F5F4F2F5FF9
:1032F0003F4F81934C30510581F7E8E5F0E0EC0F4A
:10330000FD1FE40FF51F1082F901E85EFD4F80817B
:103310008F3211F42F5F3F4FC22EB32EF901E85EBA
:10332000FD4F8081882329F121E0AE01485A5F4F8B
:10333000B801C7010E945511D82E85E00D3D180730
:1033400009F06DC1DD2009F457C08E01025E1F4FE8
:10335000902F812F8701E92EF82E2C2D3B2DF9017E
:10336000E85EFD4F80818F3209F0B2CF2F5F3F4F73
:10337000AFCF1C821B8280EC91E09A8389831E82EE
:1033800022E0AE01485A5F4FB801CE0101960E947B
:103390005511882301F1CE0101960E9469138823FB
:1033A000D1F06F85788989899A8941E00E94280C3B
:1033B000882389F0EB8980E2E89FF0011124EE5E1A
:1033C000FC4F309741F085EE80831E8281E00E94A1
:1033D000FF0B811105C0A5E00D3D1A0729F40CC0B3
:1033E000B5E00D3D1B0741F0C8010E94161304C053
:1033F00087E792E00E944B131092030380E090E075
:103400000E9437086DE572E0CE018B599F4F0E94F4
:103410008F166DE572E0CE01885A9F4F0E948F167D
:10342000CE0101960E94A308BE016F5F7F4FCE01BF
:103430008B599F4F0E94DA15CE0101960E9481168A
:10344000AB968EAD9FADAB97892B09F4DBC0A796E9
:10345000EEADFFADA7978081882309F4D3C06DE559
:1034600072E0CE01CB960E948F1640910303BE01FD
:103470006B597F4FCE014E96AC964FAFAC970E94E2
:103480008616AC964FADAC97BE01625E7F4FCE0103
:1034900001960E94B307BE016F5F7F4FCE01CB96AE
:1034A0000E94DA15CE0101960E948116CE014E9639
:1034B0000E948116BE01655C7F4FCE0101960E947D
:1034C0008616CE0101960E947206CE0101960E94D8
:1034D000811622E030E040E050E0BE016B597F4FA2
:1034E000CE0101960E94A416BE016F5F7F4FCE01F0
:1034F000885A9F4F0E94DA15CE0101960E948116CC
:1035000022E030E040E050E0BE016B597F4FCE0139
:1035100001960E94A416BE01685A7F4FCE01019603
:103520000E94A815182FCE0101960E948116112322
:1035300009F464C0809103038F5F8093030390E0DC
:103540000E943708CE0101960E94A308BE016F5F5A
:103550007F4FCE018B599F4F0E94DA15CE01019605
:103560000E94811622E030E040E050E0BE016B593D
:103570007F4FCE0101960E94A416BE016F5F7F4F60
:10358000CE01885A9F4F0E94A815182FCE01019690
:103590000E948116112309F4B3CF40910303BE01A9
:1035A0006B597F4FCE014E96AC964FAFAC970E94B1
:1035B0008616AC964FADAC97BE01625E7F4FCE01D2
:1035C00001960E94B307BE016F5F7F4FCE01CB967D
:1035D0000E94DA15CE0101960E948116CE014E9608
:1035E0000E948116BE01655C7F4FCE0101960E944C
:1035F0008616CE0101960E9472067ECFCE01CB9632
:103600000E948116CE01885A9F4F0E948116CE01DA
:103610008B599F4F0E9481160E94D00AEDCEC8019F
:103620000E941613D11094CEE7CECF92DF92EF9284
:10363000FF92CF93DF93109217051092160598EE24
:10364000C92E93E0D92EE12CF12CC0921805D0920E
:103650001905E0921A05F0921B058EEA91E090930D
:1036600015058093140585EC90E0909321058093D7
:10367000200584EC90E0909323058093220580EC54
:1036800090E0909325058093240581EC90E0909341
:1036900027058093260582EC90E09093290580937E
:1036A000280586EC90E090932B0580932A051092D4
:1036B0002D0510922E0510922F051092300580E5F1
:1036C0008093B1051092B2051092B8051092B90519
:1036D0001092BC051092BE0582E090E0A0E0B0E040
:1036E0008093BF059093C005A093C105B093C20518
:1036F0001092D6051092E0051092DF0580EC91E063
:103700009093DE058093DD051092E2058FE190E055
:103710000E948B1CEC011B821A82CC82DD82EE821D
:10372000FF828EED91E0998388831F8A1E8A198E0D
:10373000188E1B8E1A8E1D8E1C8E6E8D6E7F6D7F69
:103740006E8F6695617081E068278AE00E94210B88
:1037500061E08AE00E946D0BE8ECF0E0E491E88B18
:10376000E4EBF0E0E491F0E0EE0FFF1FEA56FF4FCC
:10377000859194919A8B898B60E083E00E946D0B18
:103780008E8D81FD04C061E083E00E94210B83E007
:103790008C87E1ECF0E0E491ED87EDEAF0E0E49174
:1037A000F0E0EE0FFF1FE056FF4F859194919F8749
:1037B0008E87D0931806C09317061092FF051092BB
:1037C000FE0588EE93E0A0E0B0E0809300069093C1
:1037D0000106A0930206B09303068CEC91E090934F
:1037E000FD058093FC0510921606109215061092A6
:1037F0000806DF91CF91FF90EF90DF90CF90089572
:1038000091110C94091C803219F089508550C8F729
:1038100008959927882708950E944E1CA59F900D12
:10382000B49F900DA49F800D911D112408952F9297
:103830003F924F925F926F927F928F929F92AF9240
:10384000BF92CF92DF92EF92FF920F931F93CF938D
:10385000DF93CDB7DEB7CA1BDB0B0FB6F894DEBF24
:103860000FBECDBF09942A88398848885F846E844A
:103870007D848C849B84AA84B984C884DF80EE8094
:10388000FD800C811B81AA81B981CE0FD11D0FB69D
:10389000F894DEBF0FBECDBFED010895A29FB00129
:1038A000B39FC001A39F700D811D1124911DB29F74
:1038B000700D811D1124911D089597FB072E16F49C
:1038C000009407D077FD09D00E94711C07FC05D039
:1038D0003EF4909581959F4F0895709561957F4F27
:1038E0000895AA1BBB1B51E107C0AA1FBB1FA61747
:1038F000B70710F0A61BB70B881F991F5A95A9F799
:1039000080959095BC01CD010895EE0FFF1F0590A5
:10391000F491E02D0994CF93DF938230910510F458
:1039200082E090E0E0911B06F0911C0620E030E080
:10393000C0E0D0E0309711F140815181481759071C
:10394000C0F04817590761F482819381209719F0DC
:103950009B838A832BC090931C0680931B0626C0F2
:103960002115310519F04217530718F49A01BE01C9
:10397000DF01EF010280F381E02DDCCF211531055D
:1039800009F1281B390B2430310590F412968D91E2
:103990009C9113976115710521F0FB01938382833C
:1039A00004C090931C0680931B06FD01329644C010
:1039B000FD01E20FF31F81939193225031092D9362
:1039C0003C933AC02091190630911A06232B41F4FA
:1039D000209106013091070130931A0620931906B1
:1039E00020910401309105012115310541F42DB7D5
:1039F0003EB74091080150910901241B350BE0911D
:103A00001906F0911A06E217F307A0F42E1B3F0BDC
:103A10002817390778F0AC014E5F5F4F2417350740
:103A200048F04E0F5F1F50931A064093190681937A
:103A3000919302C0E0E0F0E0CF01DF91CF910895D3
:103A40000F931F93CF93DF93009709F48CC0FC0171
:103A500032971382128200911B0610911C060115E9
:103A6000110581F420813181820F931F2091190665
:103A700030911A062817390779F5F0931A06E09362
:103A8000190671C0D80140E050E0AE17BF0750F4EE
:103A900012962D913C911397AD012115310509F135
:103AA000D901F3CF9D01DA013383228360817181D3
:103AB000860F971F8217930769F4EC0128813981DB
:103AC000260F371F2E5F3F4F318320838A819B81D2
:103AD00093838283452B29F4F0931C06E0931B0605
:103AE00042C01396FC93EE931297ED0149915991C0
:103AF0009E01240F351FE217F30771F48081918135
:103B0000840F951F029611969C938E9382819381C8
:103B100013969C938E931297E0E0F0E0D8011296F2
:103B20008D919C911397009719F0F8018C01F6CFB5
:103B30008D919C9198012E5F3F4F820F931F209192
:103B4000190630911A062817390769F4309729F4B5
:103B500010921C0610921B0602C013821282109350
:103B60001A0600931906DF91CF911F910F910895C6
:103B7000A0E0B0E0EEEBFDE10C941B1CEC01009723
:103B800021F4CB010E948B1CB8C0FC01E60FF71F8B
:103B90009C0122503109E217F30708F4ACC0D901A7
:103BA0000D911C91119706171707B0F005301105FC
:103BB00008F49FC0C80104978617970708F499C0B6
:103BC00002501109061B170B019311936D937C93FF
:103BD000CF010E94201D8DC05B01A01AB10A4C01CB
:103BE000800E911EA0911B06B0911C0640E050E093
:103BF000E12CF12C109709F44AC0A815B905D1F5AC
:103C00006D907C901197630182E0C80ED11CCA149C
:103C1000DB0480F1A3014A195B096A0182E0C80E46
:103C2000D11C1296BC9012971396AC91B5E0CB16AE
:103C3000D10440F0B282A38351834083D9016D93B4
:103C40007C930AC00E5F1F4FC301800F911FF901C3
:103C500091838083EB2DFA2FE114F10431F0D70129
:103C60001396FC93EE93129744C0F0931C06E093D6
:103C70001B063FC08D919C9111974817590708F476
:103C8000AC017D0112960D90BC91A02DB3CF809117
:103C9000190690911A0688159905E1F446175707F9
:103CA000C8F48091040190910501009741F48DB70B
:103CB0009EB74091080150910901841B950BE817AC
:103CC000F907C8F4F0931A06E0931906F901718315
:103CD00060830FC0CB010E948B1C7C01009759F0C0
:103CE000A801BE010E94941ECE010E94201DC701A2
:103CF00004C0CE0102C080E090E0CDB7DEB7EEE0B8
:103D00000C94371C81E090E0F8940C94BC1EFB01ED
:103D1000DC0104C08D910190801921F44150504084
:103D2000C8F7881B990B0895FB01DC0102C00190C4
:103D30000D9241505040D8F70895FB01DC018D9160
:103D4000019080190110D9F3990B0895FB01DC0152
:103D500001900D920020E1F70895FB01DC01415034
:103D6000504048F001900D920020C9F701C01D920B
:0C3D700041505040E0F70895F894FFCF58
:103D7C00FFFFFFFF00001D06800000000000000098
:103D8C000000010000000000000000000100000025
:103D9C000000010001000000000000000000010014
:103DAC000000010000000100000000000100010003
:103DBC0000000100010001000000000000000000F4
:103DCC0001000100000000000100000001000000E3
:103DDC0001000100010000000100000000000100D2
:103DEC0001000100000001000100000001000100C1
:103DFC0001000100010001000100240227022A0237
:103E0C002D0230023302360239023C023F024302D9
:103E1C0047024B024F025302570200000000C70931
:103E2C009209930A0E0AC40AA20AB60A00000000FC
:103E3C00E6109209F710840100000000C600910101
:103E4C00B50088019400C205CC0500000000F50007
:103E5C0092098501F40049016101DC0000000000B9
:103E6C00DA0A920985018401DA0ADA0ADA0A000010
:103E7C000000DA0A9209850184016572726F722062
:103E8C006F70656E696E6720626174746572792EED
:103E9C0063737600423100423200423300423400F8
:103EAC004235004236004237004238004239004267
:103EBC003130004231310042313200423133004264
:103ECC0031340042313500423136000D0A00534482
:103EDC002063617264206973207265616479207457
:103EEC006F207573652E00534420636172642069E2
:103EFC006E697469616C697A6174696F6E20666150
:083F0C00696C6564003B0000D4
:107800000C94343C0C94513C0C94513C0C94513CE1
:107810000C94513C0C94513C0C94513C0C94513CB4
:107820000C94513C0C94513C0C94513C0C94513CA4
:107830000C94513C0C94513C0C94513C0C94513C94
:107840000C94513C0C94513C0C94513C0C94513C84
:107850000C94513C0C94513C0C94513C0C94513C74
:107860000C94513C0C94513C11241FBECFEFD8E036
:10787000DEBFCDBF11E0A0E0B1E0ECE9FFE702C060
:1078800005900D92A230B107D9F712E0A2E0B1E065
:1078900001C01D92AD30B107E1F70E942D3D0C945F
:1078A000CC3F0C94003C982F959595959595959582
:1078B000905D8F708A307CF0282F295A8091C0000B
:1078C00085FFFCCF9093C6008091C00085FFFCCF60
:1078D0002093C6000895282F205DF0CF982F809127
:1078E000C00085FFFCCF9093C6000895EF92FF92F1
:1078F0000F931F93EE24FF2487018091C00087FD22
:1079000017C00894E11CF11C011D111D81E4E8164B
:1079100082E4F8068FE0080780E0180770F3E09132
:107920000401F091050109958091C00087FFE9CF1E
:107930008091C6001F910F91FF90EF9008950E94D3
:10794000763C982F8091C00085FFFCCF9093C600B5
:1079500091362CF490330CF09053892F089597555D
:10796000892F08951F930E949F3C182F0E949F3CCF
:107970001295107F810F1F9108951F93182F882350
:1079800021F00E94763C1150E1F71F9108951F935A
:10799000182F0E94763C803249F0809103018F5F5E
:1079A000809303018530C1F01F9108958091C0003C
:1079B00085FFFCCF84E18093C6008091C00085FFE5
:1079C000FCCF1093C6008091C00085FFFCCF80E102
:1079D0008093C6001F910895E0910401F091050184
:1079E00009951F9108950E94763C803241F0809164
:1079F00003018F5F80930301853081F008958091AA
:107A0000C00085FFFCCF84E18093C6008091C00058
:107A100085FFFCCF80E18093C6000895E0910401CA
:107A2000F09105010995089540E951E08823A1F0FE
:107A30002D9A28EE33E0FA013197F1F721503040CA
:107A4000D1F72D9828EE33E0FA013197F1F7215064
:107A50003040D1F7815061F708953F924F925F9285
:107A60006F927F928F929F92AF92BF92CF92DF924E
:107A7000EF92FF920F931F93CF93DF93000080E16B
:107A80008093C4001092C50088E18093C10086E015
:107A90008093C2005098589A259A81E00E94143D24
:107AA00024E1F22E9EE1E92E85E9D82E0FE0C02ECA
:107AB00010E1B12EAA24A394B1E49B2EA6E58A2E50
:107AC000F2E57F2EE0E26E2E79E4572E63E5462E36
:107AD00050E5352E0E94763C8033B1F18133B9F107
:107AE000803409F46FC0813409F476C0823409F41B
:107AF00085C0853409F488C0803531F1823521F1A3
:107B0000813511F1853509F485C0863509F48DC0BC
:107B1000843609F496C0843709F403C1853709F423
:107B200072C1863709F466C0809103018F5F80932C
:107B30000301853079F6E0910401F0910501099582
:107B40000E94763C803351F60E94F33CC3CF0E94E2
:107B5000763C803249F78091C00085FFFCCFF092DF
:107B6000C6008091C00085FFFCCF9092C600809136
:107B7000C00085FFFCCF8092C6008091C00085FFC9
:107B8000FCCF7092C6008091C00085FFFCCF609250
:107B9000C6008091C00085FFFCCF5092C600809146
:107BA000C00085FFFCCF4092C6008091C00085FFD9
:107BB000FCCF3092C6008091C00085FFFCCFB09210
:107BC000C60088CF0E94763C863808F4BDCF0E945C
:107BD000763C0E94F33C7ECF0E94763C803809F4CC
:107BE0009CC0813809F40BC1823809F43CC1883942
:107BF00009F48FC080E00E94C73C6CCF84E10E94F2
:107C0000BD3C0E94F33C66CF85E00E94BD3C0E94D3
:107C1000F33C60CF0E94763C809306010E94763C44
:107C2000809307010E94F33C55CF0E94763C80333D
:107C300009F41DC183E00E94BD3C80E00E94C73C66
:107C400049CF0E94763C809309020E94763C809343
:107C5000080280910C028E7F80930C020E94763C79
:107C6000853409F415C18091080290910902892B8D
:107C700089F000E010E00E94763CF801E85FFE4FDA
:107C800080830F5F1F4F80910802909109020817AF
:107C9000190788F30E94763C803209F045CF809125
:107CA0000C0280FF01C16091060170910701660F0F
:107CB000771F7093070160930601A0910802B091AD
:107CC00009021097C9F0E8E0F1E09B01AD014E0F09
:107CD0005F1FF999FECF32BD21BD819180BDFA9A17
:107CE000F99A2F5F3F4FE417F50799F76A0F7B1F4B
:107CF00070930701609306018091C00085FFFCCF5F
:107D0000F092C6008091C00085FFFCCFB092C60003
:107D1000E1CE83E00E94C73CDDCE82E00E94C73CFA
:107D2000D9CE0E94763C809309020E94763C8093D3
:107D300008028091060190910701880F991F909386
:107D40000701809306010E94763C853409F4A6C0A1
:107D500080910C028E7F80930C020E94763C8032D0
:107D600009F0B8CE8091C00085FFFCCFF092C6002C
:107D7000609108027091090261157105B9F140E046
:107D800050E080910C02A82FA170B82FB27011C0E2
:107D9000BB2309F45CC0E0910601F0910701319624
:107DA000F0930701E09306014F5F5F4F46175707B7
:107DB000E8F4AA2369F3F999FECF209106013091E6
:107DC000070132BD21BDF89A90B58091C00085FFB2
:107DD000FCCF9093C6002F5F3F4F30930701209355
:107DE00006014F5F5F4F4617570718F38091C00099
:107DF00085FDE5CE8091C00085FFF8CFE0CE81E023
:107E00000E94C73C67CE0E94763C803209F08CCE3F
:107E10008091C00085FFFCCFF092C6008091C00029
:107E200085FFFCCFE092C6008091C00085FFFCCFAB
:107E3000D092C6008091C00085FFFCCFC092C600E2
:107E40008091C00085FFFCCFB092C60043CEE09188
:107E50000601F091070194918091C00085FFFCCF4D
:107E60009093C6009CCF80E10E94C73C33CE0E9415
:107E7000763C0E94763C182F0E94763C112309F430
:107E800083C0113009F484C08FE00E94C73C22CE29
:107E900080910C02816080930C02E5CE80910C02EF
:107EA000816080930C0259CF809107018823880F4D
:107EB000880B8A2180930B02809106019091070123
:107EC000880F991F90930701809306018091080203
:107ED00080FF09C080910802909109020196909359
:107EE000090280930802F894F999FECF1127E091D6
:107EF0000601F0910701C8E0D1E08091080290915D
:107F00000902103091F40091570001700130D9F34B
:107F100003E000935700E89500915700017001308D
:107F2000D9F301E100935700E89509901990009169
:107F3000570001700130D9F301E000935700E89534
:107F40001395103498F011270091570001700130FB
:107F5000D9F305E000935700E895009157000170B0
:107F60000130D9F301E100935700E895329602976A
:107F700009F0C7CF103011F00296E5CF112480919F
:107F8000C00085FFB9CEBCCE8EE10E94C73CA2CD19
:0C7F900085E90E94C73C9ECDF894FFCF0D
:027F9C00800063
:040000030000780081
:00000001FF