:100000000C9463000C948B000C948B000C94FC03F8
:100010000C94FC030C94FC030C948B000C948B004C
:100020000C948B000C948B000C948B000C948B0024
:100030000C948B000C948B000C948B000C948B0014
:100040000C945A030C948B000C94CA030C94A403D4
:100050000C948B000C948B000C948B000C948B00F4
:100060000C948B000C948B0000000008000201002F
:100070000003040700000000000000000000000072
:10008000250028002B0000000000240027002A0083
:1000900000000000230026002900040404040404D6
:1000A0000404020202020202030303030303010227
:1000B00004081020408001020408102001020408F6
:1000C00010207804F30711241FBECFEFD8E0DEBF65
:1000D000CDBF22E0A4E7B1E001C01D92AE38B20767
:1000E000E1F711E0A0E0B1E0E8E1F5E102C0059040
:1000F0000D92A437B107D9F710E0C2E6D0E004C0F2
:100100002197FE010E946408C136D107C9F70E94F9
:100110005A050C947F0A0C9400000895CF92DF9248
:10012000EF92FF920F931F93CF93DF936C017A01AD
:100130008B01C0E0D0E0CE15DF0589F0D8016D91CC
:100140008D01D601ED91FC910190F081E02DC60169
:100150000995892B11F47E0102C02196ECCFC701CD
:10016000DF91CF911F910F91FF90EF90DF90CF9093
:100170000895FC01538D448D252F30E0842F90E0AD
:10018000821B930B541710F0CF9608950197089592
:10019000FC01918D828D981761F0828DDF01A80F8F
:1001A000B11D5D968C91928D9F5F9F73928F90E0B1
:1001B00008958FEF9FEF0895FC01918D828D981720
:1001C00031F0828DE80FF11D858D90E008958FEF5D
:1001D0009FEF0895FC01918D228D892F90E0805C26
:1001E0009F4F821B91098F739927089585EE91E0A7
:1001F0000E94EA0021E0892B09F420E0822F089573
:10020000FC01848DDF01A80FB11DA35ABF4F2C91B3
:10021000848D90E001968F739927848FA689B78982
:100220002C93A089B1898C9180648C93938D848D5B
:10023000981306C00288F389E02D80818F7D80832A
:100240000895EF92FF920F931F93CF93DF93EC01EA
:1002500081E0888F9B8D8C8D981305C0E889F98982
:10026000808185FD24C0F62E0B8D10E00F5F1F4F9F
:100270000F731127E02E8C8DE8120CC00FB607FC0F
:10028000FACFE889F989808185FFF5CFCE010E94F8
:100290000001F1CF8B8DFE01E80FF11DE35AFF4FF6
:1002A000F0820B8FEA89FB898081806207C0EE892A
:1002B000FF896083E889F98980818064808381E097
:1002C00090E0DF91CF911F910F91FF90EF900895F3
:1002D000CF93DF93EC01888D8823C9F0EA89FB89ED
:1002E000808185FD05C0A889B9898C9186FD0FC0E4
:1002F0000FB607FCF5CF808185FFF2CFA889B989B9
:100300008C9185FFEDCFCE010E940001E7CFDF91F8
:10031000CF91089580E090E0892B29F00E94F600AB
:1003200081110C940000089590E0FC01E859FF4F02
:100330003491FC01E255FF4F2491FC01E656FF4F3A
:10034000E491EE2309F43BC0332339F1333091F0CB
:1003500038F43130A9F0323001F584B58F7D12C008
:10036000373091F03830A1F03430B9F4809180000A
:100370008F7D03C0809180008F77809380000DC0B7
:1003800084B58F7784BD09C08091B0008F7703C09A
:100390008091B0008F7D8093B000F0E0EE0FFF1FE2
:1003A000E458FF4FA591B4918FB7F894EC91611187
:1003B00003C020952E2301C02E2B2C938FBF0895B0
:1003C0002091DA013091DB012817390771F49091FF
:1003D000D8018091D901981741F0E091D801F0E05F
:1003E000EC58FE4F808190E008958FEF9FEF0895C5
:1003F00008951F93CF93DF93DC015C962D913C9180
:100400005D972115310539F481E090E013969C93B6
:100410008E9312973DC05196ED91FC915297509654
:100420009C915097892F80951FB75E964C915E974F
:1004300041FB772770F941FD6095F894408177235F
:1004400011F0492B01C048234083E9012197F1F7BE
:1004500048E0508160FF02C0592B01C058235083EF
:10046000E9012197F1F76695415099F7772321F03B
:1004700090818923808303C08081982B90831FBF44
:100480005C968D919C915D970197F1F721E030E0AA
:10049000C901DF91CF911F9108952091DA01309128
:1004A000DB012817390771F48091D9012091D80117
:1004B00090E08C599F4F821B910964E670E00E9486
:1004C0003C08089580E090E008952091DA01309191
:1004D000DB0128173907C9F49091D8018091D9011F
:1004E000981799F0E091D801F0E0EC58FE4F208188
:1004F0008091D80190E0019664E670E00E943C088B
:100500008093D801822F90E008958FEF9FEF089598
:10051000089580E090E00895009769F0FC01019053
:100520000020E9F73197AF01481B590BBC0185EE5C
:1005300091E00C948E0080E090E00895EF92FF929D
:100540000F931F93CF93DF93EC017B018A01888186
:100550009981009729F02A813B8124173507F8F407
:10056000B8016F5F7F4F0E949709009759F09983F8
:1005700088831B830A832C813D81232B81F4FC011A
:1005800010820DC088819981009711F00E94FF08A8
:10059000198218821D821C821B821A8207C01D8349
:1005A0000C83B701888199810E94780ACE01DF917E
:1005B000CF911F910F91FF90EF900895FC01118250
:1005C000108213821282158214826115710551F016
:1005D000FB0101900020E9F73197AF01461B570B53
:1005E0000C949E020895BF92CF92DF92EF92FF92F9
:1005F0000F931F93CF93DF937C016B01EA01890175
:100600002417350720F48D2FE901042F182F63E7F5
:1006100071E0C7010E94DE02D60114968D919C9173
:100620001597C817D907C8F58017910708F48C01EA
:10063000D601ED91FC911197E00FF11FB08010826F
:100640004D915C91BA016C0F7D1F6115710561F0D0
:10065000FB0101900020E9F73197AF01461B570BD2
:10066000C7010E949E0213C0F7018081918100970B
:1006700011F00E94FF08D70111961C921E92159648
:100680001C921E92149713961C921E921297D601DA
:10069000ED91FC91E00FF11FB082C701DF91CF9186
:1006A0001F910F91FF90EF90DF90CF90BF90089532
:1006B0000E94610A1F920F920FB60F9211242F937E
:1006C0003F938F939F93AF93BF938091E10190915C
:1006D000E201A091E301B091E4013091E00123E057
:1006E000230F2D3720F40196A11DB11D05C026E86A
:1006F000230F0296A11DB11D2093E0018093E1011B
:100700009093E201A093E301B093E4018091DC01B6
:100710009091DD01A091DE01B091DF010196A11D54
:10072000B11D8093DC019093DD01A093DE01B093B5
:10073000DF01BF91AF919F918F913F912F910F90CA
:100740000FBE0F901F9018951F920F920FB60F9229
:1007500011242F933F934F935F936F937F938F93C6
:100760009F93AF93BF93EF93FF9385EE91E00E9429
:100770000001FF91EF91BF91AF919F918F917F9178
:100780006F915F914F913F912F910F900FBE0F90FE
:100790001F9018951F920F920FB60F9211242F934E
:1007A0008F939F93EF93FF93E091F501F091F60102
:1007B0008081E091FB01F091FC0182FD12C09081EB
:1007C0008091FE018F5F8F732091FF01821751F09E
:1007D000E091FE01F0E0EB51FE4F958F8093FE011A
:1007E00001C08081FF91EF919F918F912F910F9088
:1007F0000FBE0F901F9018951F920F920FB60F9279
:1008000011242F933F934F935F936F937F938F9315
:100810009F93AF93BF93EF93FF93E091DA01F09131
:10082000DB01309709F453C0968DA685B785858581
:1008300091FF04C09C91892329F449C09C9189238C
:1008400009F045C0A389B4899C9185898095892345
:100850008C93868997890197F1F7608D718DA685B4
:10086000B785558538E020E0CB010197F1F7822F5D
:1008700090E095958795282F4C91452309F02068A5
:10088000315091F7868D81FD20958091D90190E0BE
:10089000019664E670E00E943C089091D801981798
:1008A00049F0A091D901B0E0AC58BE4F2C93809391
:1008B000D90103C0868D8160868F828D938D0197CB
:1008C000F1F7A389B4899C918589892B8C93FF9139
:1008D000EF91BF91AF919F918F917F916F915F91B8
:1008E0004F913F912F910F900FBE0F901F90189531
:1008F000CF92DF92EF92FF92CF93DF931092E801B5
:100900001092E70168EEC62E63E0D62EE12CF12CA2
:10091000C092E901D092EA01E092EB01F092EC0181
:100920008AE091E09093E6018093E50185EC90E008
:100930009093F2018093F10184EC90E09093F401A4
:100940008093F30180EC90E09093F6018093F501A1
:1009500081EC90E09093F8018093F70182EC90E0B5
:100960009093FA018093F90186EC90E09093FC015A
:100970008093FB011092FE011092FF011092000281
:100980001092010263E771E084E892E00E94DE02C7
:100990008FE190E00E946A08EC011B821A82CC82EF
:1009A000DD82EE82FF828CE191E0998388831F8A49
:1009B0001E8A198E188E1B8E1A8E1D8E1C8E6E8DA1
:1009C0006E7F6D7F6E8F6695617081E068278AE02B
:1009D0000E949401E8EBF0E02491E4EAF0E08491D5
:1009E000882399F090E0880F991FFC01EA57FF4F88
:1009F000A591B491FC01E458FF4F859194918FB774
:100A0000F894EC91E22BEC938FBFE8EBF0E0E491EB
:100A1000E88BE4EAF0E0E491F0E0EE0FFF1FE45829
:100A2000FF4F859194919A8B898BE1EBF0E02491B3
:100A3000EDE9F0E084918823C9F090E0880F991FD8
:100A4000FC01EA57FF4F45915491FC01E458FF4FD8
:100A5000A591B4919FB7F894FA01808120958223E3
:100A600080838C91E22FE823EC939FBF8E8D81FDD4
:100A700004C061E083E00E94940183E08C87E1EB95
:100A8000F0E0E491ED87EDE9F0E0E491F0E0EE0FC5
:100A9000FF1FE057FF4F859194919F878E87D093DA
:100AA0008302C0938202DF91CF91FF90EF90DF909D
:100AB000CF900895CF93DF93CDB7DEB763970FB68E
:100AC000F894DEBF0FBECDBF789484B5826084BD3C
:100AD00084B5816084BD85B5826085BD85B5816042
:100AE00085BD80916E00816080936E0010928100C0
:100AF000809181008260809381008091810081607B
:100B0000809381008091800081608093800080913B
:100B1000B10084608093B1008091B00081608093C7
:100B2000B00080917A00846080937A0080917A008E
:100B3000826080937A0080917A00816080937A004D
:100B400080917A00806880937A001092C100E091D1
:100B5000F501F091F60182E08083E091F101F091DE
:100B6000F2011082E091F301F091F4018FEC8083A7
:100B70001092FD01E091F901F091FA0186E0808385
:100B8000E091F701F091F801808180618083E0912C
:100B9000F701F091F801808188608083E091F7018E
:100BA000F091F801808180688083E091F701F091F5
:100BB000F80180818F7D8083E0918202F091830231
:100BC000138E128E118E108E178A168A87E09AE184
:100BD000958F848F8485863108F04DC022EF3CE0EC
:100BE000378B268B25E03AE1318F208F2BE733E1DD
:100BF000338F228F90916800883050F021E08E3042
:100C000008F420E081E001C0880F2A95EAF701C0CE
:100C100084E0892B809368009485983038F09E306A
:100C200040F0963148F020E030E008C02DE630E09A
:100C300005C02BE630E002C02CE630E0348B238B7D
:100C4000983030F481E001C0880F9A95EAF70EC021
:100C5000292F30E09E3018F42850310902C02E5060
:100C6000310981E001C0880F2A95EAF7858B848DD0
:100C7000958D0197F1F7828D938D892B49F14091E4
:100C8000DA015091DB014E175F0711F14115510553
:100C900071F0DA0153962D913C915497D9019C91B2
:100CA000DA0155968C9180958923D9018C93868D94
:100CB0008E7F868F1092D9011092D801F093DB01BC
:100CC000E093DA01A389B4899C918589892B8C935F
:100CD00086E0782E7E01BDE0EB0EF11C6E01E3E1B3
:100CE000CE0ED11C8091820290918302DC01ED91A5
:100CF000FC910084F185E02D0995181619060CF079
:100D00006FC1F701872D11928A95E9F70091820250
:100D10001091830257012FB7F8948091E1019091CF
:100D2000E201A091E301B091E4012FBFF8018087B7
:100D30009187A287B387D801ED91FC910284F38556
:100D4000E02DC801099597FD0EC08A32910549F53D
:100D5000B701CE0107960E94DE02AF80B884A114CD
:100D6000B10439F562C02FB7F8948091E1019091F8
:100D7000E201A091E301B091E4012FBFF8014085A9
:100D8000518562857385841B950BA60BB70B448137
:100D900055816681778184179507A607B70758F2B2
:100DA000D7CFD5018D935D01AC15BD0509F0B3CF4B
:100DB000CFCF0B851C8501151105B9F12501420125
:100DC000BFEF4B1A5B0AF4018081082E000C990BCF
:100DD0000E94F907892B99F7015011090A0D1B1D73
:100DE000D8018C91082E000C990B0E94F907892BD1
:100DF00079F4A8014F5F5F4F481959095C874B8709
:100E0000A814B90458F4B401C5010E94660A06C0CA
:100E10000815190570F301501109E2CFEF81F8852B
:100E20008B859C85E80FF91F10828B859C85892B0B
:100E300009F4D2C0EF81F8858081882309F4CCC001
:100E400022E030E040E050E0BE01695F7F4FCE011C
:100E500001960E94F3028D819E812091880230913B
:100E6000890209811A818217930739F560918402FA
:100E7000709185020115110519F061157105B9F41C
:100E80006115710551F0009741F0FB01208130E0C0
:100E900088279927821B930B0DC00115110579F046
:100EA000892B69F0D8012C91822F90E003C0C801F2
:100EB0000E946F0A41E0892B19F040E001C041E037
:100EC000C8014B8B0E94FF084B89411185C022E06D
:100ED00030E040E050E0BE01695F7F4FCE010196F7
:100EE0000E94F30280918402909185020097C9F0DC
:100EF00069817A816115710591F040918602509166
:100F000087022D813E814217530748F00E94780ADC
:100F10008D819E81909389028093880218C00E94DF
:100F2000FF0889819A8190938502809384028B8146
:100F30009C8190938702809386028D819E819093FD
:100F40008902809388021A8219821C821B821E8267
:100F50001D8289819A810E94FF088AE291E00E94A5
:100F60008C024091880250918902609184027091B4
:100F7000850285EE91E00E948E0082E491E00E945D
:100F80008C028FE491E00E948C028DE591E00E943A
:100F90008C0280E691E00E948C0226E030E042E084
:100FA00050E0BE01695F7F4FCE0101960E94F302BF
:100FB0004D815E8169817A8185EE91E00E948E008B
:100FC00042E050E061E771E085EE91E00E948E0022
:100FD00089819A810E94FF088F8198850E94FF086D
:100FE0000E948A017FCE80918402909185020C94A8
:100FF000FF0891110C940208803219F08950855035
:10100000C8F708959927882708952F923F924F9205
:101010005F926F927F928F929F92AF92BF92CF9288
:10102000DF92EF92FF920F931F93CF93DF93CDB791
:10103000DEB7CA1BDB0B0FB6F894DEBF0FBECDBF09
:1010400009942A88398848885F846E847D848C84DA
:101050009B84AA84B984C884DF80EE80FD800C81E3
:101060001B81AA81B981CE0FD11D0FB6F894DEBFC6
:101070000FBECDBFED01089597FB072E16F4009427
:1010800007D077FD09D00E94500807FC05D03EF438
:10109000909581959F4F0895709561957F4F089524
:1010A000AA1BBB1B51E107C0AA1FBB1FA617B7078E
:1010B00010F0A61BB70B881F991F5A95A9F78095AA
:1010C0009095BC01CD010895EE0FFF1F0590F4919E
:1010D000E02D0994CF93DF938230910510F482E0E4
:1010E00090E0E0918C02F0918D0220E030E0C0E0D1
:1010F000D0E0309711F14081518148175907C0F075
:101100004817590761F482819381209719F09B83D6
:101110008A832BC090938D0280938C0226C0211568
:10112000310519F04217530718F49A01BE01DF0187
:10113000EF010280F381E02DDCCF2115310509F1AB
:10114000281B390B2430310590F412968D919C9117
:1011500013976115710521F0FB019383828304C00D
:1011600090938D0280938C02FD01329644C0FD0164
:10117000E20FF31F81939193225031092D933C93F9
:101180003AC020918A0230918B02232B41F42091A6
:1011900002013091030130938B0220938A02209147
:1011A0000001309101012115310541F42DB73EB701
:1011B0004091040150910501241B350BE0918A02F6
:1011C000F0918B02E217F307A0F42E1B3F0B2817B8
:1011D000390778F0AC014E5F5F4F2417350748F0B0
:1011E0004E0F5F1F50938B0240938A02819391931D
:1011F00002C0E0E0F0E0CF01DF91CF9108950F93BE
:101200001F93CF93DF93009709F48CC0FC013297B2
:101210001382128200918C0210918D02011511052A
:1012200081F420813181820F931F20918A023091B5
:101230008B022817390779F5F0938B02E0938A0225
:1012400071C0D80140E050E0AE17BF0750F41296CD
:101250002D913C911397AD012115310509F1D9016B
:10126000F3CF9D01DA013383228360817181860F80
:10127000971F8217930769F4EC0128813981260FA3
:10128000371F2E5F3F4F318320838A819B81938359
:101290008283452B29F4F0938D02E0938C0242C0A7
:1012A0001396FC93EE931297ED01499159919E018B
:1012B000240F351FE217F30771F480819181840FA9
:1012C000951F029611969C938E938281938113961B
:1012D0009C938E931297E0E0F0E0D80112968D91E6
:1012E0009C911397009719F0F8018C01F6CF8D911E
:1012F0009C9198012E5F3F4F820F931F20918A028D
:1013000030918B022817390769F4309729F410922D
:101310008D0210928C0202C01382128210938B02F3
:1013200000938A02DF91CF911F910F910895A0E061
:10133000B0E0EDE9F9E00C940908EC01009721F424
:10134000CB010E946A08B8C0FC01E60FF71F9C01A0
:1013500022503109E217F30708F4ACC0D9010D910E
:101360001C91119706171707B0F00530110508F406
:101370009FC0C80104978617970708F499C00250C8
:101380001109061B170B019311936D937C93CF01E9
:101390000E94FF088DC05B01A01AB10A4C01800EAB
:1013A000911EA0918C02B0918D0240E050E0E12CA2
:1013B000F12C109709F44AC0A815B905D1F56D9024
:1013C0007C901197630182E0C80ED11CCA14DB0423
:1013D00080F1A3014A195B096A0182E0C80ED11CA1
:1013E0001296BC9012971396AC91B5E0CB16D1042F
:1013F00040F0B282A38351834083D9016D937C93E3
:101400000AC00E5F1F4FC301800F911FF901918326
:101410008083EB2DFA2FE114F10431F0D7011396FC
:10142000FC93EE93129744C0F0938D02E0938C02EC
:101430003FC08D919C9111974817590708F4AC0152
:101440007D0112960D90BC91A02DB3CF80918A02A0
:1014500090918B0288159905E1F446175707C8F457
:101460008091000190910101009741F48DB79EB7E2
:101470004091040150910501841B950BE817F90771
:10148000C8F4F0938B02E0938A02F90171836083C0
:101490000FC0CB010E946A087C01009759F0A80197
:1014A000BE010E94660ACE010E94FF08C70104C067
:1014B000CE0102C080E090E0CDB7DEB7EEE00C9444
:1014C000250881E090E0F8940C947F0AFB01DC0190
:1014D00002C001900D9241505040D8F70895FB0191
:1014E000DC018D91019080190110D9F3990B0895B9
:1014F000FB01DC0101900D920020E1F7089510E05E
:10150000C2E6D0E004C0FE010E9464082196C33602
:08151000D107C9F7F894FFCFE1
:1015180000008E0280000000000021018E00B9004A
:101528006801EA00C800DC0000000000F9018E0034
:101538008902F8014D026502E00153746F7265205B
:1015480076616C7565204944207265636F7264200A
:101558003A00206F6E205344206361726420006952
:10156800642062617474657279203A200042310007
:1015780020646174612061717569726564203A2024
:04158800000D0A0048
:00000001FF
