:100000000C946B000C9493000C9493000C940406D5
:100010000C9404060C9404060C9493000C94930026
:100020000C9493000C9493000C9493000C94930004
:100030000C9493000C9493000C9493000C949300F4
:100040000C94830B0C9493000C94C6090C94A00997
:100050000C9493000C9493000C9493000C949300D4
:100060000C9493000C9493000000000024002700DF
:100070002A007C3C3E5E2B3D3F2F5B5D3B2C2A22C1
:100080005C000000000800020100000304070000FB
:1000900000000000000000000000250028002B00E8
:1000A00000000000230026002900040404040404C6
:1000B0000404020202020202030303030303010217
:1000C00004081020408001020408102001020408E6
:1000D00010206D1B111711241FBECFEFD8E0DEBF1B
:1000E000CDBF26E0A8E9B2E001C01D92AF32B20751
:1000F000E1F712E0A0E0B1E0E0EBFEE302C0059022
:100100000D92A839B107D9F710E0CAE6D0E004C0D3
:100110002197FE010E94141DC936D107C9F70E941C
:100120001D170C944B1F0C940000DC015996ED91A7
:10013000FC915A973097B9F083899489A589B6893B
:100140004285538564857585841B950BA60BB70B7B
:10015000811520E89207A105B10538F08FEF9FE7E0
:10016000A0E0B0E0089580E090E00895DC015996A9
:100170008D919C915A97009739F0DC01ED91FC919B
:100180000480F581E02D099480E090E00895CF93FC
:10019000DF931F92CDB7DEB76983DC01ED91FC914F
:1001A0000280F381E02D41E050E0BE016F5F7F4FA0
:1001B00009950F90DF91CF91089520910003309120
:1001C00001032817390771F49091FE028091FF0214
:1001D000981741F0E091FE02F0E0E856FD4F808173
:1001E00090E008958FEF9FEF089508951F93CF93A8
:1001F000DF93DC015C962D913C915D9721153105D3
:1002000039F481E090E013969C938E9312973DC051
:100210005196ED91FC91529750969C915097892F51
:1002200080951FB75E964C915E9741FB772770F9DA
:1002300041FD6095F8944081772311F0492B01C06E
:1002400048234083E9012197F1F748E0508160FF9E
:1002500002C0592B01C058235083E9012197F1F7BF
:100260006695415099F7772321F090818923808307
:1002700003C08081982B90831FBF5C968D919C91C9
:100280005D970197F1F721E030E0C901DF91CF914F
:100290001F91089520910003309101032817390719
:1002A00071F48091FF022091FE0290E08C599F4FE3
:1002B000821B910964E670E00E94EC1C089580E0C6
:1002C00090E0089520910003309101032817390729
:1002D000C9F49091FE028091FF02981799F0E09185
:1002E000FE02F0E0E856FD4F20818091FE0290E092
:1002F000019664E670E00E94EC1C8093FE02822F5F
:1003000090E008958FEF9FEF0895089580E090E0CA
:100310000895FC01818D928D009719F061E00C9495
:100320003E0E0895CF93DF93EC01898D9A8D00974F
:1003300039F481E090E09B838A8380E090E00BC0F9
:10034000FC01138212820E941D0FE98DFA8D228119
:100350003381232B71F7DF91CF910895EF92FF92B4
:100360000F931F93CF93DF93EC017B018A011B82D4
:100370001A8288EE93E0A0E0B0E08C839D83AE8388
:10038000BF838CEC91E0998388838DE190E00E949B
:100390001A1D9A8F898F009779F02DE1F701DC0102
:1003A00001900D922A95E1F74CE050E0B801CE01A2
:1003B0000C960E943C1F188EDF91CF911F910F91D8
:1003C000FF90EF900895CF93DF93EC0161E00E94DE
:1003D0003E0E882311F01D8281E0DF91CF910895B8
:1003E0003F924F925F926F927F928F929F92AF92C5
:1003F000BF92CF92DF92EF92FF920F931F93CF9312
:10040000DF93CDB7DEB72C970FB6F894DEBF0FBEE3
:10041000CDBF5C01DC015B968D909C905C9716963D
:10042000CD90DD90ED90FC901997C114D104E104BA
:10043000F10439F0BFEFCB1ADB0AEB0AFB0A312CCF
:1004400007C0F401C080D180E280F380332433946C
:10045000F40181859285A385B4859C01AD012F5F50
:100460003F4F4F4F5F4F29873A874B875C87260165
:1004700037011D821E821F821886F40181859285B4
:10048000A385B4852D813E814F8158852817390772
:100490004A075B0708F063C089859A85AB85BC85F0
:1004A0008C159D05AE05BF0550F482E0C82ED12CF9
:1004B000E12CF12C92E0492E512C612C712C9E01E3
:1004C0002F5F3F4FB701A601C4010E94E00C8823B3
:1004D00009F445C089819A81AB81BC81892B8A2B23
:1004E0008B2B41F0260137019FEF491A590A690AFF
:1004F000790A05C0C414D504E604F70491F02D81EF
:100500003E814F8158852F5F3F4F4F4F5F4F2D8367
:100510003E834F8358873FEFC31AD30AE30AF30A97
:10052000ACCF0FEF1FEF2FEF3FE0B301A201C401EB
:100530000E94400C882399F0D50116964D915D914B
:100540006D917C911997411551056105710549F02F
:1005500093018201C4010E94400C811102C080E01D
:100560002EC0D50116964D925D926D927C92199790
:10057000332051F0D301C2010196A11DB11DF40138
:1005800080839183A283B383F5018789908DA18DA8
:10059000B28D892B8A2B8B2B69F4D50157964D92FE
:1005A0005D926D927C925A9714968C911497806804
:1005B00014968C93F50184818062848381E02C966B
:1005C0000FB6F894DEBF0FBECDBFDF91CF911F9164
:1005D0000F91FF90EF90DF90CF90BF90AF909F90E2
:1005E0008F907F906F905F904F903F9008958FB75E
:1005F000F8948091FD028FBF089561E0FC01848131
:100600000E94EF0A8091FC0281111092FC02089571
:100610008EBD00000DB407FEFDCF8EB508958FEF9F
:100620000C9408030F931F93CF93DF93EB010E9469
:10063000770B8B010E940F038F3F49F00E94770BCD
:10064000601B710B6C177D07A8F380E001C081E08F
:10065000DF91CF911F910F910895CF93DF93EC011C
:100660008E81882389F08F8198859C012F5F3F4F71
:1006700038872F838230924018F40E940F03F3CF03
:10068000CE010E94FD021E82DF91CF9108958CBDA4
:100690009DBD0895CF93DF93EC018091FC02811101
:1006A00009C081E08093FC028091B1059091B20570
:1006B0000E94470360E08C81DF91CF910C94EF0A98
:1006C000CF92DF92FF920F931F93CF93DF9300D0CF
:1006D00000D0CDB7DEB76C01F62E29833A834B8369
:1006E0005C830E942D03C6010E944A036CE271E004
:1006F000C6010E9412038F2D80640E94080308E146
:1007000010E05C814B813A812981DA01C901002E18
:1007100004C0B695A795979587950A94D2F7298333
:100720003A834B835C830E94080308501109298196
:100730003A814B815C81083F8FEF180731F7FF202A
:1007400029F0E8E0FE1204C087E803C085E901C093
:100750008FEF0E94080310E00E940F03F6018287CA
:1007600087FF04C01F3F11F01F5FF6CF0F900F905F
:100770000F900F90DF91CF911F910F91FF90DF901D
:10078000CF900895AF92BF92CF92DF92EF92FF92F7
:100790000F931F93CF93DF93EC016901C801820F80
:1007A000931F8130924008F070C08E81882371F0D1
:1007B00088819981AA81BB81481759076A077B07FD
:1007C00029F48F819885C816D906B0F548835983D6
:1007D0006A837B838B85833039F089E0440F551F12
:1007E000661F771F8A95D1F79A01AB0161E1CE01AF
:1007F0000E946003882319F083E08D8346C00E9425
:10080000770B5B010E940F038A878F3F49F40E9498
:10081000770B6A197B096D327140A0F38FE003C03A
:100820008E3F31F08DE08D83CE010E94FD022DC000
:1008300018861F8281E08E838F8198858C159D0597
:1008400040F40E940F038F819885019698878F83CB
:10085000F3CF6701E00EF11ECE14DF0431F00E94E9
:100860000F03F60181936F01F7CF8F819885080FF1
:10087000191F18870F838985882319F001151240E5
:1008800048F0CE010E942D0305C0CE010E94FD025A
:1008900080E001C081E0DF91CF911F910F91FF9027
:1008A000EF90DF90CF90BF90AF900895CF92DF92FE
:1008B000EF92FF920F93CF93DF93EC016901411503
:1008C00051056105710511F482E13EC08B858330CD
:1008D00039F089E0440F551F661F771F8A95D1F7BD
:1008E0009A01AB0168E1CE010E946003882311F0F8
:1008F00084E02AC08EEF0E94080376018EEFD81A9A
:10090000F70181917F010E940803EC14FD04C1F7F7
:100910008FEF0E9408038FEF0E9408030E940F03CD
:100920008A878F71853031F081E18D83CE010E94FD
:10093000FD020BC00023D9F068E572E0CE010E94F1
:100940001203811107C085E18D83CE010E94FD0253
:1009500080E014C020E030E0A9016DE0CE010E94EB
:100960006003811109C00E940F03811105C0CE01EF
:100970000E94FD0281E002C084E1E6CFDF91CF91C9
:100980000F91FF90EF90DF90CF9008952F923F92BC
:100990004F925F926F927F928F929F92AF92BF928F
:1009A000CF92DF92EF92FF920F931F93CF93DF933B
:1009B00000D0CDB7DEB7FC018581882309F4D9C00A
:1009C000848180FFD6C021E02A83438954896589C8
:1009D000768982859385A485B585481759076A0766
:1009E0007B0709F41A826F013A81832F90E0DE01C0
:1009F00011964D013F01B6E06B0E711C892B09F475
:100A00007DC0D6011A964D915D916D917C911D9797
:100A10005A01B1E0BB22F60125811A012B0189E0C0
:100A200056944794379427948A95D1F7838D948D63
:100A3000223061F4FC01828D938DA48DB58DBC01B3
:100A4000CD01620D731D841D951D45C0DC011496FA
:100A50001C9111501221A114B104D1F4111118C02C
:100A6000452B462B472B51F4F6018789908DA18D9C
:100A7000B28D86839783A087B1870AC0468157814C
:100A80006085718593010E94E00C882309F471C090
:100A9000F601238D348D86819781A085B1850297DB
:100AA000A109B109AC01BD01F901058404C0440FDD
:100AB000551F661F771F0A94D2F786859785A089F0
:100AC000B189840F951FA61FB71FBC01CD01610F0F
:100AD000711D811D911DD60114962C9126FF14C005
:100AE0000091000110910101209102013091030158
:100AF000601771078207930751F506C0FA81FF233B
:100B0000C1F1898190E037C040E00E94F60B882354
:100B100081F1F501EE5EFC4FD401CF010196E8179B
:100B2000F90719F021912D93FACFEFEF8E1A9E0A53
:100B3000F60182859385A485B5850196A11DB11D19
:100B400082879387A487B58780E090E057CF7401B0
:100B500001E010E09501AB01BC018091120590917C
:100B600013050E94C203882321F0BFEF8B1A9B0A52
:100B7000DFCF8FEF9FEF0F900F90DF91CF911F91FD
:100B80000F91FF90EF90DF90CF90BF90AF909F902C
:100B90008F907F906F905F904F903F902F9008952F
:100BA000FC01818D928D009711F00C94C6048FEF9B
:100BB0009FEF08950F931F93CF93DF93FC01818DD7
:100BC000928D0097B9F0EF010E94C6048C010F3F8F
:100BD0008FEF180791F0898D9A8DFC01428553851E
:100BE0006485758541505109610971090E94870E1C
:100BF000C80105C080E090E002C08FEF9FEFDF9159
:100C0000CF911F910F9108951F920F920FB60F92DF
:100C100011242F933F934F935F936F937F938F9301
:100C20009F93AF93BF93EF93FF93E0910003F091F5
:100C30000103309709F453C0968DA685B785858545
:100C400091FF04C09C91892329F449C09C91892378
:100C500009F045C0A389B4899C9185898095892331
:100C60008C93868997890197F1F7608D718DA685A0
:100C7000B785558538E020E0CB010197F1F7822F49
:100C800090E095958795282F4C91452309F0206891
:100C9000315091F7868D81FD20958091FF0290E083
:100CA000019664E670E00E94EC1C9091FE02981799
:100CB00049F0A091FF02B0E0A856BD4F2C9380935D
:100CC000FF0203C0868D8160868F828D938D019790
:100CD000F1F7A389B4899C918589892B8C93FF9125
:100CE000EF91BF91AF919F918F917F916F915F91A4
:100CF0004F913F912F910F900FBE0F901F9018951D
:100D0000EF92FF920F931F93CF93DF93CDB7DEB790
:100D1000C257D1090FB6F894DEBF0FBECDBF7C011C
:100D20001C821B8200EC11E01A8309831E82CE0113
:100D300001960E94B7138B819C819EAF8DAF1CAF33
:100D40000BAF8D818FAF9E8121969FAF21974F81F1
:100D5000588569857A8525964CAF5DAF6EAF7FAFBC
:100D600025974B855C856D857E8529964CAF5DAF5B
:100D70006EAF7FAF29974F85588969897A892D96FB
:100D80004CAF5DAF6EAF7FAF2D978B892E968FAF37
:100D90002E974C895D896E897F8962964CAF5DAFD5
:100DA0006EAF7FAF6297488D598D6A8D7B8D669649
:100DB0004CAF5DAF6EAF7FAF66972C8D3D8D689663
:100DC0003FAF2EAF689719A218A21F8F0E8F1BA2DC
:100DD000911116C06C961FAE1EAE6C9788EE93E014
:100DE000A0E0B0E0A0968CAF9DAFAEAFBFAFA09734
:100DF000E3961FAE1EAEE397A5961FAEA5975AC009
:100E000027E148E152E0BE01655C7F4FCE014E967E
:100E10000E9423118823F1F2CE01CB960E94E301B8
:100E200049A95AA96BA97CA9CE014E960E94870EAA
:100E300088A199A19C838B831A8309838AA18D83BE
:100E40008BA18E838CA19DA1AEA1BFA18F8398871A
:100E5000A987BA8788A599A5AAA5BBA58B879C87D2
:100E6000AD87BE878CA59DA5AEA5BFA58F87988BA6
:100E7000A98BBA8B88A98B8B89A99AA9ABA9BCA984
:100E80008C8B9D8BAE8BBF8B8DA99EA9AFA9B8AD66
:100E9000888F998FAA8FBB8F89AD9AAD9D8F8C8FCC
:100EA00048E152E0BE016F5F7F4FCE01885A9F4FED
:100EB0000E94AE016C968EAD9FAD6C97909311061B
:100EC00080931006A0968CAD9DADAEADBFADA09742
:100ED0008093120690931306A0931406B093150600
:100EE000A4968CAD9DADAEADBFADA4978093160614
:100EF00090931706A0931806B09319069DE0E8E5B5
:100F0000F0E0EC0FFD1F3C96AAE1B6E001900D92D7
:100F10009A95E1F7E396EEADFFADE397F0932806DF
:100F2000E0932706309749F08581882331F0B70197
:100F30008EE096E00E94F41604C08AE092E00E94DF
:100F40000B138091270690912806009761F00E946C
:100F5000E30180912706909128060E94AF1D109210
:100F6000280610922706CE58DF4F0FB6F894DEBF42
:100F70000FBECDBFDF91CF911F910F91FF90EF90EA
:100F80000895CF92DF92EF92FF920F931F93CF932A
:100F9000DF93CDB7DEB768970FB6F894DEBF0FBE0C
:100FA000CDBF7C016B01142F66E972E00E94D4165C
:100FB00026E030E042E050E0B601CE0143960E94C8
:100FC0003D16E12FF0E0EE0FFF1FE657FE4F608168
:100FD0007181CE010D960E94D41622E030E040E0EF
:100FE00050E0B601CE0101960E943D16BE016F5F32
:100FF0007F4FCE0107960E94CB16CE0107960E9426
:10100000E1158C0149895A896D857E850E943A15C2
:10101000811103C0C8010E94CF15C8010E94E115CB
:101020008C014F89588D6B897C890E943A158111FA
:1010300003C0C8010E94CF15B801C7010E948316E2
:10104000CE0107960E949A16CE0101960E949A162A
:10105000CE010D960E949A16CE0143960E949A16D2
:10106000B70184E195E00E94F416C70168960FB6B7
:10107000F894DEBF0FBECDBFDF91CF911F910F91CE
:10108000FF90EF90DF90CF900895CF92DF92EF9294
:10109000FF920F931F93CF93DF93CDB7DEB7C8585E
:1010A000D1090FB6F894DEBF0FBECDBF24E030E00B
:1010B000CF57DF4F39832883C158D04025E030E037
:1010C000CD57DF4F39832883C358D04026E030E026
:1010D000CB57DF4F39832883C558D04027E030E015
:1010E000C957DF4F39832883C758D04020E8EAE04A
:1010F000F1E0DE01119601900D922A95E1F78E0143
:101100000F571F4F6C0183E0CC0CDD1C8A95E1F773
:10111000E12CF12CF80180810E5F1F4FF701EC0DDF
:10112000FD1D21E030E02C0F3D1FE20FF31F608119
:101130000E94EF0A32E0E30EF11C88E0E816F104A9
:1011400049F7C857DF4F0FB6F894DEBF0FBECDBFCB
:10115000DF91CF911F910F91FF90EF90DF90CF9093
:1011600008954F925F926F927F928F929F92AF926B
:10117000BF92CF92DF92EF92FF920F931F93CF9384
:10118000DF93CDB7DEB72C970FB6F894DEBF0FBE56
:10119000CDBF7C011F8266E972E0CE0101960E94FC
:1011A000D4168091290690912A06DC01ED91FC91DC
:1011B0000084F185E02D0995181619060CF095C0EC
:1011C000C0902906D0902A068E01095F1F4F5E014C
:1011D000BDE0AB0EB11C902E812E0E94770BF60164
:1011E0006087718782879387D601ED91FC91028495
:1011F000F385E02DC601099597FD0FC08A32910550
:1012000019F5692D782DCE0101960E942616C98008
:10121000DA80C114D104F9F45AC00E94770BF601A8
:101220004084518462847384DC01CB018419950964
:10123000A609B70944805580668077808415950596
:10124000A605B70588F2DDCFD8018D938D01AA15CB
:10125000BB0519F6D6CF0D811E8101151105B9F117
:1012600046015401BFEF8B1A9B0AF5018081082EBD
:10127000000C990B0E948F1C892B99F701501109C2
:101280000C0D1D1DD8018C91082E000C990B0E948D
:101290008F1C892B79F4A8014F5F5F4F4A195B09B6
:1012A0005E834D83CA14DB0458F4B501C6010E9465
:1012B000231F06C00A151B0570F301501109E2CF68
:1012C000E981FA818D819E81E80FF91F1082F70173
:1012D000118210821382128215821482BE016F5F06
:1012E0007F4FC7010E94961505C066E972E0C701ED
:1012F0000E94D416CE0101960E949A16C7012C9620
:101300000FB6F894DEBF0FBECDBFDF91CF911F9116
:101310000F91FF90EF90DF90CF90BF90AF909F9094
:101320008F907F906F905F904F90089584E195E04B
:101330000E94290A21E0892B09F420E0822F0895D8
:101340001F920F920FB60F9211242F933F934F933A
:101350005F936F937F938F939F93AF93BF93EF931D
:10136000FF9384E195E00E94650AFF91EF91BF91A0
:10137000AF919F918F917F916F915F914F913F912D
:101380002F910F900FBE0F901F9018951F920F92E4
:101390000FB60F9211242F938F939F93EF93FF9388
:1013A000E0912405F09125058081E0912A05F091D6
:1013B0002B0582FD12C0908180912D058F5F8F7368
:1013C00020912E05821751F0E0912D05F0E0EC5EA2
:1013D000FA4F958F80932D0501C08081FF91EF9189
:1013E0009F918F912F910F900FBE0F901F90189586
:1013F000FC01538D448D252F30E0842F90E0821B1B
:10140000930B541710F0CF96089501970895FC019F
:10141000918D828D981761F0828DDF01A80FB11D2B
:101420005D968C91928D9F5F9F73928F90E008954F
:101430008FEF9FEF0895FC01918D828D981731F009
:10144000828DE80FF11D858D90E008958FEF9FEF5D
:101450000895FC01918D228D892F90E0805C9F4F33
:10146000821B91098F739927089580E090E0892B62
:1014700029F00E94960981110C94000008950E94A1
:10148000111F0F93409105035091060360910703CC
:1014900070910803411551056105710599F0082FF8
:1014A00022E133E080911205909113050E945604C9
:1014B000882349F010920503109206031092070347
:1014C0001092080381E00F910895FC01848DDF01E3
:1014D000A80FB11DA35ABF4F2C91848D90E00196A7
:1014E0008F739927848FA689B7892C93A089B18996
:1014F0008C9180648C93938D848D981306C00288A0
:10150000F389E02D80818F7D80830895EF92FF9293
:101510000F931F93CF93DF93EC0181E0888F9B8D16
:101520008C8D981305C0E889F989808185FD24C0D8
:10153000F62E0B8D10E00F5F1F4F0F731127E02E5B
:101540008C8DE8120CC00FB607FCFACFE889F98938
:10155000808185FFF5CFCE010E94650AF1CF8B8D8A
:10156000FE01E80FF11DE35AFF4FF0820B8FEA896D
:10157000FB898081806207C0EE89FF896083E889EA
:10158000F98980818064808381E090E0DF91CF9150
:101590001F910F91FF90EF900895CF93DF93EC018F
:1015A000888D8823C9F0EA89FB89808185FD05C083
:1015B000A889B9898C9186FD0FC00FB607FCF5CFBD
:1015C000808185FFF2CFA889B9898C9185FFEDCF05
:1015D000CE010E94650AE7CFDF91CF91089590E098
:1015E000FC01EE57FF4F3491FC01E254FF4F249170
:1015F000FC01E655FF4FE491EE2309F43BC0332391
:1016000039F1333091F038F43130A9F0323001F54E
:1016100084B58F7D12C0373091F03830A1F034306E
:10162000B9F4809180008F7D03C0809180008F7716
:10163000809380000DC084B58F7784BD09C08091F0
:10164000B0008F7703C08091B0008F7D8093B00091
:10165000F0E0EE0FFF1FEA56FF4FA591B4918FB750
:10166000F894EC91611103C020952E2301C02E2B1C
:101670002C938FBF0895CF93DF9390E0FC01E25449
:10168000FF4F2491FC01E655FF4F8491882361F1BF
:1016900090E0880F991FFC01E859FF4FC591D49144
:1016A000FC01EA56FF4FA591B491611109C09FB7A3
:1016B000F8948881209582238883EC912E230BC097
:1016C000623061F49FB7F8943881822F809583232C
:1016D0008883EC912E2B2C939FBF06C08FB7F89474
:1016E000E8812E2B28838FBFDF91CF9108952FB7EC
:1016F000F89460910E0370910F0380911003909104
:1017000011032FBF08951F920F920FB60F9211244D
:101710002F933F938F939F93AF93BF9380910E032B
:1017200090910F03A0911003B091110330910D031C
:1017300023E0230F2D3720F40196A11DB11D05C014
:1017400026E8230F0296A11DB11D20930D0380935F
:101750000E0390930F03A0931003B0931103809195
:10176000090390910A03A0910B03B0910C03019619
:10177000A11DB11D8093090390930A03A0930B034D
:10178000B0930C03BF91AF919F918F913F912F9197
:101790000F900FBE0F901F9018950F93CF939091BD
:1017A00004039923F9F0C82F4091000150910101E1
:1017B0006091020170910301082F22E133E08091D2
:1017C0001205909113050E945604811102C080E019
:1017D0000AC0CC2339F08C2F0E94410A8823B9F328
:1017E0001092040381E0CF910F9108958F929F9200
:1017F000AF92BF92EF92FF920F931F93CF934B0143
:101800005C01C42F8091000190910101A09102011F
:10181000B091030188159905AA05BB0509F181E07E
:101820000E94CD0B811102C080E020C082E1E82E31
:1018300083E0F82E00E012E020E030E0B501A401E2
:1018400080911205909113050E94C203882361F3D1
:101850008092000190920101A0920201B0920301D6
:1018600080910403C82BC093040381E0CF911F91A2
:101870000F91FF90EF90BF90AF909F908F90089541
:101880004F925F926F927F928F929F92AF92BF9290
:10189000CF92DF92EF92FF920F931F93CF93DF933C
:1018A000EC016A017B0128013901423051056105D3
:1018B000710510F480E073C089859A85AB85BC857D
:1018C0000196A11DB11D84179507A607B70790F3D0
:1018D0008B889C88AD88BE888F89803129F4BB278E
:1018E000AF2D9E2D8D2D09C0DB01CA0147E0B695B5
:1018F000A795979587954A95D1F7880E991EAA1EA8
:10190000BB1E8091000190910101A0910201B09154
:10191000030188169906AA06BB0679F48F898031DF
:10192000A1F4DD24EE24FF24C601880F991FFC01D9
:10193000EE5EFC4F5182408219C040E0C501B40107
:101940000E94F60B8111EACFB5CFE894C7F8DD24E9
:10195000EE24FF24C601880F991F880F991FFC01F0
:10196000EE5EFC4F4082518262827382809104035A
:101970008160809304038A89823080F08D819E810A
:10198000AF81B885880E991EAA1EBB1E80920503E2
:1019900090920603A0920703B092080381E0DF91C2
:1019A000CF911F910F91FF90EF90DF90CF90BF905C
:1019B000AF909F908F907F906F905F904F90089521
:1019C0008F929F92AF92BF92CF92DF92EF92FF924F
:1019D0000F931F93CF93DF93FC0181859285A3859D
:1019E000B4850196A11DB11D84179507A607B707F9
:1019F00010F480E05CC083899489A589B689C78981
:101A0000C03129F4852E962EA72EBB2409C04A0189
:101A10005B01C7E0B694A79497948794CA95D1F7D1
:101A2000E9016A017B018F01BC01CD01680D791DBF
:101A30008A1D9B1D8090000190900101A0900201E1
:101A4000B0900301681579058A059B0599F4F801A2
:101A500087898031A9F4B701A60155276627772722
:101A6000440F551FFA01EE5EFC4F80819181A0E08A
:101A7000B0E018C040E00E94F60B8111E8CFB9CF6A
:101A8000B701A6014F77552766277727440F551FC3
:101A9000440F551FFA01EE5EFC4F80819181A281B7
:101AA000B381BF7088839983AA83BB8381E0DF9170
:101AB000CF911F910F91FF90EF90DF90CF90BF904B
:101AC000AF909F908F9008954F925F926F927F9208
:101AD000AF92BF92CF92DF92EF92FF920F931F933C
:101AE000CF93DF9300D000D0CDB7DEB78C01498310
:101AF0005A836B837C835901C12CD12C7601412CF4
:101B000082E0582E612C712C49815A816B817C8135
:101B10009E012F5F3F4FC8010E94E00C882351F1C6
:101B2000D301C201F801058404C0880F991FAA1FC0
:101B3000BB1F0A94D2F7C80ED91EEA1EFB1E4981AC
:101B40005A816B817C818789803129F088EF9FEFF2
:101B5000AFEFBFE004C088EF9FEFA0E0B0E0481710
:101B600059076A077B0780F2F501C082D182E282C1
:101B7000F38281E00F900F900F900F90DF91CF9143
:101B80001F910F91FF90EF90DF90CF90BF90AF909B
:101B90007F906F905F904F9008951F93CF93DF9346
:101BA000EC0180E2689FF00111249F012E5E3C4F02
:101BB000D9011B969C91917129F0842F827411F0A8
:101BC00080E058C0142F6A8B809100019091010130
:101BD000A0910201B09103018E879F87A88BB98BDA
:101BE000EE5EFC4F4489558960E070E0BA015527EC
:101BF00044274F8B588F698F7A8F828D938DA0E009
:101C0000B0E0482B592B6A2B7B2B4F8B588F698F59
:101C10007A8FD9011B968C91887151F4848D958DA2
:101C2000A68DB78D8B8B9C8BAD8BBE8B81E00DC051
:101C3000803131F69E012D5E3F4F8B8D9C8D0E9431
:101C4000640D882309F4BCCF84E08D83812F8F70CD
:101C50008C831E821F82188619861A861B861C8614
:101C60001D8616FF06C0CE01DF91CF911F910C9407
:101C7000291381E0DF91CF911F9108951F93CF9396
:101C8000DF93FC0125812223E9F1162FEC018481E9
:101C900087FF2DC0668577858089918941E00E9404
:101CA000F60B882379F1EA8980E2E89FF00111249C
:101CB000DF01AE5EBC4F109729F18D81823050F468
:101CC0004B895C896D897E895C964D935D936D939C
:101CD0007C935F978F89988DA98DBA8DEE5EFC4FAE
:101CE000938F828FB58BA48B8C818F778C8311110E
:101CF00003C08C818F7E8C83812FDF91CF911F91C8
:101D00000C94CD0B80E0DF91CF911F9108958F92BD
:101D10009F92AF92BF92CF92DF92EF92FF920F937A
:101D20001F93CF93DF93EC018D81811102C080E07E
:101D300077C00B891C892D893E8904171507260752
:101D40003707A8F36A017B01823029F4CA86DB8653
:101D5000EC86FD860DC0C114D104E104F10451F4F8
:101D60001E821F82188619861A861B861C861D866F
:101D700081E056C08A849B84AC84BD84EB8DFC8D4D
:101D8000258530E0275F3F4FB501A401415051093F
:101D900061097109022E04C076956795579547959C
:101DA0000A94D2F7D701C6010197A109B10904C06D
:101DB000B695A795979587952A95D2F78417950795
:101DC000A607B70720F089288A288B2849F44F896D
:101DD000588D698D7A8D4E835F836887798704C0BB
:101DE000841B950BA60BB70B4C015D018E010A5F9E
:101DF0001F4F81149104A104B10409F4A7CF4E81AF
:101E00005F816885798598018B8D9C8D0E94E00C9F
:101E100091E0891A9108A108B1088111EACF87CF12
:101E2000DF91CF911F910F91FF90EF90DF90CF90B6
:101E3000BF90AF909F908F9008952F923F924F92B6
:101E40005F926F927F928F929F92AF92BF92CF924A
:101E5000DF92EF92FF920F931F93CF93DF9300D007
:101E600000D01F92CDB7DEB77C015B013A01DC01E7
:101E700014961C91149715968C918130B9F411FF2A
:101E800015C012FF1BC0F701438954896589768903
:101E900082859385A485B58584179507A607B7071E
:101EA00069F0C7010E94870E811108C081E090E0AF
:101EB000F7019383828380E090E03EC16301129535
:101EC0001F70109511701D8381C0D7015B968D9195
:101ED0009C915C97FC0154805A94B901A80129E0B7
:101EE00076956795579547952A95D1F754221170A5
:101EF000552009F477C080E092E0801B910B4601E9
:101F00008C159D0508F44C01D7015B962D913C91F1
:101F10005C9716968D919D910D90BC91A02D029786
:101F2000A109B109F901058404C0880F991FAA1FEE
:101F3000BB1F0A94D2F74685578560897189840F43
:101F4000951FA61FB71F9C01AD01250D311D411D19
:101F5000511D19012A01811432E0930609F089C04C
:101F60008091000190910101A0910201B0910301C3
:101F700082159305A405B50559F48FEF9FEFDC0199
:101F80008093000190930101A0930201B09303019B
:101F90000D819501B201A101809112059091130567
:101FA0000E945604882309F481CF9EEFB91AC818FD
:101FB000D908F70182859385A485B585880D991D7B
:101FC000A11DB11D82879387A487B587D7011A9673
:101FD0000D911D912D913C911D97C114D10409F0D3
:101FE00074CF88C00115110509F085CF16964D9163
:101FF0005D916D917C9119974115510561057105B0
:1020000059F457968D919D910D90BC91A02D0097FC
:10201000A105B10541F521C09E012F5F3F4F0E94F0
:10202000E00C882309F448CF89819A81AB81BC8177
:10203000F701238D348DF9012789203129F048EFEC
:102040005FEF6FEF7FE004C048EF5FEF60E070E0AC
:1020500084179507A607B70730F0C7010E94F00163
:10206000811149CF23CFF70186839783A087B1875A
:1020700042CF0115110531F5D7011A964D915D91A9
:102080006D917C911D9753968D919D910D90BC9172
:10209000A02D481759076A077B07A0F081E00E942E
:1020A000CD0B882309F402CF209200013092010168
:1020B0004092020150920301809104038160809359
:1020C000040308C041E0C201B1010E94F60B88235D
:1020D00009F4ECCED501F801EE5EFC4FCF01880D7E
:1020E000991DE817F90719F02D912193FACFA80C43
:1020F000B91C5DCF53968D919D910D90BC91A02DF3
:1021000080179107A207B30740F4F701038B148BE4
:10211000258B368B848180688483D70114968C91BB
:1021200083FD02C0C30108C061E0C7010E943E0EEA
:10213000882309F4BBCEF6CF0F900F900F900F902D
:102140000F90DF91CF911F910F91FF90EF90DF9053
:10215000CF90BF90AF909F908F907F906F905F9047
:102160004F903F902F900895CF93DF931F92CDB75C
:10217000DEB7698341E050E0BE016F5F7F4F0E9490
:102180001D0F0F90DF91CF910895FF920F931F9332
:10219000CF93DF93EC018D81813011F58C8181FF2C
:1021A0001FC082FF0DC04B895C896D897E898A853D
:1021B0009B85AC85BD8584179507A607B70799F45D
:1021C0000091120510911305C8010E944A030E9454
:1021D0000F03F82EC8010E94FD028FEFF81649F098
:1021E00080E090E02AC0CE010E94870E8111E8CFE6
:1021F000F7CF8C8185FF08C060E0CE010E943E0EC3
:102200008C818F7D8C83ECCF409105035091060328
:102210006091070370910803452B462B472B21F053
:1022200080E00E94410ADCCF80618C832A853B8557
:10223000317080E092E0821B930BDF91CF911F9170
:102240000F91FF9008954F925F926F927F929F92AD
:10225000AF92BF92CF92DF92EF92FF920F931F93B4
:10226000CF93DF93CDB7DEB72B970FB6F894DEBFD1
:102270000FBECDBF7C01DC011596AC90A1108CC1C6
:10228000FE0131966F0190E28BE08E0F91938E13D9
:10229000FDCFDA0130E087E09D91992339F19E323C
:1022A00019F0E2E7F0E00AC08A3009F476C138E0BC
:1022B0008AE0F2CF3196491709F46FC14491411178
:1022C000F9CF831708F469C14FED490F4E3508F077
:1022D00064C141E0430FF601E30FF11D3FE9390FFF
:1022E0003A3108F490529083342FD6CF89818032CE
:1022F00009F453C1B22E8B01DB015B968D919C9149
:102300005C97F701948F838F16961D921D921D92F4
:102310001C921997FB011286138614861586712C60
:10232000F80182859385A485B5854389548965899B
:10233000768984179507A607B70708F061C025E0DE
:10234000B695A795979587952A95D1F7F82FFF70A1
:102350006F2ED80115968C91823008F41EC1C801E9
:102360000E94C60497FD19C1F80182859385A48552
:10237000B5854F96A11DB11D82879387A487B58728
:10238000F0E26F9EC0011124BC016E5E7C4F6115AE
:10239000710509F402C1DB012C91222319F0253EBD
:1023A000C1F427C071100EC0F701628A409100018C
:1023B0005091010160910201709103014687578796
:1023C000608B718BFC01EE5EFC4F8081811113C02C
:1023D00015C04BE050E0C6010E94161F892B09F082
:1023E0009FCF8B2D8073803309F4D7C04B2D662D82
:1023F000CEC07720C9F27724739492CF7724739458
:102400008B2D8271823109F0C8C07720D1F0D701BD
:102410001E966D917D918D919C91519741E00E9406
:10242000F60B882309F4B9C0F7016289F0E26F9FC7
:10243000B00111246E5E7C4F6115710509F07AC000
:10244000ACC0D80115968C91823009F4A6C0C801A1
:102450000E94F001882309F4A0C0D8015B96ED9199
:10246000FC915C9716964D905D906D907C901997BD
:10247000B2E04B1A510861087108058404C0440C8D
:10248000551C661C771C0A94D2F786859785A0890F
:10249000B189480E591E6A1E7B1E9480E1E04E1AD7
:1024A000510861087108992011F181E00E94CD0B5B
:1024B000882309F472C0E2E1F3E0119225E0E231F1
:1024C000F207D9F7D301C201890D911DA11DB11DDC
:1024D0008093000190930101A0930201B093030146
:1024E000809104038160809304039A94DCCFD80127
:1024F0005B96ED91FC915C9780E092E0A0E0B0E00B
:10250000058404C0880F991FAA1FBB1F0A94D2F725
:10251000F8014389548965897689840F951FA61F20
:10252000B71F838B948BA58BB68BD70152961C92C9
:1025300062E173E080E2FB0111928A95E9F78BE09A
:10254000F601DB0101900D928A95E1F781E298E2B4
:10255000DB0151969C938E93509720E038E01F96B4
:102560003C932E931E9753969C938E935297599615
:102570009C938E93589757963C932E93569781E051
:102580000E94CD0B882349F04B2DF7016289C701CA
:102590000E94CD0DA82E01C0A12C8A2D2B960FB61E
:1025A000F894DEBF0FBECDBFDF91CF911F910F9189
:1025B000FF90EF90DF90CF90BF90AF909F907F9073
:1025C0006F905F904F9008950F931F93CF93DF9379
:1025D000EC0188819981009729F02A813B81261797
:1025E000370788F48B016F5F7F4F0E94471E00976B
:1025F00061F0998388831B830A832C813D81232B7F
:1026000011F4FC01108281E001C080E0DF91CF91E4
:102610001F910F910895CF93DF93009779F0FC01FC
:1026200001900020E9F73197AF01481B590BBC011D
:1026300084E195E00E94A016EC0102C0C0E0D0E069
:1026400084E195E00E94E9168C0F9D1FDF91CF91E8
:1026500008958F929F92AF92BF92CF92DF92EF92A6
:10266000FF920F931F93CF93DF9300D000D0CDB78D
:10267000DEB7FC018581813079F5948191FF2CC012
:102680004389548965897689452B462B472B09F464
:102690005DC07F0140E050E0BA01CF010E94870E8B
:1026A0008823D1F0F7018788908CA18CB28CC38CE1
:1026B000D48C82E090E0A0E0B0E0F60180839183CA
:1026C000A283B3839E012F5F3F4FB501A401C601D2
:1026D0000E94E00C811102C080E038C000E010E0F0
:1026E0009801B501A401C6010E94400C8823A1F302
:1026F00089809A80AB80BC80F6018789803129F07F
:1027000088EF9FEFAFEFBFE004C088EF9FEFA0E03E
:10271000B0E088169906AA06BB06A0F2F701178A50
:10272000108E118E128E138A148A158A168A84814D
:102730008068848361E0C7010E943E0E882361F2B5
:1027400040E050E0BA01C7010E94870E0F900F9041
:102750000F900F90DF91CF911F910F91FF90EF900D
:10276000DF90CF90BF90AF909F908F900895CF93C0
:10277000DF93FC012581222311F080E049C0EC01A8
:102780008091D6058031C1F482E08583178A108E4E
:10279000118E128E8091D7059091D805A0E0B0E0FF
:1027A00025E0880F991FAA1FBB1F2A95D1F7838B9D
:1027B000948BA58BB68B19C08032F9F683E08583A4
:1027C0004091D9055091DA056091DB057091DC05E7
:1027D000478B508F618F728F9F012D5E3F4F8FEB24
:1027E00095E00E94640D882341F28FEB95E09C8F69
:1027F0008B8F81E08C831E821F82188619861A8631
:102800001B861C861D861E861F86188A198A1A8AB0
:10281000DF91CF9108958F929F92AF92BF92CF9206
:10282000DF92EF92FF92CF93DF93C82F83EB95E077
:102830009093130580931205CC2369F1C53010F0F5
:1028400080E00DC140E060E070E0CB010E94F60B3B
:102850008823B1F320E1C29FC00111248E5F9C4FF9
:10286000FC01E254FE4F20812F7751F73C964081C6
:10287000518162817381443651056105710500F310
:102880003497C080D180E280F380C114D104E10488
:10289000F10421F4D5CFC12CD12C760140E0C70141
:1028A000B6010E94F60B882359F280911D03909186
:1028B0001E038115924021F6A0912203AA2309F458
:1028C000BFCF60912003709121036115710509F458
:1028D000B7CF20911F03222309F4B2CFA093D105D3
:1028E0002093C30580E030E0E1E0F0E0C82FAF01C5
:1028F000082E02C0440F551F0A94E2F7241735072B
:1029000041F0982F8F5F983089F789E08093CC054C
:1029100097CF8093CC05209128033091290321156E
:10292000310519F040E050E008C0209136033091A5
:10293000370340913803509139032093C4053093F5
:10294000C5054093C6055093C70546015701860E3D
:10295000971EA11CB11C8092D2059092D305A09223
:10296000D405B092D505E0912303F0912403F093B0
:10297000D805E093D705B0E00E949B1C860E971EF9
:10298000A81EB91E8092D9059092DA05A092DB05A7
:10299000B092DC0585E0EE0FFF1F8A95E1F7E1506C
:1029A000FE4FEF2FFF27E6958E0E9F1EA11CB11C38
:1029B0008092CD059092CE05A092CF05B092D00521
:1029C00020912503309126032115310521F0A9011D
:1029D00060E070E008C04091320350913303609191
:1029E000340370913503D701C60188199909AA09E2
:1029F000BB09840F951FA61FB71F04C0B695A795E6
:102A000097958795CA95D2F78093C8059093C90585
:102A1000A093CA05B093CB05853F2FE09207A1058F
:102A2000B10510F48CE018C0853F9F4FA105B1059A
:102A300010F480E111C080913E0390913F03A0917A
:102A40004003B09141038093D9059093DA05A09398
:102A5000DB05B093DC0580E28093D60581E0DF9151
:102A6000CF91FF90EF90DF90CF90BF90AF909F906D
:102A70008F900895EF92FF920F931F93CF93DF9360
:102A8000FC01248135816115710511F480E019C0C4
:102A900041155105A9F07B01EC018A01020F131FBA
:102AA000B8010E94E412882389F3288139818C813E
:102AB0009D81B701820F931F0E94351F1D830C83D8
:102AC00081E0DF91CF911F910F91FF90EF900895DA
:102AD000E0910806F0910906DC016D917C91309738
:102AE00019F061157105E1F46115710571F0DC01F2
:102AF00014968D919C911597892B39F0FB0180815B
:102B000090E09195819591090895309761F08091B9
:102B10000C0690910D06892B31F0808190E008958C
:102B2000CF010C942C1F80E090E008950F931F9329
:102B3000CF93DF938C01EB01FC01808191810097A1
:102B4000B1F0688179816115710579F04281538115
:102B50002C813D814217530740F00E94351F8C8124
:102B60009D81F8019583848313C00E94AF1D8881E5
:102B70009981F801918380838A819B8193838283E9
:102B80008C819D8195838483198218821B821A828D
:102B90001D821C82DF91CF911F910F910895CF93D9
:102BA000DF93EC0188819981009711F00E94AF1D9D
:102BB000198218821D821C821B821A82DF91CF919A
:102BC00008950F931F93CF93DF93EC010C811D8128
:102BD0000F5F1F4FB8010E94E412882369F028811B
:102BE00039818C819D8162E972E0820F931F0E947E
:102BF000351F1D830C8303C0CE010E94CF15CE016B
:102C0000DF91CF911F910F910895EF92FF920F9353
:102C10001F93CF93DF93EC017B018A01BA010E94DD
:102C2000E412811104C0CE010E94CF1507C01D839C
:102C30000C83B701888199810E94351FCE01DF91F5
:102C4000CF911F910F91FF90EF900895CF93DF9355
:102C5000EC016115710559F0FB0101900020E9F7C5
:102C60003197AF01461B570B0E94051602C00E9408
:102C7000CF15CE01DF91CF910895BF92CF92DF9211
:102C8000EF92FF920F931F93CF93DF937C016B0121
:102C90008A01E9012417350720F4812F8901C42F07
:102CA000D82F66E972E0C7010E94D416D6011496A7
:102CB0008D919C91159708171907D0F48C179D07D3
:102CC00008F4EC01D601ED91FC911197EC0FFD1F7A
:102CD000B08010824D915C91BA01600F711FC701E5
:102CE0000E942616D601ED91FC91EC0FFD1FB082DB
:102CF000C701DF91CF911F910F91FF90EF90DF906F
:102D0000CF90BF900895CF93DF93EC01FB0186171E
:102D1000970761F0608171816115710529F0448127
:102D200055810E94051602C00E94CF15CE01DF9189
:102D3000CF910895FC01808191810C94AF1D08957D
:102D4000CF92DF92EF92FF920F931F93CF93DF9377
:102D50006C017A018B01C0E0D0E0CE15DF0589F06F
:102D6000D8016D918D01D601ED91FC910190F0811A
:102D7000E02DC6010995892B11F47E0102C0219630
:102D8000ECCFC701DF91CF911F910F91FF90EF9092
:102D9000DF90CF900895FC0111821082138212827D
:102DA000158214820C948316FC0111821082138206
:102DB0001282158214826115710551F0FB01019098
:102DC0000020E9F73197AF01461B570B0C9405160D
:102DD0000895DC01ED91FC910280F381E02D42E049
:102DE00050E064E972E009940F931F93CF93DF934F
:102DF000EC01E881F981DB0114964D915C91159706
:102E00006D917C910280F381E02D09958C01CE01BA
:102E10000E94E916800F911FDF91CF911F910F91B2
:102E200008958CEF95E00E949A1682E096E00E9449
:102E30009A1688E096E00C949A16CF93DF93CDB75C
:102E4000DEB7C556D1090FB6F894DEBF0FBECDBFB1
:102E5000789484B5826084BD84B5816084BD85B575
:102E6000826085BD85B5816085BD80916E00816081
:102E700080936E0010928100809181008260809327
:102E80008100809181008160809381008091800029
:102E90008160809380008091B10084608093B10054
:102EA0008091B00081608093B00080917A0084604E
:102EB00080937A0080917A00826080937A0080917A
:102EC0007A00816080937A0080917A008068809394
:102ED0007A001092C1001092030361E084E00E9426
:102EE0003B0B61E085E00E943B0B61E086E00E94C5
:102EF0003B0B61E087E00E943B0B60E084E00E94B6
:102F0000EF0A60E085E00E94EF0A60E086E00E9440
:102F1000EF0A60E087E00E94EF0AE0912405F0915B
:102F2000250582E08083E0912005F0912105108243
:102F3000E0912205F09123058FEC808310922C05FF
:102F4000E0912805F091290586E08083E09126052F
:102F5000F0912705808180618083E0912605F091C2
:102F60002705808188608083E0912605F091270500
:102F7000808180688083E0912605F091270580811B
:102F80008F7D8083E0912906F0912A06138E128EA0
:102F9000118E108E178A168A87E09AE1958F848F9A
:102FA0008485863108F04DC022EF3CE0378B268BBC
:102FB00025E03AE1318F208F2BE733E1338F228FE9
:102FC00090916800883050F021E08E3008F420E0C5
:102FD00081E001C0880F2A95EAF701C084E0892BBF
:102FE000809368009485983038F09E3040F0963198
:102FF00048F020E030E008C02DE630E005C02BE6C8
:1030000030E002C02CE630E0348B238B983030F473
:1030100081E001C0880F9A95EAF70EC0292F30E0B1
:103020009E3018F42850310902C02E50310981E039
:1030300001C0880F2A95EAF7858B848D958D0197BD
:10304000F1F7828D938D892B49F1409100035091C6
:1030500001034E175F0711F14115510571F0DA01B7
:1030600053962D913C915497D9019C91DA01559634
:103070008C9180958923D9018C93868D8E7F868F44
:103080001092FF021092FE02F0930103E0930003FE
:10309000A389B4899C918589892B8C938091E205C1
:1030A000882321F08DED95E00E94E3011092BE058A
:1030B0001092BC051092B9051092B8058AE0809371
:1030C000B7050E94770B8B0161E08091B7050E94E4
:1030D0003B0B61E08091B7050E94EF0AFFB6F894C0
:1030E00080910203811127C0E4EBF0E08491E8ECC9
:1030F000F0E09491E82FF0E0EE0FFF1FE859FF4F4A
:10310000A591B491EC91E92321F461E08AE00E9459
:10311000EF0A61E08AE00E943B0B8CB580618CBDB8
:103120008CB580648CBD61E08DE00E943B0B61E05A
:103130008BE00E943B0B809102038F5F8093020320
:10314000FFBE82E58093B1051092B2058091B10572
:103150009091B2050E9447032AE0F22E8FEF0E9461
:103160000803FA94F110FACF83EB95E00E944A032A
:1031700020E030E0A90160E083EB95E00E9460036D
:10318000F82E8093BD0521E0821749F00E94770B4D
:10319000601B710B613D774058F381E056C02AEA0D
:1031A00031E040E050E068E083EB95E00E9460038E
:1031B00082FF03C0F092BE0510C094E0F92E0E9479
:1031C0000F038093BD05FA94F110F9CF8A3A11F0FC
:1031D00082E03BC082E08093BE058091BE058230D4
:1031E00021F0C12CD12C760105C0C12CD12CE12CB1
:1031F00080E4F82E20E030E0A90167E383EB95E05E
:103200000E946003A701960169E283EB95E00E94AA
:1032100060038093BD05882349F00E94770B601BF3
:10322000710B613D774030F388E00FC08091BE059F
:10323000823001F520E030E0A9016AE383EB95E0FC
:103240000E946003882341F086E08093B80583EBF9
:1032500095E00E94FD02D5C00E940F03807C803C57
:1032600019F483E08093BE050E940F030E940F03B0
:103270000E940F0383EB95E00E94FD0280E580939E
:10328000B1051092B20581E00E940B14882311F160
:103290008DED95E00E94B713882309F4B2C08BE549
:1032A00092E00E940B131EAE1DAE80EC91E09CAF2D
:1032B0008BAF21961FAE219719A218A29F8F8E8FD8
:1032C0001BA2C12CB12C7E01ABE3EA0EF11C0DED6B
:1032D00015E04CC080E00E940B14882309F491C0D3
:1032E000D7CFFE01E85AFF4F40E050E0D901A85E79
:1032F000BD4F8C918F3251F0882341F04F5F5F4F6B
:103300002F5F3F4F81934C30510581F7E8E5F0E0A6
:10331000EC0FFD1FE40FF51F1082F901E85EFD4F71
:1033200080818F3211F42F5F3F4FC22EB32EF901EF
:10333000E85EFD4F8081882329F121E0AE01485AE3
:103340005F4FB801C7010E942311D82EA5E00D3DA3
:103350001A0709F0BCC1882309F457C08E01025E28
:103360001F4F902F812F8701E92EF82E2C2D3B2DFA
:10337000F901E85EFD4F80818F3209F0B2CF2F5FF7
:103380003F4FAFCF1C821B8280EC91E09A838983F0
:103390001E8222E0AE01485A5F4FB801CE0101966D
:1033A0000E942311882301F1CE0101960E94291366
:1033B0008823D1F06F85788989899A8941E00E94B4
:1033C000F60B882389F0EB89B0E2EB9FF001112422
:1033D000EE5EFC4F309741F085EE80831E8281E0E7
:1033E0000E94CD0B811105C025E00D3D120729F487
:1033F0000CC085E00D3D180741F0C8010E94E301B3
:1034000004C084E792E00E940B131092030380E053
:1034100090E00E94450866E972E082E096E00E9432
:103420002616CE0101960E94B108BE016F5F7F4F44
:1034300082E096E00E949615CE0101960E949A16AF
:103440008091060690910706892B09F4BAC0E09195
:103450000206F09103068081882309F4B2C022E0BD
:1034600030E040E050E062E076E0CE0101960E945C
:103470003D16CE0101960E9468158C01CE01019681
:103480000E949A16012B09F49CC022E030E040E033
:1034900050E062E076E0CE0101960E943D168D81FB
:1034A0009E81009711F41E8E15C0029718F002E05D
:1034B00010E002C001E010E069817A81A801CE012C
:1034C0004E960E943C1FEEE1F0E0EC0FFD1FE00F76
:1034D000F11F1082CE014E960E94691C182FCE015A
:1034E00001960E949A161150133608F06AC022E025
:1034F00030E040E050E062E076E0CE0101960E94CC
:103500003D16BE016F5F7F4F88E096E00E949615E2
:10351000CE0101960E949A1666E972E08CEF95E062
:103520000E9426164091030362E076E0CE014E969B
:10353000A6964FAFA6970E94CB16A6964FADA6971C
:10354000BE01625E7F4FCE0101960E94C107BE019F
:103550006F5F7F4F8CEF95E00E949615CE0101962C
:103560000E949A16CE014E960E949A166CEF75E054
:10357000CE0101960E94CB16CE0101960E948006D4
:10358000CE0101960E949A160E94770B6B017C0176
:10359000809103038F5F8093030311E00E94770BF8
:1035A000DC01CB018C199D09AE09BF09883E93400F
:1035B000A105B10530F480910303803110F411119D
:1035C00003C00E94350A21CF90E00E94450866E9B9
:1035D00072E082E096E00E942616CE0101960E94DB
:1035E000B108BE016F5F7F4F82E096E00E949615A2
:1035F000CE0101960E949A168091060690910706C8
:10360000892B61F2E0910206F09103068081882304
:1036100029F222E030E040E050E062E076E0CE01C6
:1036200001960E943D16CE0101960E9468155C012C
:10363000CE0101960E949A1610E0AB2809F0AECF99
:1036400066E972E0CE01CB960E94D4164091030346
:1036500062E076E0CE014E96A6964FAFA6970E9406
:10366000CB16A6964FADA697BE01625E7F4FCE01E8
:1036700001960E94C107BE016F5F7F4FCE01CB96BE
:103680000E949615CE0101960E949A16CE014E9682
:103690000E949A16BE01655C7F4FCE0101960E9482
:1036A000CB16CE0101960E948006CE0101960E94A3
:1036B0009A160E94770B6B017C01809103038F5F48
:1036C00080930303CE01CB960E949A1666CFC80161
:1036D0000E94E301D11045CE98CECF92DF92EF92B7
:1036E000FF92CF93DF93109217051092160598EE74
:1036F000C92E93E0D92EE12CF12CC0921805D0925E
:103700001905E0921A05F0921B058EEA91E090935C
:1037100015058093140585EC90E090932105809326
:10372000200584EC90E0909323058093220580ECA3
:1037300090E0909325058093240581EC90E0909390
:1037400027058093260582EC90E0909329058093CD
:10375000280586EC90E090932B0580932A05109223
:103760002D0510922E0510922F051092300580E540
:103770008093B1051092B2051092B8051092B90568
:103780001092BC051092BE0582E090E0A0E0B0E08F
:103790008093BF059093C005A093C105B093C20567
:1037A0001092D6051092E0051092DF0580EC91E0B2
:1037B0009093DE058093DD051092E2058FE190E0A5
:1037C0000E941A1DEC011B821A82CC82DD82EE82DD
:1037D000FF828EED91E0998388831F8A1E8A198E5D
:1037E000188E1B8E1A8E1D8E1C8E6E8D6E7F6D7FB9
:1037F0006E8F6695617081E068278AE00E94EF0A0B
:1038000061E08AE00E943B0BE8ECF0E0E491E88B99
:10381000E4EBF0E0E491F0E0EE0FFF1FEA56FF4F1B
:10382000859194919A8B898B60E083E00E943B0B99
:103830008E8D81FD04C061E083E00E94EF0A83E089
:103840008C87E1ECF0E0E491ED87EDEAF0E0E491C3
:10385000F0E0EE0FFF1FE056FF4F859194919F8798
:103860008E87D0932A06C0932906109211061092D3
:10387000100688EE93E0A0E0B0E0809312069093EB
:103880001306A0931406B09315068CEC91E0909368
:103890000F0680930E0610922806109227061092AB
:1038A0001A0666E972E088E096E00E94D41666E99E
:1038B00072E082E096E00E94D41666E972E08CEF36
:1038C00095E0DF91CF91FF90EF90DF90CF900C9437
:1038D000D416FC0188279927E89421912032E9F336
:1038E000293010F02E30C8F32B3241F02D3239F44C
:1038F000689404C00E94871C820F911D219120535F
:103900002A30C0F31EF4909581959F4F08957AE078
:10391000979F902D879F802D910D112408959111CF
:103920000C94981C803219F089508550C8F708957E
:103930009927882708950E94DD1CA59F900DB49FAC
:10394000900DA49F800D911D112408952F923F92F8
:103950004F925F926F927F928F929F92AF92BF929F
:10396000CF92DF92EF92FF920F931F93CF93DF934B
:10397000CDB7DEB7CA1BDB0B0FB6F894DEBF0FBEA8
:10398000CDBF09942A88398848885F846E847D84F5
:103990008C849B84AA84B984C884DF80EE80FD80F7
:1039A0000C811B81AA81B981CE0FD11D0FB6F8946D
:1039B000DEBF0FBECDBFED010895A29FB001B39F42
:1039C000C001A39F700D811D1124911DB29F700D28
:1039D000811D1124911D089597FB072E16F4009464
:1039E00007D077FD09D00E94001D07FC05D03EF4EA
:1039F000909581959F4F0895709561957F4F08959B
:103A0000AA1BBB1B51E107C0AA1FBB1FA617B70704
:103A100010F0A61BB70B881F991F5A95A9F7809520
:103A20009095BC01CD010895EE0FFF1F0590F49114
:103A3000E02D0994CF93DF938230910510F482E05A
:103A400090E0E0912D06F0912E0620E030E0C0E0FD
:103A5000D0E0309711F14081518148175907C0F0EB
:103A60004817590761F482819381209719F09B834D
:103A70008A832BC090932E0680932D0626C0211595
:103A8000310519F04217530718F49A01BE01DF01FE
:103A9000EF010280F381E02DDCCF2115310509F122
:103AA000281B390B2430310590F412968D919C918E
:103AB00013976115710521F0FB019383828304C084
:103AC00090932E0680932D06FD01329644C0FD0191
:103AD000E20FF31F81939193225031092D933C9370
:103AE0003AC020912B0630912C06232B41F42091D3
:103AF00006013091070130932C0620932B0620916C
:103B00000401309105012115310541F42DB73EB76F
:103B10004091080150910901241B350BE0912B06BF
:103B2000F0912C06E217F307A0F42E1B3F0B281789
:103B3000390778F0AC014E5F5F4F2417350748F026
:103B40004E0F5F1F50932C0640932B068193919349
:103B500002C0E0E0F0E0CF01DF91CF9108950F9334
:103B60001F93CF93DF93009709F48CC0FC01329729
:103B70001382128200912D0610912E060115110557
:103B800081F420813181820F931F20912B06309187
:103B90002C062817390779F5F0932C06E0932B06AD
:103BA00071C0D80140E050E0AE17BF0750F4129644
:103BB0002D913C911397AD012115310509F1D901E2
:103BC000F3CF9D01DA013383228360817181860FF7
:103BD000971F8217930769F4EC0128813981260F1A
:103BE000371F2E5F3F4F318320838A819B819383D0
:103BF0008283452B29F4F0932E06E0932D0642C0D4
:103C00001396FC93EE931297ED01499159919E0101
:103C1000240F351FE217F30771F480819181840F1F
:103C2000951F029611969C938E9382819381139691
:103C30009C938E931297E0E0F0E0D80112968D915C
:103C40009C911397009719F0F8018C01F6CF8D9194
:103C50009C9198012E5F3F4F820F931F20912B065E
:103C600030912C062817390769F4309729F41092FF
:103C70002E0610922D0602C01382128210932C067B
:103C800000932B06DF91CF911F910F910895A0E033
:103C9000B0E0EDE4FEE10C94AA1CEC01009721F4E5
:103CA000CB010E941A1DB8C0FC01E60FF71F9C0152
:103CB00022503109E217F30708F4ACC0D9010D9185
:103CC0001C91119706171707B0F00530110508F47D
:103CD0009FC0C80104978617970708F499C002503F
:103CE0001109061B170B019311936D937C93CF0160
:103CF0000E94AF1D8DC05B01A01AB10A4C01800E5D
:103D0000911EA0912D06B0912E0640E050E0E12CCE
:103D1000F12C109709F44AC0A815B905D1F56D909A
:103D20007C901197630182E0C80ED11CCA14DB0499
:103D300080F1A3014A195B096A0182E0C80ED11C17
:103D40001296BC9012971396AC91B5E0CB16D104A5
:103D500040F0B282A38351834083D9016D937C9359
:103D60000AC00E5F1F4FC301800F911FF90191839D
:103D70008083EB2DFA2FE114F10431F0D701139673
:103D8000FC93EE93129744C0F0932E06E0932D0619
:103D90003FC08D919C9111974817590708F4AC01C9
:103DA0007D0112960D90BC91A02DB3CF80912B0672
:103DB00090912C0688159905E1F446175707C8F429
:103DC0008091040190910501009741F48DB79EB751
:103DD0004091080150910901841B950BE817F907E0
:103DE000C8F4F0932C06E0932B06F90171836083ED
:103DF0000FC0CB010E941A1D7C01009759F0A80149
:103E0000BE010E94231FCE010E94AF1DC70104C046
:103E1000CE0102C080E090E0CDB7DEB7EEE00C94BA
:103E2000C61C81E090E0F8940C944B1FFB01DC0170
:103E300004C08D910190801921F441505040C8F781
:103E4000881B990B0895FB01DC0102C001900D92C3
:103E500041505040D8F70895FB01DC018D9101904D
:103E600080190110D9F3990B0895FB01DC01019031
:103E70000D920020E1F70895FB01DC014150504014
:103E800048F001900D920020C9F701C01D924150E9
:103E90005040E0F7089510E0CAE6D0E004C0FE010B
:103EA0000E94141D2196CB36D107C9F7F894FFCF95
:103EB000FFFFFFFF00002F06800000000000000051
:103EC00000000100000000000000000001000000F0
:103ED00000000100010000000000000000000100DF
:103EE00000000100000001000000000001000100CE
:103EF00000000100010001000000000000000000BF
:103F000001000100000000000100000001000000AD
:103F1000010001000100000001000000000001009C
:103F2000010001000000010001000000010001008B
:103F300001000100010001000100240227022A0201
:103F40002D0230023302360239023C023F024302A4
:103F500047024B024F025302570200000000860A3C
:103F6000A016F809CD0A290A070A1B0A000000005A
:103F7000B410A016C510850100000000C700920112
:103F8000B60089019500D005DA0500000000F600B2
:103F9000A0168601F5004A016201DD000000000064
:103FA0003F0AA016860185013F0A3F0A3F0A00002A
:103FB00000003F0AA016860185016572726F7220AB
:103FC0006F70656E696E6720626174746572792EB8
:103FD00063737600423100423200423300423400C3
:103FE0004235004236004237004238004239004232
:103FF000313000423131004231320042313300422F
:10400000313400423135004231360053442063617F
:10401000726420697320726561647920746F207501
:1040200073652E005344206361726420696E697465
:1040300069616C697A6174696F6E206661696C652B
:0840400064003B000D0A0000C2
:00000001FF
